:020000040800F2
:10000000680B002091010008990100089B0100087D
:100010009D0100089F010008A101000800000000E8
:10002000000000000000000000000000A301000824
:10003000A501000800000000A7010008D11E00086B
:10004000AB010008AB010008AB010008AB010008E0
:10005000AB010008AB010008AB010008AB010008D0
:10006000AB010008AB010008AB010008AB010008C0
:10007000AB010008AB010008AB010008AB010008B0
:10008000AB010008AB010008AB010008AB010008A0
:10009000AB010008AB010008AB010008AD0C000883
:1000A000AB010008AB010008AB010008AB01000880
:1000B000AB010008AB01000889210008AB01000872
:1000C000AB010008AB010008AB010008AB01000860
:1000D000AB010008AB010008AB010008AB01000850
:1000E000AB010008AB010008AB01000800F002F80A
:1000F00000F03FF80AA090E8000C82448344AAF183
:100100000107DA4501D100F034F8AFF2090EBAE880
:100110000F0013F0010F18BFFB1A43F0010318473B
:10012000C0790000E0790000103A24BF78C878C197
:10013000FAD8520724BF30C830C144BF04680C60ED
:10014000704700000023002400250026103A28BF35
:1001500078C1FBD8520728BF30C148BF0B60704739
:10016000642900F06780002070471FB51FBD10B5DF
:1001700010BD00F0CBFA1146FFF7F7FF04F010F8BE
:1001800000F0E9FA03B4FFF7F2FF03BC02F007FB4B
:100190000948804709480047FEE7FEE7FEE7FEE71B
:1001A000FEE7FEE7FEE7FEE7FEE7FEE70448054957
:1001B000054A064B70470000E91E0008ED000008E4
:1001C00068010020680B00206803002068030020FD
:1001D000704710B54C1084EA530404D54042C1F175
:1001E000000138BF491E1B4204D55242C3F100032F
:1001F00038BF5B1E00F02EF914F0804F04D040424F
:10020000C1F1000138BF491E14F0004F04D0524222
:10021000C3F1000338BF5B1E10BD00000FB40449DA
:1002200010B503AA029800F0F1F910BC5DF814FBB8
:10023000480000202DE9F041064600241068752989
:10024000314616A510D0AFF30080002802DA4042F4
:1002500013A507E031688A0701D512A502E0490716
:1002600004D511A5012401E0AFF3008000210A228A
:1002700006F1240709E0B0FBF2FCB0FBF2F302FB4D
:100280001C00303078541846491C0028F3D123460E
:100290002A463046BDE8F04100F05EB9000000009B
:1002A0002D0000002B000000200000002DE9F05F71
:1002B000894604464FF0000ADFF824B1FB44C0F839
:1002C00020A02046E168884700287DD0252806D058
:1002D000D4E901219047206A401C2062F1E7002503
:1002E0005F462046E16888472028064607DB312E16
:1002F00005D2B81910F8200C08B10543F1E7A8079A
:1003000001D525F00405C4F81CA00027C4F818A0E6
:100310002A2E09D0304602F03BFA38B304EB8708A6
:10032000303EC8F8186019E059F8041B204604EB69
:1003300087029161E1688847012F064618D1E0697C
:10034000002820DA25F020051DE0D8F8180000EB81
:10035000800006EB40003038C8F818002046E168FD
:100360008847064602F014FA0028EED1012F0AD081
:100370002E2E08D12046E16888477F1C0646022FB2
:1003800045F02005C4DBA069002803DA404245F0AF
:100390000105A061E80701D025F01005A6B1A6F17E
:1003A0004100192802D8203645F400654A463146F6
:1003B000204625604D46FFF7D3FE60B1012807D0E7
:1003C000ED1D25F0070000E007E000F1080978E7DF
:1003D00005F1040975E730467AE7206ABDE8F09F29
:1003E000CE76000040EA010310B59B070FD1042A26
:1003F0000DD310C808C9121F9C42F8D020BA19BAF0
:10040000884201D9012010BD4FF0FF3010BD1AB154
:10041000D30703D0521C07E0002010BD10F8013BA9
:1004200011F8014B1B1B07D110F8013B11F8014BD0
:100430001B1B01D1921EF1D1184610BD02F0FF0323
:1004400043EA032242EA024200F0F4B870477047E0
:100450007047704753EA020C00F069802DE9F04BB9
:100460004FF00006002B1FBFB3FA83F503FA05F423
:1004700024FA05F65E4012BF1643B2FA82F502FA7C
:1004800005F4C5F120051EBF22FA05FC44EA0C0460
:10049000203556EA044C4FEA144418BF641C4FF050
:1004A00000084FF00009904271EB030C39D300298A
:1004B00019BFB1FA81F701FA07F6B0FA80F700FA2E
:1004C00007F6C7F120071EBF20FA07FC46EA0C0614
:1004D0002037B6FBF4FCA7EB0507103F07F01F0B16
:1004E000CBF120060CFA0BFB2CFA06F644BFB34600
:1004F0000026202FA4BF5E464FF0000B5BEA060CDF
:1005000008BF4FF0010B19EB0B09ABFB027C48EB6A
:100510000608C01B06FB02CC0BFB03CC71EB0C01E5
:10052000C1E70B46024641464846BDE8F08B13B58D
:100530004FF000004FF00001AFF30080BDE81C4019
:10054000704710B500F096F8006810BD10B504466D
:1005500000F090F8046010BD2DE9F0470D46994673
:100560009246044600F124080168880604D5E06933
:1005700021F01001216000E00120A84201DD471BAD
:1005800000E00027A1697A1902EB0900081AA061AE
:100590002078C00602D42046AFF30080002608E091
:1005A000D4E901211AF806009047206A401C761C05
:1005B00020624E45F4DB2078C0060AD52046AFF312
:1005C000008006E0D4E9012130209047206A401CD9
:1005D0002062381EA7F10107F4DC07E0D4E901210D
:1005E00018F805009047206A401C2062281EA5F1DB
:1005F0000105F3DC2046AFF300802078000602D529
:100600000220BDE8F0870120FBE70000074B70B532
:100610000D467B4400F037F80446284600F046F8C3
:1006200010B14FF0FF3070BD204670BDB3340000F4
:100630004FF000020429C0F0128010F0030C00F00B
:100640003B80CCF1040CBCF1020F18BF00F8012B69
:10065000A8BF20F8022BA1EB0C0100F02DB85FEA37
:10066000C17C24BF00F8012B00F8012B48BF00F823
:10067000012B7047004870470801002001694A1C9F
:1006800002610878704700B58FB0CDE901310021D3
:10069000059105497944CDE9031011466846FFF7F5
:1006A00005FE0FB000BD0000E5FFFFFF007B00F07E
:1006B000800070474FF0000200B5134694469646FE
:1006C000203922BFA0E80C50A0E80C50B1F1200165
:1006D000BFF4F7AF090728BFA0E80C5048BF0CC013
:1006E0005DF804EB890028BF40F8042B08BF704771
:1006F00048BF20F8022B11F0804F18BF00F8012BE3
:100700007047000000487047080100207546FFF759
:10071000F9FFAE4605006946534620F007008546BE
:1007200018B020B5FFF742FDBDE820404FF00006AD
:100730004FF000074FF000084FF0000B21F00701C9
:10074000AC46ACE8C009ACE8C009ACE8C009ACE80C
:10075000C0098D46704710B50446AFF300802046AF
:10076000BDE81040FFF70EBD08B50121084601F0B5
:1007700065F801214FF4017001F080F81020ADF808
:10078000000000208DF803006946024800F0B4FA2A
:1007900008BD00000008014000B591B0334800F0EA
:1007A00053F9334806903348079000200890012001
:1007B000099000200A900B904FF480700C908000FC
:1007C0000D9020200E9000020F900020109006A99E
:1007D000264800F0DFF90121244800F029F9002023
:1007E00001908DF8080001208DF809004FF4602079
:1007F00003900020049001208DF8140001A91C48EA
:100800004C3800F063F84FF4404001F00BF805233A
:100810000122042116484C3800F080F801211448C8
:100820004C3800F034F8012111484C3800F024F81D
:100830000F484C3800F0CEF800BF0D484C3800F09F
:100840003BF80028F9D10A484C3800F0D3F800BF33
:1008500007484C3800F026F80028F9D10121044857
:100860004C3800F0BCF811B000BD00000800024098
:100870004C2401408200002021B1826842F0010234
:10088000826003E0826822F001028260704721B139
:10089000826842F48072826003E0826822F480728F
:1008A00082607047014600208A6802F004020AB1A3
:1008B000012000E000207047014600208A6802F015
:1008C00008020AB1012000E00020704730B502465E
:1008D0000020002350680F4C20400D790C6844EA3A
:1008E00005242043506090680B4C2040D1E902540D
:1008F0002C434D7944EA450420439060D06A20F4AB
:1009000070000C7C641EE4B2234340EA0350D062C2
:1009100030BD0000FFFEF0FFFDF7F1FFF0B504462B
:100920000D4600200021092D11DDE068A5F10A0621
:1009300006EB4607072606FA07F18843A5F10A06E3
:1009400006EB460603FA06F10843E0600CE0206976
:1009500005EB4507072606FA07F1884305EB450630
:1009600003FA06F108432061072A0FDA606B561E6E
:1009700006EB86071F2606FA07F18843561E06EB8C
:10098000860605FA06F10843606322E00D2A0FDAB5
:10099000206BD61F06EB86071F2606FA07F1884351
:1009A000D61F06EB860605FA06F10843206310E021
:1009B000E06AA2F10D0606EB86071F2606FA07F18C
:1009C0008843A2F10D0606EB860605FA06F10843F8
:1009D000E062F0BD816841F008018160704721B19B
:1009E000826842F4A002826003E0826822F4A002DE
:1009F00082607047816841F00401816070470000A7
:100A000008B54FF48050ADF8000010208DF80300B9
:100A100003208DF802006946044800F06DF94FF498
:100A20008051024800F045FA08BD0000000801406E
:100A300021B1026842F00102026004E002684FF650
:100A4000FE731A400260704701684FF6FE72114053
:100A500001600021016041608160C1604B498842B2
:100A600008D14A490839496841F00F01474A083A14
:100A700051608AE045491431884208D14349083918
:100A8000496841F0F001414A083A51607DE03F4930
:100A90002831884208D13D490839496841F47061DC
:100AA0003A4A083A516070E038493C31884208D1EE
:100AB00036490839496841F47041344A083A51606E
:100AC00063E032495031884208D1304908394968D9
:100AD00041F470212D4A083A516056E02B496431A7
:100AE000884208D129490839496841F47001274AE8
:100AF000083A516049E025497831884208D12349B4
:100B00000839496841F07061204A083A51603CE078
:100B10001F49884206D1011F096841F00F01021FD9
:100B2000116032E01A491431884208D11849091F6E
:100B3000096841F0F001164A121F116025E01449BE
:100B40002831884208D11249091F096841F47061AF
:100B50000F4A121F116018E00D493C31884208D13C
:100B60000B49091F096841F47041094A121F1160BD
:100B70000BE007495031884207D10549091F096830
:100B800041F47021024A121F1160704708000240B0
:100B90000804024010B50022026847F6F0739A4339
:100BA0000C6A8B6823430C6923434C6923438C698B
:100BB0002343CC6923434C6A23438C6A23431A435F
:100BC0000260CB6843600B6883604B68C36010BDF4
:100BD00010B500F083FC00F0CDFC00F02FFC10BD40
:100BE00031B5164800684FF47A71B0FBF1F4204635
:100BF00001F044F908B100BFFEE74FF0E0200069C2
:100C000020F001004FF0E02108610D4900980860D4
:100C10004FF0E020006940F001004FF0E021086152
:100C200000BF074800680028FBD14FF0E0200069B2
:100C300020F001004FF0E021086138BDE400002001
:100C40004400002031B5164800681649B0FBF1F4A5
:100C5000204601F013F908B100BFFEE74FF0E02095
:100C6000006920F001004FF0E02108610E49009872
:100C700008604FF0E020006940F001004FF0E021F3
:100C8000086100BF084800680028FBD14FF0E02051
:100C9000006920F001004FF0E021086138BD00003C
:100CA000E400002040420F004400002010B54FF443
:100CB000807000F00DF818B14FF4807000F002F869
:100CC00010BD000001490860704700001404014095
:100CD000014600200022074B1B6803EA0102054B76
:100CE00014331B680B4013B10AB1012000E000204F
:100CF00070470000000401402DE9F0410246002544
:100D00000026002000230024002791F803C00CF0E7
:100D10000F0591F803C00CF0100CBCF1000F03D0CC
:100D200091F802C04CEA050591F800C0BCF1000F33
:100D300031D0146800202BE04FF0010C0CFA00F3C6
:100D4000B1F800C00CEA03069E4220D183004FF0A8
:100D50000F0C0CFA03F7BC4305FA03FC4CEA04043D
:100D600091F803C0BCF1280F06D14FF0010C0CFA2A
:100D700000FCC2F814C00AE091F803C0BCF1480FAF
:100D800005D14FF0010C0CFA00FCC2F810C0401C59
:100D90000828D1D31460B1F800C0BCF1FF0F34DDD6
:100DA000546800202EE000F1080C4FF0010808FA0A
:100DB0000CF3B1F800C00CEA03069E4221D1830077
:100DC0004FF00F0C0CFA03F7BC4305FA03FC4CEA96
:100DD000040491F803C0BCF1280F05D100F1080C00
:100DE00008FA0CF8C2F8148091F803C0BCF1480F5F
:100DF00007D100F1080C4FF0010808FA0CF8C2F80E
:100E00001080401C0828CED35460BDE8F08100005B
:100E1000F0B50A46002300240021002500F000461A
:100E2000B6F1004F02D11D4EF16901E01B4E716811
:100E3000C0F3034583B200F44016B6F5401F08D155
:100E400021F07061154E766826F07066134F7E6053
:100E500012E000F48016B6F5801F06D1032606FACC
:100E600005F4A14341F0706106E0460D360103FA36
:100E700006F6B14341F0706122B1460D360103FA26
:100E800006F6314300F00046B6F1004F02D1034EA2
:100E9000F16101E0014E7160F0BD00000000014011
:100EA0000246002093680B400BB1012000E00020B7
:100EB0007047416170470161704700002DE9F05FA4
:100EC0000E48008805F00CFD83464FF08B4105F07D
:100ED000BDFB824605F020FB06464FF06632084B0C
:100EE00005F040F8044600224FF0804305F03AF840
:100EF000804604F09DFDBDE8F09F000082000020C8
:100F000066660A4070B500F061F8FFF779FD01F000
:100F1000BCFB0520FFF764FEFFF7D0FF2449086003
:100F20000846006805F0F8FA0446224A224B04F00D
:100F3000DDFF08D800F036FC4FF400411F48FFF7F2
:100F4000BAFF00BFFEE7FFF743FE04E04FF40041A5
:100F50001A48FFF7B0FF03F059FC0028F6D100242F
:100F600008E0174A1749184803F03EFB0120FFF735
:100F700037FE641CB4F5167FF3DB4FF400410F48D5
:100F8000FFF797FF00F016FD6420FFF729FE04E04D
:100F90004FF400410948FFF78EFF00F095FC002850
:100FA000F6D04FF400410548FFF783FF70BD000005
:100FB000E00000209A999999999909400008014008
:100FC00014000020100000200C00002008B50121B2
:100FD000084600F053FC01210F48FFF719FF0121DB
:100FE0000E48FFF715FF0121042000F047FC4FF4E5
:100FF0000040ADF8000010208DF8030003208DF8AC
:10100000020069460648FFF777FE4FF400410448A6
:10101000FFF74FFF08BD0000000430000002300061
:10102000000801402DE9FC4104460D4616466B467A
:1010300006224321682000F097F90746BFB99DF8C2
:1010400001009DF8001040EA012000B220809DF8C8
:1010500003009DF8021040EA012000B228809DF8AC
:1010600005009DF8041040EA012000B230803846A7
:10107000BDE8FC812DE9F84F6B4602224121682032
:1010800000F072F99DF801009DF8001040EA01207F
:101090000FFA80FA504604F011FF80460022074BF9
:1010A00004F0B4FD0646064A064B04F0F3FC044681
:1010B00004F0BEFC83465846BDE8F88F00407540FA
:1010C000A4703D0AD743424010B54FF080600F49ED
:1010D00008600E480C38006820F470400B490C3949
:1010E00008600846006840F4405008604806074918
:1010F000086000F00DF84FF480600449086000F0CB
:1011000007F84FF080600149086010BD100C0140E5
:1011100010B50220FFF796FD10BD000008B50121B3
:10112000082000F0ABFB4FF44060ADF80000032056
:101130008DF8020010208DF8030069460448FFF77F
:10114000DBFD4FF440610248FFF7B5FE08BD00002B
:10115000000C014010B54FF080600F4908600E4848
:101160000C38006820F470400B490C3908600846C0
:10117000006840F440500860C81407490860FFF751
:10118000C7FF4FF4806004490860FFF7C1FF4FF0CC
:1011900080600149086010BD100C014070B5054623
:1011A00000241848006820F470401649086008467A
:1011B000006840F400400860002619E04FF08060AD
:1011C00010490C310860FFF7A3FF4FF480600D4910
:1011D0000C3108606006040E0A48001D006800F427
:1011E000006008B1601CC4B2FFF792FF701CC6B269
:1011F000082EE3DB15B9FFF7ADFF01E0FFF764FF51
:10120000204670BD040C014070B5044619480068C2
:1012100020F47040174908600846006840F44050C8
:101220000860080613490C31086000251FE004F02F
:10123000800028B14FF400600E490C31086004E0D2
:101240004FF000600B490C3108606006040E4FF44B
:10125000806008490C310860FFF75AFF4FF080604A
:1012600004490C310860FFF753FF681CC5B2082D14
:10127000DDDB70BD040C014010B51048006820F49F
:1012800070400E4908600846006840F4405008600D
:10129000C8140A490C31086040100860FFF738FF95
:1012A0004FF0006005490C310860FFF731FF4FF047
:1012B000806002490C31086010BD0000040C014040
:1012C00010B50E48006820F470400C4908600846CC
:1012D000006840F440500860080608490C31086076
:1012E00040000860FFF714FF4FF4806003490C31A1
:1012F000086040000860FFF70BFF10BD040C0140C0
:1013000010B500241748006820F4704015490860A3
:101310000846006840F400400860C81411490C31C8
:101320000860FFF7F5FE4FF480600E490C3108604D
:10133000FFF7EEFE07E0601CC4B2FA2C03DDFFF7F6
:10134000BFFF012010BD0748001D006800F40060C9
:101350000028F0D14FF0806002490C310860002075
:10136000F0E70000040C01402DE9F04106460F466D
:1013700014461D46FFF780FF002141EA4601C8B22E
:10138000FFF742FFFFF7BCFF20B1FFF799FF0120F5
:10139000BDE8F0813846FFF737FFFFF7B1FFFFF7F1
:1013A0006BFF012101EB4601C8B2FFF72DFFFFF7EC
:1013B000A7FF0DE0012C04D10020FFF7EFFE2870FD
:1013C00003E00120FFF7EAFE2870601EC4B26D1C26
:1013D000002CEFD1FFF774FF0020D9E72DE9F04191
:1013E00005460E4617469846FFF746FF002141EA9C
:1013F0004501C8B2FFF708FFFFF782FF20B1FFF7F2
:101400005FFF0120BDE8F0813046FFF7FDFEFFF7EA
:1014100077FF00240CE018F80400FFF7F5FEFFF753
:101420006FFF18B1FFF74CFF0120EBE7601CC4B25F
:10143000BC42F0DBFFF744FF0020E3E700B587B0D4
:101440000121032000F00AFA4FF6FF70ADF81400F6
:101450000020ADF81000ADF81600ADF8120004A998
:101460004FF0804001F0AEF800231A4603214FF000
:10147000804000F0E9FE01A800F05EFF0A20ADF810
:101480000C0001A9400700F001FF00214FF080404F
:1014900001F069F80121880700F0BBFE04A90E489D
:1014A00001F090F800231A4603210B4800F0CCFE0F
:1014B00001A800F041FF0A20ADF80C0001A9064880
:1014C00000F0E4FE0021044801F04DF8012102483B
:1014D00000F09FFE07B000BD0004004008B50121E8
:1014E0000C2000F0CBF90320ADF8000014208DF89B
:1014F000030003208DF8020069461C48FFF7FCFB3F
:1015000003211A48FFF7D7FC4FF4C060ADF8000084
:1015100018208DF8030003208DF802006946144856
:10152000FFF7EAFB0320ADF8000004208DF803006C
:1015300069460F48FFF7E0FB4FF44070ADF800003C
:1015400018208DF8030003208DF802006946074833
:10155000FFF7D2FBC020ADF8000004208DF8030097
:1015600069460348FFF7C8FB08BD0000000C0140B6
:101570000008014000B589B00121042000F06EF997
:101580000121C80200F07AF940F60F60ADF81C00A6
:101590000020ADF81800ADF81E00ADF81A0006A93D
:1015A0003C4801F00FF86020ADF808000120ADF8CC
:1015B0000A000020ADF80E00ADF8100002A9354871
:1015C00000F02CFF0821334800F078FF02A93148D1
:1015D00000F07EFF08212F4800F0B8FF01212D48C0
:1015E00000F008FE01212B4800F010FE01221146F8
:1015F000284800F0AAFE4FF4A06000F0C9F81E20B1
:101600008DF8040003208DF805008DF806000120F8
:101610008DF8070001A800F083F801211D4800F0B3
:10162000F8FD40F60F60ADF81C000020ADF8180082
:10163000ADF81E00ADF81A0006A9174800F0C2FF69
:101640006020ADF808000120ADF80A000020ADF8D8
:101650000E00ADF81000ADF81400ADF8160002A9A8
:101660000D4800F07BFE08210B4800F0C9FE02A9DE
:10167000094800F0D3FE0821074800F01FFF0121B0
:10168000054800F0C6FD0121034800F0CEFD09B079
:1016900000BD000000080040002C0140B1F5616F62
:1016A00002DB40F60F6103E011F5616F00DC1949C0
:1016B000B0B9002905DD184B198000221B1D1A80C6
:1016C00026E0002906DA0022134B1A804A421B1D2D
:1016D0001A801DE00022104B1A801B1D1A8017E093
:1016E000012815D1002905DD0C4B198000221B1D96
:1016F0001A800DE0002906DA0022084B1A804A42BF
:101700001B1D1A8004E00022044B1A801B1D1A8046
:1017100070470000F1F1FFFF3C080040382C014009
:1017200070B5002100230F22C47804B3154C24683F
:1017300004F4E064C4F5E064210AC1F10403CA4082
:10174000447804FA03F184781440214309010E4CD3
:101750000678A155047804F01F050124AC400578F3
:101760006D11AD0005F1E025C5F8004109E00478F0
:1017700004F01F050124AC40044D0678761145F8AD
:10178000264070BD0CED00E000E400E080E100E0E8
:1017900002490143024A1160704700000000FA0547
:1017A0000CED00E010B503220249034800F006F8F2
:1017B00010BD0000B1000020AE0000202DE9F04770
:1017C00005460E4617464FF00A09002418E04FF070
:1017D000000809E0295D0C4A32F8110000F02CFBEA
:1017E00008F101001FFA80F8305D295D064A32F8E1
:1017F00011104843B0FBF9F04045EBD8601C84B2AF
:10180000BC42E4DBBDE8F0878800002010B505226B
:1018100002490348FFF7D2FF10BD0000A9000020D5
:10182000A400002001460020034A506820F44040F4
:1018300008435060704700000010024029B1064A7A
:1018400052690243044B5A6104E0034A52698243DD
:10185000014B5A61704700000010024029B1064A4E
:10186000D2690243044BDA6104E0034AD26982433D
:10187000014BDA61704700000010024029B1064AAE
:1018800092690243044B9A6104E0034A92698243DD
:10189000014B9A6170470000001002400146022986
:1018A00002D0032908D103E0054AB2F9000005E09F
:1018B000044AB2F9000001E0002000BF00BF7047F9
:1018C00084000020860000207CB510A103C9CDE96A
:1018D000000105226946302000F0ACF90522694676
:1018E000102000F07BF8002406E01DF80400A52875
:1018F00000D003E0601CC4B2052CF6DB00BF052C51
:1019000001D0002500E0012528467CBDA5A5A5A5A0
:10191000A500000008B501210C20FFF7AFFF04204F
:10192000214908808002ADF8000010208DF80300E6
:1019300003208DF8020069461C48FFF7DDF94FF4DB
:1019400080511A48FFF7B5FA4FF46040ADF8000037
:1019500018208DF8030003208DF802006946134813
:10196000FFF7CAF94FF40060ADF8000010208DF8C1
:10197000030003208DF8020069460D48FFF7BCF90B
:101980004FF400610A48FFF794FA4FF48070ADF805
:10199000000048208DF8030003208DF802006946FE
:1019A0000348FFF7A9F908BD04380040000C0140C6
:1019B0000008014010B5FFF7ADFF00F09DF84FF4AF
:1019C00080510448FFF777FA4FF400610248FFF7AF
:1019D00070FA10BD000C0140000801402DE9F041F3
:1019E00007460C4615464FF480510C48FFF761FA44
:1019F000384600F059F98046002605E0FF2000F047
:101A000053F92070641C761CAE42F7DB4FF4805112
:101A10000248FFF750FA4046BDE8F081000C014053
:101A200070B504464FF480510848FFF742FA20464B
:101A300000F03AF9FF2000F037F905464FF48051E5
:101A40000248FFF738FA284670BD0000000C01403C
:101A500010B54FF400611348FFF72BFA0522124925
:101A60002A2000F0E7F80121212000F005F90121EA
:101A7000222000F001F92821252000F0FDF80621A0
:101A8000312000F0F9F80F21262000F0F5F80F21A1
:101A9000202000F0F1F84FF400610248FFF70BFA44
:101AA00010BD0000000801403F00002070B5044652
:101AB0004FF400610F48FFF7FCF90720FFF7B0FF74
:101AC00005462946272000F0D7F805F0400050B120
:101AD000062221466120FFF781FFFF21E22000F06E
:101AE000CBF8002070BD4FF400610248FFF7E3F926
:101AF0000120F7E70008014000B585B00121880307
:101B0000FFF7ACFE0021144800F0EAF80020ADF821
:101B100000004FF48270ADF802000020ADF8040020
:101B2000ADF80600ADF808004FF40070ADF80A00FB
:101B30001020ADF80C000020ADF80E000720ADF825
:101B400010006946044800F0E5F80121024800F061
:101B5000C7F805B000BD00000038004010B54FF4D4
:101B600000611748FFF7A5F905221649302000F05B
:101B700061F8052214492A2000F05CF80121212097
:101B800000F07AF80121222000F076F805212420C7
:101B900000F072F82821252000F06EF80F21262091
:101BA00000F06AF80E21202000F066F8FF21E12005
:101BB00000F062F84FF400610148FFF77CF910BDB6
:101BC000000801403A0000203F00002070B50546A3
:101BD0004FF400611648FFF76CF908222946A0204F
:101BE00000F028F84FF400611148FFF764F900BFD6
:101BF0004FF480710E48FFF753F90028F8D1072001
:101C0000FFF70EFF04462146272000F035F804F0C8
:101C1000100028B1FF21E12000F02EF8102070BD47
:101C200004F0200008B12020F9E7FF20F7E70000CA
:101C3000000801402DE9F04107460C4615464FF4D7
:101C400080510C48FFF735F9384600F02DF88046F2
:101C5000002604E0207800F027F8641C761CAE42D1
:101C6000F8DB4FF480510348FFF725F94046BDE803
:101C7000F0810000000C014070B505460C464FF4A1
:101C800080510848FFF715F9284600F00DF8064680
:101C9000204600F009F84FF480510248FFF70BF995
:101CA000304670BD000C014010B5044600BF022153
:101CB0000A4800F021F80028F9D02146074800F032
:101CC00027F800BF0121054800F016F80028F9D0D8
:101CD000024800F01AF8C0B210BD00000038004001
:101CE00021B1028842F04002028004E002884FF6EF
:101CF000BF731A40028070470246002013890B40D0
:101D00000BB1012000E00020704701468889704730
:101D10008181704710B50022028802F441520B887D
:101D20004C8823438C882343CC8823430C8923434A
:101D30004C8923438C892343CC8923431A43028053
:101D4000838B4FF2FF74234083830B8A038210BD81
:101D500010B500F001F810BD0CB500200190009006
:101D60003348006840F480303149086000BF304893
:101D7000006800F4003000900198401C0190009829
:101D800018B90198B0F5A06FF1D12948006800F4A6
:101D9000003010B10120009001E000200090009878
:101DA000012843D12348006840F010002149086011
:101DB0000846006820F0030008600846006840F00C
:101DC000020008601A48406819494860084640689F
:101DD00048600846406840F48060486008464068B3
:101DE00020F47C1048600846406840F4E8104860E1
:101DF0000846006840F08070086000BF0C4800682A
:101E000000F000700028F9D00948406820F0030075
:101E1000074948600846406840F00200486000BF3B
:101E20000348406800F00C000828F9D10CBD000000
:101E3000001002400020024070B50446B4F57A7FDD
:101E400013D00C48B0FBF4F54FF480510A48FFF76B
:101E500032F82846FEF7F6FE4FF480510648FFF7A9
:101E600028F82846FEF7EEFE03E04FF47A70FEF7FE
:101E7000E9FE70BD20A107000008014030B5014611
:101E8000B1F1807F01D3012030BD21F07F40401EA1
:101E90004FF0E022506150170F22002807DA130795
:101EA0001D0E094B00F00F04241F1D5503E01307FE
:101EB0001C0E064B1C5400BF00204FF0E022906126
:101EC000072010610020DFE718ED00E000E400E0EB
:101ED0000448006820B103480068401E01490860BA
:101EE000704700004400002010B51348006840F01F
:101EF00001001149086008464068104908400E4931
:101F00004860084600680E4908400B4908600846CA
:101F1000006820F4802008600846406820F4FE0035
:101F200048604FF41F008860FFF712FF4FF0006019
:101F30000449086010BD0000001002400000FFF8D6
:101F4000FFFFF6FE08ED00E0F0B50C461546002256
:101F50000021068C4FF6FE773E400684028B018CF2
:101F60004FF60C7632407E1C06EA03162E433243AF
:101F7000104EB0420ED0104EB0420BD0B0F1804F98
:101F800008D00E4EB04205D00D4EB04202D00D4EDC
:101F9000B04206D14FF6FD76314044F001063143A0
:101FA00005E04FF6F576314044F0010631430283F7
:101FB0000184F0BD002C01400034014000040040C9
:101FC00000080040000C0040F0B50C461546002209
:101FD00000210026078C4FF6EF7C07EA0C070784E8
:101FE000028B018C4FF6FF7707EA041640F6FF4795
:101FF0003A404FF6FF7707EA03373A434FF6FF7749
:1020000007EA05273A43114FB8420ED0104FB842A5
:102010000BD0B0F1804F08D00E4FB84205D00E4F14
:10202000B84202D00D4FB84206D14FF6DF773940A3
:1020300046F01007394305E04FF65F77394044F02A
:102040001007394302830184F0BD0000002C0140D9
:10205000003401400004004000080040000C004033
:10206000F0B50C461546002200210026078C4FF6DD
:10207000FF6C07EA0C070784828B018C4FF6FF7711
:1020800007EA04264FF60C773A404FF6FF7707EA47
:1020900003172F433A43114FB8420ED0104FB842A6
:1020A0000BD0B0F1804F08D00E4FB84205D00E4F84
:1020B000B84202D00D4FB84206D14FF6FF57394013
:1020C00046F48077394305E04FF2FF57394044F436
:1020D0008077394382830184F0BD0000002C0140E9
:1020E000003401400004004000080040000C0040A3
:1020F000F0B50C461546002200210026078C4EF64E
:10210000FF7C07EA0C070784828B018C4FF6FF7770
:1021100007EA043640F6FF473A404FF6FF7707EAF2
:1021200005273A434FF6FF7707EA03373A43114F43
:10213000B8420ED0104FB8420BD0B0F1804F08D04B
:102140000E4FB84205D00E4FB84202D00D4FB842E4
:1021500006D14DF6FF77394046F48057394305E004
:1021600047F6FF57394044F480573943828301844E
:10217000F0BD0000002C014000340140000400408C
:1021800000080040000C00401548008800F00100E5
:10219000F0B114480088C82805DA12480088401CAD
:1021A0001049088014E000200E4908804FF080405C
:1021B000808C00B20C49088000204FF08041888458
:1021C0000A48008800B20A490880002007490880B0
:1021D0000348008820F00100014908807047000092
:1021E0001008004038000020840000202404004033
:1021F0008600002021B1028842F08002028004E0C3
:1022000002884FF67F731A4002807047CA430282E9
:10221000704721B1028842F00102028004E0028886
:102220004FF6FE731A400280704731B1B0F8442077
:1022300042F40042A0F8442005E0B0F84420C2F384
:102240000E02A0F844207047F0B50C4615461E4615
:102250000021002200230189028B038C4FF6F877BE
:10226000394021434FF6FC473A4040F201173A43C8
:102270004FF6DD773B404FF6FF7707EA06172F430F
:102280003B43018102830384F0BD000070B5054625
:102290000C46244885420ED0234885420BD0B5F128
:1022A000804F08D02148854205D02148854202D080
:1022B0002048854200D100E000BF208850B9238922
:1022C000A28861882846FFF73FFEE188284600F093
:1022D0004CF925E0208804280AD12389A288618846
:1022E0002846FFF771FEE188284600F047F917E01D
:1022F000208808280AD12389A28861882846FFF708
:10230000AFFEE188284600F046F909E02389A2885B
:1023100061882846FFF7ECFEE188284600F044F982
:1023200070BD0000002C014000340140000400405A
:1023300000080040000C0040002101804180012184
:1023400081800021C180018170471AB183890B43CC
:10235000838102E083898B438381704770B50024B9
:1023600000220023058C4FF6EF7635400584028C61
:102370008388048B48F6FF752C404FF6FF452C40B0
:102380000D884FF6FF7606EA05252C434FF6DF75DC
:102390002A400D8906EA05152A434D8806EA0515E7
:1023A0002A43154DA84202D0144DA8421DD14FF624
:1023B0007F752A404D894FF6FF7606EA05152A43B8
:1023C0004FF6BF752A408D8806EA05152A434FF659
:1023D000FF352B404FF2FF752B408D8906EA8505AE
:1023E0002B43CD8906EA85052B4383800483CD8862
:1023F0000587028470BD0000002C014000340140BC
:102400000A460021018B4FF2FF7319404FF6FF730C
:1024100003EA0223194301837047000070B50024CA
:1024200000220023058C4FF6FF6635400584028CA0
:102430008388848B4FF68F752C404FF6FC752C40AB
:102440000D882C434FF6FF552A400D894FF6FF7635
:1024500006EA05252A434D8806EA05252A43154D37
:10246000A84202D0144DA8421DD14FF2FF752A4058
:102470004D894FF6FF7606EA05252A434FF6FF35CC
:102480002A408D8806EA05252A434EF6FF752B4023
:102490004DF6FF752B408D8906EA05152B43CD8936
:1024A00006EA05152B4383808483CD8885870284C3
:1024B00070BD0000002C0140003401400A4600219C
:1024C000818B4FF6F77319401143818370470000E9
:1024D00070B5002200230024058C4EF6FF763540AF
:1024E0000584038C8488828B48F6FF752A404FF65A
:1024F000FF452A400D884FF6FF7606EA05252A4358
:102500004DF6FF752B400D8906EA05352B434D88A6
:1025100006EA05352B430B4DA84202D00A4DA842CE
:1025200008D14BF6FF752C408D894FF6FF7606EAF1
:1025300085152C4384808283CD88A0F84050038485
:1025400070BD0000002C0140003401400A4600210B
:10255000818B4FF2FF7319404FF6FF7303EA02239A
:1025600019438183704781847047028B4FF6F37360
:102570001A400283028B0A4302837047028B4FF298
:10258000FF331A400283028B4FF6FF7303EA0123E5
:102590001A4302837047828B4FF6F3731A4082838B
:1025A000828B0A4382837047828B4FF2FF331A403B
:1025B0008283828B4FF6FF7303EA01231A438283DF
:1025C00070470000002202881D4B98420ED01D4B20
:1025D00098420BD0B0F1804F08D01B4B984205D0E9
:1025E0001A4B984202D01A4B984204D14FF68F737F
:1025F0001A404B881A43174B984207D0164B984203
:1026000004D04FF6FF431A40CB881A4302808B88D0
:1026100083850B8803850A4B98420BD0094B98425F
:1026200008D00E4B984205D00D4B984202D00D4B6E
:10263000984201D10B7A0386012383827047000000
:10264000002C01400034014000040040000800401C
:10265000000C004000100040001400400040014009
:10266000004401400048014002460020B1F5007FCF
:1026700000D100BF13880B400BB1012000E0002007
:102680007047C1F308028280704710B5FEF76CF8FE
:10269000FEF782F810BD490050EAC12018BF04209F
:1026A0004A0D18BF40F0010040F2FF72B2EB515FDB
:1026B00008BF40F00200012808BF052070472DE93F
:1026C000F0414F1E00EBC7010446D1E90001154659
:1026D0001E4637F006020DD02A46334603F042FC70
:1026E0007F1E04EBC703D3E9002303F0D3F937F0CF
:1026F0000602F1D1022F25D0042F13D0062F18BFC8
:10270000BDE8F0812A46334603F02CFCD4E90A23C5
:1027100003F0C0F92A46334603F024FCD4E9082329
:1027200003F0B8F92A46334603F01CFCD4E906232B
:1027300003F0B0F92A46334603F014FCD4E904232D
:1027400003F0A8F92A46334603F00CFCD4E902232F
:1027500003F0A0F92A46334603F004FCD4E9002331
:10276000BDE8F04103F096B9012204F0A6BA03F0E7
:1027700091B9002213461046114603F047BA0000F3
:10278000024A0020110704F098BA000001FDFFFF83
:1027900030380A2801D20120704700207047704766
:1027A0002DE9FE4F074688460026684601F09EF94F
:1027B000002444E057F8240058F82410A0EB010A44
:1027C000BAF1000F01DB514601E0CAF100010846F1
:1027D00004F06EF883464FF08F4103F037FF8146D7
:1027E0005DF82400002103F0F3FF18D05DF82410F9
:1027F000484603F02BFF82464FF07E5104F0B6F9B5
:10280000054600BF25F0004082460F48416A504609
:1028100004F07AF912D20120A04006430EE00A48E3
:10282000C169484604F070F805D30748016A484674
:1028300004F06AF902D20120A0400643641C032C74
:10284000B8DB3046BDE8FE8F706D00082DE9F04D15
:102850008D4F21F0004A86B005460C46BA452ADB6A
:10286000AAEB070028430AD08848824501DC1AD128
:10287000CDB106B02846BDE8F04DFFF775BF844ADC
:10288000844B284603F06EFB07460E46824A834B74
:102890002846214603F066FB06B03A463346BDE8BB
:1028A000F04D03F0F7B80120FDF750FE06B0BDE88B
:1028B000F04DFFF75EBF7A48824542DABAF1795FA0
:1028C0000BDA2846FFF7E7FE042808BFFFF758FF9A
:1028D000284606B02146BDE8F08D2A460B46104634
:1028E00003F040FB834602466E480E460B46062127
:1028F0007844FFF7E4FE5A46334603F033FB804644
:1029000069488A465A46334604217844FFF7D7FE81
:102910005A46334603F026FB00223B4603F0BAF842
:1029200002460B464046514603F070F92A462346BC
:1029300003F018FB06B02A462346BDE8F04D03F02D
:10294000A9B8284624F0004100223D463B4603F04A
:1029500007FC4FF0FF3204F0B0F906460246534838
:102960000F460B4606217844FFF7A9FE32463B4648
:1029700003F0F8FACDE900014D4832463B46042108
:102980007844FFF79CFE32463B4603F0EBFA002208
:102990002B4603F07FF8834602913046394602F019
:1029A00063FF804643480D46504517DCDDE90001D2
:1029B0005A46029B03F02AF942462B4603F0D2FA0C
:1029C00042462B4603F066F8012204F076F9304ABD
:1029D000304B03F0B7FC304A304B4CE04FF0000A6C
:1029E00052460B46404603F055F8CDE903105246D7
:1029F0002B461046194603F0B5FA32463B4603F023
:102A0000AFFBDDE9033203F001F906460F46DDE9CD
:102A100000015A46029B03F0F9F883460091012217
:102A20003046394604F049F9194A1A4B03F098FB2D
:102A300006460F4601224046294604F03EF95A4612
:102A4000009B03F08FFA32463B4603F07BFC0646C0
:102A50000F4601225046294604F02FF90E4DDFF8AB
:102A600058802A46434603F07BFB32463B4603F040
:102A700077FB2A46434603F073FB002CD8BF81F056
:102A8000004106B0BDE8F08D0000F03F0000F07F8F
:102A9000075C143326A6913C182D4454FB21F93FC2
:102AA0000000E03FAC500000C25000003650000073
:102AB0004C5000003333EF3FFB21E93F2DE9F84F45
:102AC00004460D4621F0004000917349814211DC1B
:102AD0007249884201DC06D12CB120462946BDE866
:102AE000F84FFFF741BE6E48002DCCBF6D496E49CF
:102AF000BDE8F88F6D49814211DD6D498142D8BF33
:102B00004FF0FF366DDD20462946FFF7C4FD04284F
:102B100008BFFFF735FE20462946BDE8F88F654916
:102B2000654F25F00045814233DD6449814219DD5E
:102B3000002632464FF080432046294602F0AAFF85
:102B400080468A4601222046294604F0B6F8002233
:102B50003B4603F0F7FB4246534603F057F8044662
:102B60000D463EE001260022BA463B462046294655
:102B700002F090FF80460F46002253462046294629
:102B800003F0E0FB42463B4603F040F804460D46A6
:102B900027E04B4981421BDDDFF828A102260022F5
:102BA00053462046294603F0DDF900223B4602F059
:102BB00071FF80460F46002253462046294603F007
:102BC000C1FB42463B4603F021F804460D4608E0AF
:102BD000032622462B4600203B4903F017F8044603
:102BE0000D4622462B461046194603F0BBF98B468C
:102BF000824602460B4603F0B5F9074602463348C3
:102C000088460B4606217844FFF759FD52465B463D
:102C100003F0A8F982462E488B463A4643460521E2
:102C20007844FFF74CFD3A46434603F09BF90246D1
:102C30000B46002E504659460CDA02F02BFF224676
:102C40002B4603F08FF901B022462B46BDE8F04F2A
:102C500003F086BA02F01EFF22462B4603F082F9EB
:102C60001C4A7A4402EBC603D3E9002303F06AFB53
:102C700022462B4603F066FB174A7A4402EBC60352
:102C8000D3E9002303F06CFA009A002AB8BF81F060
:102C90000041BDE8F88F0000000010440000F07F04
:102CA000182D4454FB21F93FFB21F9BF0000DC3F04
:102CB0000000203E0000F33F0000F03F0000E63F30
:102CC000008003400000F83F0000F0BF4E4E0000BF
:102CD0000C4E0000AA4D0000724D00002DE9F04D91
:102CE0009446CCF1000423F000464CEA0404524F11
:102CF00046EAD4749A46884621F00042BC4206D87F
:102D0000454240EA050442EAD474BC4204D9BDE815
:102D1000F04D6246FFF72BBDAAF14055A5F17F6546
:102D200055EA0C040BD0022404EAAA74434DDFF8E0
:102D300010E144EAD87452EA000B04D00CE0BDE87C
:102D4000F04DFFF7BBBE002C14BF012CBDE8F08D89
:102D5000022C30D0032C32D056EA0C0B0AD0BE42E3
:102D600020D1BA4209D126F0804622F08042334673
:102D7000114617E000291ADB25E0DFF8C8B0FB4454
:102D8000002C04BFDBE90001BDE8F08D012C02BF7F
:102D9000DBE9000181F00041BDE8F08D022C0AD092
:102DA000032C0CD0BA4212D1B8F1000F0BDA234831
:102DB0002549BDE8F08D28462449BDE8F08D284618
:102DC0007146BDE8F08D1D482149BDE8F08D921B8C
:102DD00012153C2AC4BF19481D490EDCBAF1000F78
:102DE000BEBF12F13C0F0020014606DB624602F036
:102DF0000DFF21F00041FFF761FE002C08BFBDE888
:102E0000F08D012C04BF81F00041BDE8F08D114A26
:102E1000114B022C07D003F095FA2A46BDE8F04D7D
:102E20000A4B03F08FBA03F08DFA2A46BDE8F04D45
:102E3000064B03F095B900000000F07F182D4454B4
:102E4000FB2109C0064D0000FB21F9BFFB21094011
:102E5000FB21F93F075C143326A6A13C2DE9F05F66
:102E600005460C460F480168284603F07FFE814660
:102E7000204603F01DFD83460B480168584603F0C9
:102E800077FD804649460948006803F071FD824697
:102E9000414603F06DFB074603F0CEFC064630B218
:102EA000BDE8F09FCC000020B8000020B400002056
:102EB0002DE9F0410446E07800F0C006E07800F02B
:102EC0003F05607800F0010098B1EF102846E9173F
:102ED00005EB5171C910A5EBC101491C01F0FF08B8
:102EE0000B48006820B10A484146026838469047BE
:102EF00000BF607800F0080030B10548406818B1A4
:102F0000B011034A516888470020BDE8F0810000F5
:102F1000F800002038B5044664B120208DF8000088
:102F200028208DF8010030208DF8020038208DF81F
:102F3000030004E0A32204216846FDF77FFA6A46F5
:102F4000042140F69E2002F0DBFB01F0C5FF38BDF6
:102F50003EB5044602208DF80000CA208DF801001D
:102F6000E3208DF8020009208DF803006A46042151
:102F7000682002F0C5FBA3208DF8000004F040009B
:102F800048B1C0208DF80100C8208DF80200C22091
:102F90008DF8030006E0A3208DF801008DF80200F3
:102FA0008DF8030004F4C07048B1C4208DF804000B
:102FB000CC208DF80500C6208DF8060006E0A32081
:102FC0008DF804008DF805008DF80600A3208DF81B
:102FD00007008DF808008DF809006A460A2140F6BE
:102FE000A72002F08DFB04F0030018B120208DF81B
:102FF000000002E0D8208DF800006A46012140F66A
:10300000B62002F07DFB04F0200018B1012000F092
:10301000ADF802E0002000F0A9F804F4C07008B395
:1030200004F4807060B1B2208DF800008B208DF820
:103030000100B6208DF802009B208DF803000BE004
:10304000B0208DF8000080208DF80100B4208DF8AC
:10305000020090208DF803006A46042140F6A22069
:1030600002F04EFB04F0010020B3F8208DF80000C0
:103070006A4601214FF40B6002F042FBFA2107205F
:1030800000F02CFC072000F0F3FB012000F013FC03
:10309000642000F0F3FC4FF4FA7000F002FDC82148
:1030A000304800F0A3FB282000F0BCFB0A2000F011
:1030B000CCFB08E0D8208DF800006A4601214FF4CF
:1030C0000B6002F01DFB04F0020018B1D9208DF84E
:1030D000000002E0D8208DF800006A46012140F28D
:1030E0003D7002F00DFB04F0040018B1012000F067
:1030F00069F802E0002000F065F804F0100018B153
:103100000120FFF707FF02E00020FFF703FF44F074
:1031100008001549488101F0DFFE0020124988733C
:1031200004F0400018B10846807B801D887304F4C9
:10313000C07020B10C48807B801D0B49887304F05F
:10314000140020B10848807B10300749887304F0D0
:10315000030020B10448807B001D034988730020D0
:103160003EBD000009E3CA02F80000203EB5044657
:103170006CB10EA1D1E900208968CDE9002002914F
:103180006A4609214FF4976002F0BAFA3EBD0AA2DE
:10319000D2E900109268CDE9010200916A46092146
:1031A0004FF4976002F0ACFAF0E70000B8AAB38DD4
:1031B000B4980D355D000000B8AAAAAAB088C3C5AE
:1031C000C700000038B5044664B1C0208DF8000087
:1031D000C2208DF80100C4208DF80200C6208DF8B1
:1031E000030004E08B2204216846FDF727F96A46B4
:1031F000042140F6982002F083FA01F06DFE38BDFC
:1032000010B5C8234FF48062024940F6F63001F051
:10321000F7FC10BD986D00082DE9F04F8DB0074602
:10322000884615469946DDE9166B0024002030805B
:103230006B49887B5A4605A901F0AEFD18B1601EA6
:103240000DB0BDE8F08F6648807A00F014000028C9
:1032500067D09DF8140000069DF8151040EA014063
:103260009DF8161040EA01209DF8171008432860C9
:103270009DF8180000069DF8191040EA01409DF8DD
:103280001A1040EA01209DF81B10084368609DF861
:103290001C0000069DF81D1040EA01409DF81E101C
:1032A00040EA01209DF81F100843A8609DF8200007
:1032B00000069DF8211040EA01409DF8221040EAE6
:1032C00001209DF823100843E86004F11000C4B207
:1032D000286800140190686800140290A86800141F
:1032E0000390E8680014049001984043029901FBA0
:1032F0000100039901FB0100049901FB010ABAF1E5
:10330000706F02DBBAF1885F05DD01F0E5FD00209A
:103310003080401E94E7B6F9000040F480703080A1
:1033200000BF2F48807A00F0400020B305A9601C40
:10333000085C095D40EA012000B2A8F8000005A978
:10334000E01C095C05AAA01C105C41EA002000B248
:10335000A8F8020005A9601D095C201D105C41EA67
:10336000002000B2A8F80400A01DC4B2B6F9000005
:1033700040F0080030801A48408900F4C07008B35B
:1033800005A9601C085C095D40EA012000B2388094
:1033900005A9E01C095C05AAA01C105C41EA0020FC
:1033A00000B2788005A9601D095C201D105C41EA0F
:1033B000002000B2B880A01DC4B2B6F9000040F0F1
:1033C000700030800648807A00F0030018B105A92B
:1033D0000819FFF76DFD484601F0CCF800202FE7F3
:1033E000F800002070B588B0064601A801F084FA04
:1033F000BDF804000021C90341EA5045C403444814
:10340000007A00F0030056F8200005904048007A4A
:1034100000F0040010B10598404205903C48007A45
:10342000C0F3C10056F8200006903948007A00F039
:10343000200010B10698404206903548007AC0F34B
:10344000811056F8200007903148008900F4807000
:1034500010B10798404207900598C117A0FB0423BC
:1034600001FB043100FB0510810041EA92700590D8
:103470000698C117A0FB042301FB043100FB0510D3
:10348000810041EA927006900798C117A0FB0423BF
:1034900001FB043100FB0510810041EA92700790A6
:1034A0000598000E8DF808000598000C8DF80900AD
:1034B0000598000A8DF80A000598C0B28DF80B0037
:1034C0000698000E8DF80C000698000C8DF80D0083
:1034D0000698000A8DF80E000698C0B28DF80F000D
:1034E0000798000E8DF810000798000C8DF8110059
:1034F0000798000A8DF812000798C0B28DF81300E3
:1035000002AA0C214FF4257002F0FAF808B070BD41
:10351000F800002030B585B0044616A207CA02ABF9
:1035200007C3C82C03DD4FF0FF3005B030BDC82005
:1035300090FBF4F0401E85B2280A8DF80000E8B236
:103540008DF801006A46022140F2162002F0D8F8F8
:1035500010B14FF0FF30E8E702AA0C2140F6C1207D
:1035600002F0CEF810B14FF0FF30DEE7044884815E
:103570000020DAE7FEF2ABC4AAF1DFDFBBAFDFDF8A
:10358000F80000201FB504464848007A00F0030008
:1035900054F8200001904548007A00F0040010B172
:1035A0000198404201904148007AC0F3C10054F8AC
:1035B000200002903D48007A00F0200010B10298EF
:1035C000404202903948007AC0F3811054F820003C
:1035D00003903648008900F4807010B1039840428F
:1035E00003903349019880FB0101800F40EA81007C
:1035F00001902F49029880FB0110820042EA9170ED
:1036000002902B49039880FB0110820042EA9170DE
:1036100003900198000E8DF800000198000C8DF8C1
:1036200001000198000A8DF802000198C0B28DF8DF
:1036300003006A4604214FF4747002F061F818B177
:103640004FF0FF3004B010BD0298000E8DF800005E
:103650000298000C8DF801000298000A8DF8020013
:103660000298C0B28DF803006A4604214FF47570C9
:1036700002F046F810B14FF0FF30E3E70398000E78
:103680008DF800000398000C8DF801000398000AE3
:103690008DF802000398C0B28DF803006A46042139
:1036A0004FF4767002F02CF8CCE70000F800002010
:1036B00009E3CA0210B586B0044647A0006803902B
:1036C00046A00068029046A00068019045A00068EE
:1036D000009004F0030003A9085C8DF8140003A80F
:1036E000C4F3C101405C8DF8150003A8C4F3811137
:1036F000405C8DF8160004F0030002A9085C8DF808
:10370000100002A8C4F3C101405C8DF8110002A8AA
:10371000C4F38111405C8DF8120005AA032140F228
:10372000264001F0EDFF18B14FF0FF3006B010BD9C
:1037300004AA032140F22A4001F0E2FF10B14FF049
:10374000FF30F3E7019805900098049004F004001E
:1037500058B19DF8140040F001008DF814009DF858
:10376000100040F001008DF8100004F0200058B166
:103770009DF8150040F001008DF815009DF811002E
:1037800040F001008DF8110004F4807058B19DF8EC
:10379000160040F001008DF816009DF8120040F070
:1037A00001008DF8120005AA03214FF4886001F092
:1037B000A7FF10B14FF0FF30B8E704AA032140F291
:1037C000314001F09DFF10B14FF0FF30AEE70648E9
:1037D00004810020AAE700004CCD6C000CC92C002D
:1037E0003656760026466600F8000020F8B50546F5
:1037F0000E464FF47A7095FBF0F000FB06F4200EB5
:103800008DF80000200C8DF80100200A8DF80200D0
:10381000E0B28DF803006A4604214FF4AE7001F067
:103820006FFFF8BD38B50446052094FBF0F084B274
:1038300020128DF80000E0B28DF801006A460221E6
:103840004FF4AD7001F05CFF38BD38B5044605207B
:1038500094FBF0F084B220128DF80000E0B28DF8F5
:1038600001006A4602214FF4AC7001F049FF38BDF7
:1038700038B504460020009004F0010020B19DF806
:10388000000040F03000009004F0020020B19DF8EC
:10389000000040F00C00009004F0040020B19DF8FE
:1038A000000040F0030000906A4601214FF4A4702C
:1038B00001F026FF38BD38B50446012C01DA012499
:1038C00002E0042C00DD0424601EC0B200906A46B1
:1038D000012140F24F1001F013FF38BD2DE9FC47E4
:1038E00006460F4606F0070010B1B7F5C86F03DDB6
:1038F0004FF0FF30BDE8FC87384602F0F1FF81460B
:10390000594902F0A3FE8046684600F0CFFF9DF8BB
:103910000000022806D0042816D0082826D0102837
:1039200048D135E04FF08D41404603F021F8814603
:1039300002F09EFF84B24D49404603F019F88146DB
:1039400002F096FF85B238E04FF08C41404603F01C
:103950000FF8814602F08CFF84B24549404603F0DF
:1039600007F8814602F084FF85B226E04FF08B41D4
:10397000404602F0FDFF814602F07AFF84B23D49E5
:10398000404602F0F5FF814602F072FF85B214E076
:103990004FF08A41404602F0EBFF814602F068FF9B
:1039A00084B23549404602F0E3FF814602F060FFF1
:1039B00085B202E04FF0FF309CE700BF20128DF887
:1039C0000400E0B28DF8050028128DF80600E8B278
:1039D0008DF8070006F00100A0B101AA02214FF402
:1039E000EA7001F08DFE10B14FF0FF3082E70DF16B
:1039F000060202214FF4927001F082FE10B14FF0E6
:103A0000FF3077E706F00200A0B101AA02214FF4CF
:103A1000EC7001F075FE10B14FF0FF306AE70DF168
:103A2000060202214FF4947001F06AFE10B14FF0CB
:103A3000FF305FE706F00400A0B101AA02214FF4B5
:103A4000EE7001F05DFE10B14FF0FF3052E70DF166
:103A5000060202214FF4967001F052FE10B14FF0B1
:103A6000FF3047E7002045E700004843000040469C
:103A70000000C045000040450000C04438B5044681
:103A8000052094FBF0F085B228128DF80000E8B212
:103A90008DF801006A4602214FF4EF7001F030FE0C
:103AA00038BD38B50446052094FBF0F085B22812E5
:103AB0008DF80000E8B28DF801006A4602214FF44B
:103AC000ED7001F01DFE38BD70B504460D4600BF17
:103AD00040210548FEF7C8FD0028F9D0E1B20248B0
:103AE000FEF7CFFD204670BD003801407CB505468D
:103AF00028494968087801AB04220D21FDF734FC00
:103B000008B107207CBD9DF80700C0F301109DF8A7
:103B1000041001F0E00140EAE1008DF800009DF89A
:103B20000700C0F381009DF8051001F0E00140EAB4
:103B3000E1008DF801009DF8070000F003009DF8FA
:103B4000061001F0E00140EAE1008DF802000024D7
:103B50001CE01DF8040018B9002045F8240013E00B
:103B60000D4845F8240006E055F824000B4902F002
:103B7000FFFE45F824001DF80400401EC0B20DF8F9
:103B800004000028F0D100BF601CC4B2032CE0DBAD
:103B90000020B7E74C0000207B14AE3E1D5A843F46
:103BA0002DE9F04F87B005460C46914601208DF86F
:103BB000100000208DF81100FE4A1268917CFD4A29
:103BC0005268107804AB0222FDF708FC20B14FF0D8
:103BD000FF3007B0BDE8F08FC820FDF701F80020E6
:103BE0008DF81000F34A1268D17BF24A52681078BF
:103BF00004AB0122FDF7F2FB10B14FF0FF30E8E714
:103C0000EC4A12685179EB4A5268107804AB0122F1
:103C1000FDF7E4FB10B14FF0FF30DAE7E54A126838
:103C2000917CE44A5268107804AB0122FDF7D6FB80
:103C300010B14FF0FF30CCE7DE4A1268D17DDD4A8B
:103C40005268107804AB0122FDF7C8FB10B14FF0A9
:103C5000FF30BEE7D74A12681179D64A5268107809
:103C600004AB0122FDF7BAFB10B14FF0FF30B0E713
:103C70000C208DF81000CF4A12681179CD4A526895
:103C8000107804AB0122FDF7A9FB10B14FF0FF3013
:103C90009FE70F20FCF7A4FFC648806A407A8DF8A2
:103CA0001000C44A12689178C24A5268107804AB76
:103CB0000122FDF793FB10B14FF0FF3089E7BD48BB
:103CC000806A007A8DF81000BA4A12685178B94AB1
:103CD0005268107804AB0122FDF780FB10B14FF061
:103CE000FF3076E7B9F1000F07D0B248806A807ADA
:103CF00040F0E0008DF8100004E0AE48806A807A61
:103D00008DF81000AB4A12689179AA4A526810786F
:103D100004AB0122FDF762FB10B14FF0FF3058E712
:103D2000B9F1000F07D0A348806AC07A40F0E000E4
:103D30008DF8100003E0A048C07A8DF810009D4A6D
:103D40001268D1799B4A5268107804AB0122FDF7C2
:103D500045FB10B14FF0FF303BE7B9F1000F02D047
:103D6000C820FCF73DFF40208DF81000914A1268F2
:103D70001179904A5268107804AB0122FDF72EFBAE
:103D800010B14FF0FF3024E778208DF81000894AF9
:103D900012685179874A5268107804AB0122FDF706
:103DA0001DFB10B14FF0FF3013E783498889FCF702
:103DB00017FF00208DF810007E4A126851797D4A65
:103DC0005268107804AB0122FDF708FB10B14FF0E8
:103DD000FF30FEE6774A1268917A764A5268107888
:103DE00004AB0222FDF7C0FA10B14FF0FF30F0E64D
:103DF0009DF811009DF8101040EA012B0C209BFB50
:103E0000F0F0C6B20020A86068602860A060606022
:103E10002060824665E0674A1268D17A654A526836
:103E2000107804AB0C22FDF79FFA10B14FF0FF3071
:103E3000CFE69DF811009DF8101040EA012000B275
:103E4000ADF808009DF813009DF8121040EA01201B
:103E500000B2ADF80A009DF815009DF8141040EA74
:103E6000012000B2ADF80C00BDF90810206808442C
:103E70002060BDF90A10606808446060BDF90C104C
:103E8000A0680844A0609DF817009DF8161040EA4D
:103E9000012000B2ADF800009DF819009DF818103F
:103EA00040EA012000B2ADF802009DF81B009DF829
:103EB0001A1040EA012000B2ADF80400BDF900106C
:103EC000286808442860BDF90210686808446860E2
:103ED000BDF90410A8680844A8600AF1010000F0C8
:103EE000FF0AB24597DB3448D0F800C02868C117F4
:103EF000090441EA10410704624600233846FCF7F2
:103F000068F932460023CDE90201FCF762F9286026
:103F10002948D0F800C06868C117090441EA104177
:103F20000704624600233846FCF753F93246002363
:103F3000CDE90201FCF74DF968601F48D0F800C0D8
:103F4000A868C117090441EA10410704624600232A
:103F50003846FCF73EF932460023CDE90201FCF772
:103F600038F9A8601448D0F804C02168C8170004C4
:103F700040EA11480F046246002338464146FCF7E8
:103F800028F932460023CDE90201FCF722F920602E
:103F90000948D0F804C06068C117090441EA10411B
:103FA0000704624600233846FCF713F93246002323
:103FB00004E000004C000020706D0008CDE9020113
:103FC000FCF707F960601148D0F804C0A068C11779
:103FD000090441EA10410704624600233846FCF711
:103FE000F8F832460023CDE90201FCF7F2F8A060B0
:103FF000A068002804DDA068A0F58030A06003E080
:10400000A06800F58030A0600020E2E5706D000837
:104010002DE9FC5F0746884600263F494968087835
:1040200001AB03220D21FDF79FF910B10720BDE878
:10403000FC9F9DF8040000F01F008DF804009DF81F
:10404000050000F01F008DF805009DF8060000F047
:104050001F008DF80600002459E057F8240058F896
:104060002410A0EB010BBBF1000F01DB594601E06E
:10407000CBF10001084602F01BFC4FF08F4100908D
:1040800002F0E4FA824601A8005D78B3234908688B
:1040900002F026FC83465946214802F0D7FA8146B1
:1040A00004E02049484602F063FC814601A8005D17
:1040B000401EC0B201A908550028F2D14946504619
:1040C00002F0C4FA83464FF07E5102F04FFD0546E0
:1040D00000BF25F00040834610488169584602F031
:1040E00013FD13D20120A04006430FE0FFE70B4869
:1040F0000169504602F008FC05D308484169504662
:1041000002F002FD02D20120A0400643641C032CF1
:10411000A3DB30468BE700004C000020706D0008E8
:1041200000B04C4554E3853F10B50446204600F0EE
:104130000FF80346E01C00F00BF843EAC00083B21E
:10414000A01D00F005F843EA801083B2184610BDA8
:10415000014691F90020002A01DD00201EE091F9BE
:104160000020002A01DA042018E091F90120002A39
:1041700001DD012012E091F90120002A01DA052079
:104180000CE091F90220002A01DD022006E091F9FD
:104190000220002A01DA062000E007207047000014
:1041A000FCF7B0FED44AD549D54800F01DFAD549F0
:1041B000D248006802F0A8FC05D3D349CF48006874
:1041C00002F0A2FB15D2FDF7EDFA11E04FF4004129
:1041D000CE48FCF770FE4FF47A70FCF701FD4FF407
:1041E0000041CA48FCF765FE4FF47A70FCF7F8FC12
:1041F000ECE7FDF70BFBFDF72BFC0120FCF7F0FCD7
:1042000078E1FCF75BFEC24908600846006802F0EE
:1042100083F90446BF4AC04B01F068FE10D8FDF791
:10422000C1FA4FF40041B948FCF745FE00210846A9
:10423000FDF734FA00210120FDF730FA00BFFEE758
:10424000B648FDF733FCF8B9B4488088012810D18E
:10425000FDF784FC0120FCF7C3FCFCF70BFFB04921
:104260000860AB48006848600846FDF7AFFCFDF702
:10427000EFFB0020AB490880AB4908604FF40041D8
:10428000A248FCF716FE0AE0A6480088401C00B2CF
:10429000A4490880A4480068401CA3490860A148BC
:1042A000B0F90000C8281BDB00209E4908804FF4AD
:1042B000FF609A49088048809C48007840B94FF4D4
:1042C00000419248FCF7F7FD01209849087007E08B
:1042D0004FF400418D48FCF7ECFD00209349087035
:1042E000914800689249884210DBFDF75BFA4FF471
:1042F00000418648FCF7DFFD00210846FDF7CEF9B6
:1043000000210120FDF7CAF900BFFEE783480088BD
:1043100040F2E47188420EDA8648008891FBF0F0A2
:104320007E49098840F2E472511A91FBF0F000B224
:104330008149088019E07948008840F60C018842DC
:1043400010DD7C48008840F2F47191FBF0F0734975
:10435000098840F60C02511A91FBF0F000B2764940
:10436000088002E00020744908806C48408840F2D0
:10437000E47188421ADA7148008802F0B1FA0746FF
:1043800039466F4802F062F9054664494988A1F24E
:10439000E47002F08DFA0646294602F057F9044609
:1043A00002F04AFA00B26749088023E05B4840887F
:1043B00040F60C0188421ADD6048008802F090FA4D
:1043C00007463946604802F041F905465349498895
:1043D000A1F60C0002F06CFA0646294602F036F906
:1043E000044602F029FA00B25649088002E0002093
:1043F00054490880404A4149414800F0F5F8534A81
:1044000053495448FCF70EFE0220FDF747FA524983
:1044100008800320FDF742FA504908805049374888
:10442000006802F071FB05D34E493448006802F081
:104430006BFA18D200210846FDF730F9002101205F
:10444000FDF72CF948480088B0F5487F05DBFDF7FB
:10445000A9F900204449088049E043480088401CED
:104460004149088043E03B48B0F900102348006808
:10447000FEF7F4FC0446214802683848B0F9001001
:104480003548B0F9000001F033FA04442F48B0F980
:10449000000001F00FFA201A00B2344908802D48BC
:1044A000B0F9001015480068FEF7D8FC0446134820
:1044B00002682A48B0F900102748B0F9000001F05E
:1044C00017FA04442148B0F9000001F0F3F9204440
:1044D00000B2274908802548B0F900100020FDF7F8
:1044E000DDF82348B0F900100120FDF7D7F80120CE
:1044F000FCF776FB85E60000140000201000002089
:104500000C0000200000F0410000F0C10008014054
:10451000E00000209A999999999909402A00002071
:1045200030000020040000200800002000000020CF
:10453000E093040026000020CA000020280000208C
:104540000080FC44C80000200080FE441C000020C5
:104550001A000020180000201E000020200000206B
:104560000000A0420000A0C20200002022000020A3
:10457000240000207047000070B50446002624F097
:104580000104184890F8240008B1002070BD1548B7
:10459000807A10B94FF0FF30F8E71248057C807A36
:1045A0002040104908740846007CA04202D04FF019
:1045B000FF3600E0002614B90A48007D18B101203A
:1045C00001F00AF902E0002001F006F93CB100F028
:1045D00083FC20B1034805744FF0FF30D6E7304626
:1045E000D4E700004C0000202DE9F04F99B00446BC
:1045F0000D4616464FF07E574FF000084FF0000969
:104600004FF0000A12A813A918AB0EAACDE90010AA
:1046100014A916A8FEF700FE18B1012019B0BDE8D4
:10462000F08FBDF84C0000F4807000287ED00E980A
:1046300002F03EF983464FF09D4102F007F807462D
:104640000F9802F035F983464FF09D4101F0FEFFCF
:104650008046109802F02CF983464FF09D4101F0FE
:10466000F5FF8146119802F023F983464FF09D41F2
:1046700001F0ECFF824639464FF0804002F078F9B5
:104680004946059002F074F9414607904FF04040CA
:1046900002F06EF95146059002F06AF9069007990A
:1046A00001F066FF834601F037FFCDE90801FEF710
:1046B000CDF84FF06632544BCDE90A0101F052FCBF
:1046C000CDE90C0101F0B4F9206049464FF080407B
:1046D00002F04EF94946029002F04AF94146049030
:1046E0004FF0404002F044F94146029002F040F998
:1046F0000390049902F03AFA83464FF07E5101F09C
:1047000037FF059001F008FFCDE9080139464FF069
:10471000804002F02DF94146039002F029F9494604
:1047200004904FF0804002F023F900E068E0514629
:10473000039002F01DF98346049901F019FF0590DA
:1047400001F0EAFECDE90601DDE90823FEF7C6FA2D
:104750004FF066322C4BCDE90A0101F003FCCDE9A4
:104760000C0101F065F928605146504602F000F94D
:1047700049460490484602F0FBF841460390404603
:1047800002F0F6F839460190384602F0F1F8009050
:10479000019901F0EDFE0290039902F0E7F98346DA
:1047A000049902F0E3F9059001F0B6FECDE90801A5
:1047B0005146384602F0DCF849460490404602F083
:1047C000D7F80390049901F0D3FE4FF08041059093
:1047D00002F0CEF8834601F09FFECDE90601DDE947
:1047E0000823FEF77BFA4FF06632074BCDE90A014A
:1047F00001F0B8FBCDE90C0101F01AF9306001E0DD
:1048000002200BE7002009E766A64C4070B50024A3
:10481000FCF784FC00F0FCF8002840D1782000F080
:1048200007FFC4B20CB1012070BD7820FFF7A4FED1
:10483000C4B20CB10220F7E7642000F0ABFEC4B2B2
:104840000CB10320F0E7FEF7DBFCC4B20CB104208E
:10485000EAE71548FFF768FC0546FEF72BFFC4B2F0
:104860000CB10520E0E740F27310FEF771FBC4B213
:104870000CB10620D8E76420FEF74CFEC4B20CB1A0
:104880000720D1E700F07CFF04460CB10820CBE7FD
:10489000012000F07BFDC4B21CB10920C4E70A204E
:1048A000C2E70020C0E70000780000200146114860
:1048B000407A30B1012807D0022808D003280CD153
:1048C00008E0022008700BE00420087008E00820CF
:1048D000087005E01020087002E04FF0FF307047CC
:1048E00000BF0448C07C18B108784006000E08706C
:1048F0000020F4E74C00002001461348407A30B114
:10490000012808D002280AD0032810D10BE04FF468
:10491000804008800EE041F69C7008800AE04FF469
:104920008050088006E04FF40060088002E04FF0FD
:10493000FF30704700BF0448C07C10B108884010A9
:1049400008800020F5E700004C00002001460248E6
:10495000007C0870002070474C00002001460F4882
:10496000007A30B1012807D0022809D003280FD1DE
:104970000AE0FA2008800EE04FF4FA7008800AE09E
:104980004FF47A70088006E04FF4FA60088002E085
:104990000020088000BF00BF002070474C000020AE
:1049A00001461248C07A082817D2DFE800F0170441
:1049B000070A0D101318BC20088013E0622008803D
:1049C00010E02A2008800DE0142008800AE00A2068
:1049D000088007E00520088004E000BF00BF002039
:1049E000088000BF00BF0020704700004C0000207E
:1049F0000146064890F8240010B14FF0FF30704790
:104A00000248C08908800020F9E700004C0000201F
:104A10001CB580208DF80000654A1268917C644ABC
:104A2000526810786B460122FCF7D8FC10B14FF0A9
:104A3000FF301CBD6420FCF7D3F800208DF8000087
:104A40005B4A1268917C5A4A526810786B46012280
:104A5000FCF7C4FC10B14FF0FF30EAE7544A12688B
:104A6000917D534A526810786B460622FCF77CFC15
:104A700010B14FF0FF30DCE79DF80500C007400F94
:104A80009DF8031001F0010140EA41009DF801107A
:104A900001F0010140EA010494B1012C03D101218C
:104AA0004348C17431E0022C03D100214048C17455
:104AB0002BE021463FA0FBF7B1FB4FF0FF30B8E7FA
:104AC0003B4A1268D1783A4A526810786B46012204
:104AD000FCF74AFC10B14FF0FF30AAE79DF8000048
:104AE00000F00F042CB93D48FBF798FB4FF0FF3066
:104AF0009FE7042C06D13AA0FBF790FB01212C483C
:104B0000C17402E000212A48C174FF212848817243
:104B1000FF2027490872FF2125484172C1724FF6D4
:104B2000FF71C181FF21017481740121017380F83B
:104B30002210002180F823104175017516300160A4
:104B400041608160163880F8241080F82510C184F7
:104B50004FF4FA6000F062FC10B14FF0FF3068E7EC
:104B6000022000F02BFB10B14FF0FF3061E72A204C
:104B700000F0CEFC10B14FF0FF305AE7322000F0C9
:104B800009FD10B14FF0FF3053E70020FFF7F4FCB0
:104B900010B14FF0FF304CE7002000F051FB10B196
:104BA0004FF0FF3045E7002000F042FD002040E7D5
:104BB0004C000020556E737570706F7274656420C0
:104BC000736F6674776172652070726F6475637459
:104BD000207265762025642E0A000000907A000875
:104BE00048616C662073656E73697469766974795F
:104BF000207061727420666F756E642E0A0000006A
:104C00002DE9F04385B005460E4690469946294861
:104C100090F8250020B14FF0FF3005B0BDE8F083DB
:104C200016B94FF0FF30F8E7002423E0281B1028C6
:104C300001DD102000E0281B87B2321939462046DA
:104C400000F05EFD10B14FF0FF30E6E701AA3946F3
:104C5000204600F001F910B14FF0FF30DDE73019C8
:104C60003A4601A9FBF7BEFB10B16FF00100D4E793
:104C7000E01984B2AC42D9DB4FEA28208DF800005D
:104C800008F0FF008DF801000A4A1268917E094A77
:104C9000526810786B460222FCF7A0FB10B14FF06F
:104CA000FF30BAE70121034880F82510A0F82690CC
:104CB0000020B2E74C00002038B50446282C02DD65
:104CC0004FF0FF3038BDDCB9002000F0EBFB0020D6
:104CD0008DF8000007208DF801002E4A1268917CA3
:104CE0002C4A526810786B460222FCF777FB10B111
:104CF0004FF0FF30E6E70021264801750020E1E78C
:104D0000012000F0CFFB20208DF80000012C06D1FF
:104D100000208DF80100052000F0FAFB17E0052CBB
:104D200006DC01208DF80100052000F0F1FB0EE00B
:104D3000142C06DC02208DF801000A2000F0E8FBAC
:104D400005E003208DF80100142000F0E1FB9DF840
:104D50000100072101EB8010C0B28DF801000D4A5F
:104D60001268917C0B4A526810786B460222FCF75D
:104D700035FB10B14FF0FF30A4E7082105488172E0
:104D800000210173012101750020FFF7F5FB0020D0
:104D900098E700004C000020F8B504460F46164680
:104DA0002C4890F8240010B94FF0FF30F8BD294886
:104DB000807A10B94FF0FF30F8E7264A1268917AEE
:104DC000244A526810786B460222FCF7CDFA10B1E3
:104DD0004FF0FF30EAE79DF801009DF8001040EA2F
:104DE0000125A54203DA00203070401EDEE7194895
:104DF00040684088B5EB600F17DD164A1268517C99
:104E0000144A526810786B460122FCF7ADFA10B1D3
:104E10004FF0FF30CAE79DF8000000F0100020B10D
:104E200000F05AF86FF00100C0E7E2B2094B1B68CE
:104E3000D97A084B5B6818783B46FCF795FA10B1B5
:104E40004FF0FF30B2E795FBF4F0401E30700020C9
:104E5000ACE700004C000020F8B504460D461646AD
:104E600016B94FF0FF30F8BD1A48807A10B94FF0EC
:104E7000FF30F8E720128DF80000E0B28DF8010055
:104E80009DF801002844134949684989884202DD98
:104E90004FF0FF30E7E70F4A1268117E0D4A526863
:104EA00010786B460222FCF799FA10B14FF0FF30F0
:104EB000D9E7EAB2074B1B68597D064B5B68187847
:104EC0003346FCF751FA10B14FF0FF30CBE700202A
:104ED000C9E700004C00002008B57048807A10B97E
:104EE0004FF0FF3008BD002000906C4A1268D17B63
:104EF0006A4A526810786B460122FCF76FFA10B1CB
:104F00004FF0FF30EEE7654A12685179634A526804
:104F100010786B460122FCF761FA10B14FF0FF30B8
:104F2000E0E75E4A126811795C4A526810786B4675
:104F30000122FCF753FA10B14FF0FF30D2E7574887
:104F400090F82400002853D00C200090534A126897
:104F50001179524A526810786B460122FCF73EFAEA
:104F600010B14FF0FF30BDE73220FBF739FEC02013
:104F700000904A48807A00F0010020B19DF80000BE
:104F800040F020000090454A12681179434A526867
:104F900010786B460122FCF721FA10B14FF0FF3078
:104FA000A0E73E48407C10B10220009001E00020C4
:104FB00000903A4A1268D17B384A526810786B46A2
:104FC0000122FCF70BFA10B14FF0FF308AE7002006
:104FD0000090324A12685179304A526810786B4614
:104FE0000122FCF7FBF9002855D04FF0FF3079E79C
:104FF00004200090294A12681179284A52681078D2
:105000006B460122FCF7EAF910B14FF0FF3069E777
:105010002248807C20B92148807A00F0010010B934
:105020004020009001E0602000901C4A1268117935
:105030001A4A526810786B460122FCF7CFF910B17A
:105040004FF0FF304EE73220FBF7CAFD1348407C9B
:1050500010B10120009001E0002000900F4A12687A
:10506000D17B0E4A526810786B460122FCF7B6F9E4
:1050700010B14FF0FF3035E7084A12685179074AFE
:1050800052681078054B10330122FCF7A7F910B1D4
:105090004FF0FF3026E7002024E700004C000020FE
:1050A0002DE9F04F8DB083460F4602200C90424808
:1050B00090F8240020B1002000F068F9012600E0FB
:1050C000002603A8FFF74AFC05A8FFF7EFFB01A89D
:1050D000FFF766FC02A8FFF78BFC374890F80AA0A0
:1050E00004A8FFF733FC002407E0002239465846A5
:1050F000FEF756FD00B902E0641C022CF5DB00BF90
:10510000022C01D1002528E0002407E0012206A995
:1051100009A8FEF745FD00B902E0641C022CF5DB8E
:1051200000BF022C01D1002517E006A93846FDF783
:1051300037FB00F0FF0809A95846FEF769FF00F0A9
:10514000FF090025B9F1000F01D145F00105B8F1C3
:10515000000F01D145F0020500BFFF20164908727B
:10516000FF2115484172C1724FF6FF71C181FF21C5
:105170008172017401210173BDF80C0000F04EF939
:105180009DF8140000F01AF8BDF8040000F0C0F912
:10519000BDF8080000F0FEF9504600F049FA9DF80D
:1051A0001000FFF7E9F916B1012000F0EFF82846EA
:1051B0000DB0BDE8F08F00004C00002038B504466B
:1051C0001E48807A10B94FF0FF3038BD022C06D04F
:1051D000042C07D0082C08D0102C0CD108E000209B
:1051E00000900BE00820009008E01020009005E0FF
:1051F0001820009002E04FF0FF30E6E700BF0F48B4
:10520000407A9DF80010B0EBE10F01D10020DCE7FF
:105210000A4A1268D179094A526810786B4601220D
:10522000FCF7DCF810B14FF0FF30CEE79DF800003E
:10523000C110024841720020C7E700004C00002066
:1052400038B504465048807CA04201D1002038BDCA
:10525000002C46D04C4A126811794B4A526810789B
:105260006B460122FCF780F810B14FF0FF30EEE7FB
:105270009DF8000020F020000090434A1268117948
:10528000414A526810786B460122FCF7A7F810B12A
:105290004FF0FF30DBE70320FBF7A2FC0220009079
:1052A000394890F8220020B19DF8000040F08000BD
:1052B0000090354890F8230020B19DF8000040F0A0
:1052C00030000090304A1268117D2F4A52681078E1
:1052D0006B460122FCF782F8002851D04FF0FF30D6
:1052E000B5E7294A12681179274A526810786B4647
:1052F0000122FCF739F810B14FF0FF30A7E7224840
:10530000807A00F0010028B19DF8000040F02000F4
:10531000009004E09DF8000020F0200000901A4A60
:1053200012681179184A526810786B460122FCF70E
:1053300055F810B14FF0FF3089E70320FBF750FC20
:10534000114890F8220010B18020009001E0002068
:1053500000900D4890F8230020B19DF8000040F027
:1053600030000090084A1268117D074A5268107890
:105370006B460122FCF732F810B14FF0FF3066E7C0
:1053800001488474002062E74C00002038B50446D0
:10539000214890F82400A04201D1002038BD24B358
:1053A0001D4890F8250010B94FF0FF30F6E70020B7
:1053B00000F012FA0020FFF743FF1749C88C00F0F5
:1053C000E9F8002000901449496808786B460122EA
:1053D0002321FCF703F801210F4880F82410012055
:1053E00000F0FAF9FFF778FD13E0002000F0F4F97F
:1053F0000948007C00900849496808786B460122FA
:105400002321FBF7EBFF0021034880F82410FFF76E
:1054100063FD0020C2E700004C00002038B50446C0
:105420001F48807A10B94FF0FF3038BDFA2C09D0F0
:10543000B4F5FA7F09D0B4F57A7F09D0B4F5FA6FE4
:105440000CD108E0002000900BE00820009008E05C
:105450001020009005E01820009002E04FF0FF308F
:10546000E3E700BF0E48007A9DF80010B0EBE10FB3
:1054700001D10020D9E70A4A12689179084A526896
:1054800010786B460122FBF7A9FF10B14FF0FF30F7
:10549000CBE79DF80000C010014908720020C4E766
:1054A0004C00002038B50446184890F82300A0426C
:1054B00001D1002038BD14B13020009001E000205F
:1054C00000901248807C20B19DF8000040F002005E
:1054D00000900E4890F8220020B19DF8000040F0A6
:1054E00080000090094A1268117D084A52681078BD
:1054F0006B460122FBF772FF10B14FF0FF30D9E786
:10550000024880F823400020D4E700004C0000202F
:1055100038B504461E48807A10B94FF0FF3038BDC8
:10552000BC2C02DB0120009015E0622C02DB022083
:10553000009010E02A2C02DB032000900BE0142CDA
:1055400002DB0420009006E00A2C02DB052000901C
:1055500001E0062000900E48C07A9DF800108842B5
:1055600001D10020DBE70A4A12689178084A5268A4
:1055700010786B460122FBF731FF10B14FF0FF307E
:10558000CDE79DF800100248C1720020C7E7000077
:105590004C00002038B504462448807A10B94FF0FA
:1055A000FF3038BD214890F8240010B14FF0FF3093
:1055B000F7E71E48007D50B134B1282C04DCE0B27E
:1055C000FFF77AFB0020ECE70020FFF775FB042CC7
:1055D00001DA042404E0B4F57A7F01DD4FF47A7433
:1055E0004FF47A7090FBF4F0401EC0B200900F4A66
:1055F000126851780D4A526810786B460122FBF709
:10560000EDFE10B14FF0FF30CBE79DF80000401CDD
:105610004FF47A7191FBF0F081B20448C1810146E8
:10562000C9894810FFF774FF0020BAE74C0000203A
:1056300038B5044604F0700010B10120009005E078
:1056400014B10020009001E0402000902B4A126825
:10565000917C2A4A526810786B460122FBF7BEFE05
:1056600020B1002125488172481E38BD9DF80000F8
:1056700020F04001214801730020009004F0400018
:1056800020B99DF8000040F00400009004F02000D4
:1056900020B99DF8000040F00200009004F01000D6
:1056A00020B99DF8000040F00100009004F00800CF
:1056B00020B99DF8000040F0380000900F4A1268B1
:1056C000D17C0E4A526810786B460122FBF786FEA9
:1056D00020B1002109488172481EC6E724B1082C78
:1056E00002D00020FFF7DEFE04488472002101751D
:1056F0003220FBF775FA0020B7E700004C000020CD
:10570000F8B504460D46164616B94FF0FF30F8BD01
:105710001A48807A10B94FF0FF30F8E720128DF860
:105720000000E0B28DF801009DF801002844134903
:1057300049684989884202DD4FF0FF30E7E70F4AA8
:105740001268117E0D4A526810786B460222FBF7F0
:1057500045FE10B14FF0FF30D9E7EAB2074B1B68A6
:10576000597D064B5B6818783346FBF737FE10B15E
:105770004FF0FF30CBE70020C9E700004C000020CD
:1057800010B586B0694603A8FFF78AFC0446032CCF
:1057900014D10B4803900B4804900B48059003A8C4
:1057A000FDF7F0FE09480090094801900948029071
:1057B0006846FDF717FE002006B010BD0120FBE78C
:1057C0001684D9FF13EB1A00664E020000006B022C
:1057D000004070FC008006F838B50446214890F877
:1057E0002400C0B114B10220009001E0002000901C
:1057F0001C4A1268D17B1B4A526810786B46012202
:10580000FBF7ECFD10B14FF0FF3038BD9DF80010F4
:105810001448417423E01348807A10B94FF0FF30E8
:10582000F3E724B10F48407C08B10020EDE714B144
:105830000120009001E0002000900A4A1268D17B0C
:10584000084A526810786B460122FBF7C7FD10B179
:105850004FF0FF30D9E79DF8001002484174002056
:10586000D3E700004C0000202DE9F04106460F462A
:1058700000F082FC041E0D4618BF0120284320F0D2
:105880000040C0F17F6000F1E040C00F0ED0301C3E
:1058900018BF0120384320F00040C0F17F6000F1C4
:1058A000E040C00F04BF0120FAF750FE2046294611
:1058B000BDE8F0812DE9F0410446204600F0F8FFF4
:1058C000064686F0004808480168404601F050F856
:1058D000074600F0B1FF05B204480088284405B22D
:1058E0002846BDE8F0810000C4000020C800002068
:1058F0002DE9FF4704468946924604EB0901084614
:1059000000F0D6FF3D4908603D48006800F004FE05
:1059100007464FF066323B4B00F024FB054600F093
:1059200087F8374908603548006800F0F5FD0546FE
:105930004FF03332344B00F015FB074688463048B1
:10594000006800F0E9FD3A464346CDE9000100F069
:10595000A1F8CDE9020100F06BF82949086008467A
:1059600001682A48006800F003FE284908602848BA
:10597000B0F9000000F09CFF054624480168284665
:1059800000F0F6FD2149086022492048006801F036
:10599000BBF802D21F481D4908601F491B48006818
:1059A00000F0B2FF02D21C48184908601B48016889
:1059B0001648006800F0DCFF0546194801681048E9
:1059C000006800F0D5FF0646294600F0D1FD1549D4
:1059D00008601549504600F097FF04D3134950461C
:1059E00001F092F802D20020084908600D480068D2
:1059F00000F022FF00B204B0BDE8F087D80000201C
:105A0000DC0000206666E63F3333D33FD000002041
:105A1000CA00002000401C4600401CC6C0000020F8
:105A2000BC000020D4000020000020C20000204262
:105A300021F00042A2F16052B2F5801F01F0004354
:105A400028BFD2F17F6C0BD95FEA001C43EAC20287
:105A500042EB507018BF704728BF20F0010070471C
:105A6000B2F5801FBCBF184670474FEA410C1CF5C9
:105A7000001F02D2084601F042B870B500F01CFBCE
:105A800000000089FFF7F6BF4FF00040A0F580004E
:105A90007047000010B591EA030F48BF83F0004340
:105AA00000F15884841A71EB030C05D2121943EBF0
:105AB0000C03001B61EB0C01DFF824E14FEA1154E9
:105AC000A4EB135C1EEA430F18BF9EEA445F73D039
:105AD00023EA0E03DCF1200E21EA045143F4801383
