:020000040800F2
:10000000480B002091010008990100089B0100089D
:100010009D0100089F010008A101000800000000E8
:10002000000000000000000000000000A301000824
:10003000A501000800000000A7010008B51D000888
:10004000AB010008AB010008AB010008AB010008E0
:10005000AB010008AB010008AB010008AB010008D0
:10006000AB010008AB010008AB010008AB010008C0
:10007000AB010008AB010008AB010008AB010008B0
:10008000AB010008AB010008AB010008AB010008A0
:10009000AB010008AB010008AB010008AD0C000883
:1000A000AB010008AB010008AB010008AB01000880
:1000B000AB010008AB0100086D200008AB0100088F
:1000C000AB010008AB010008AB010008AB01000860
:1000D000AB010008AB010008AB010008AB01000850
:1000E000AB010008AB010008AB01000800F002F80A
:1000F00000F03FF80AA090E8000C82448344AAF183
:100100000107DA4501D100F034F8AFF2090EBAE880
:100110000F0013F0010F18BFFB1A43F0010318473B
:100120003078000050780000103A24BF78C878C1B9
:10013000FAD8520724BF30C830C144BF04680C60ED
:10014000704700000023002400250026103A28BF35
:1001500078C1FBD8520728BF30C148BF0B60704739
:10016000642900F06780002070471FB51FBD10B5DF
:1001700010BD00F0CBFA1146FFF7F7FF04F042F88C
:1001800000F0E9FA03B4FFF7F2FF03BC02F039FB19
:100190000948804709480047FEE7FEE7FEE7FEE71B
:1001A000FEE7FEE7FEE7FEE7FEE7FEE70448054957
:1001B000054A064B70470000CD1D0008ED00000801
:1001C00048010020480B002048030020480300207D
:1001D000704710B54C1084EA530404D54042C1F175
:1001E000000138BF491E1B4204D55242C3F100032F
:1001F00038BF5B1E00F02EF914F0804F04D040424F
:10020000C1F1000138BF491E14F0004F04D0524222
:10021000C3F1000338BF5B1E10BD00000FB40449DA
:1002200010B503AA029800F0F1F910BC5DF814FBB8
:100230003C0000202DE9F041064600241068752995
:10024000314616A510D0AFF30080002802DA4042F4
:1002500013A507E031688A0701D512A502E0490716
:1002600004D511A5012401E0AFF3008000210A228A
:1002700006F1240709E0B0FBF2FCB0FBF2F302FB4D
:100280001C00303078541846491C0028F3D123460E
:100290002A463046BDE8F04100F05EB9000000009B
:1002A0002D0000002B000000200000002DE9F05F71
:1002B000894604464FF0000ADFF824B1FB44C0F839
:1002C00020A02046E168884700287DD0252806D058
:1002D000D4E901219047206A401C2062F1E7002503
:1002E0005F462046E16888472028064607DB312E16
:1002F00005D2B81910F8200C08B10543F1E7A8079A
:1003000001D525F00405C4F81CA00027C4F818A0E6
:100310002A2E09D0304602F06DFA38B304EB870874
:10032000303EC8F8186019E059F8041B204604EB69
:1003300087029161E1688847012F064618D1E0697C
:10034000002820DA25F020051DE0D8F8180000EB81
:10035000800006EB40003038C8F818002046E168FD
:100360008847064602F046FA0028EED1012F0AD04F
:100370002E2E08D12046E16888477F1C0646022FB2
:1003800045F02005C4DBA069002803DA404245F0AF
:100390000105A061E80701D025F01005A6B1A6F17E
:1003A0004100192802D8203645F400654A463146F6
:1003B000204625604D46FFF7D3FE60B1012807D0E7
:1003C000ED1D25F0070000E007E000F1080978E7DF
:1003D00005F1040975E730467AE7206ABDE8F09F29
:1003E0003E75000040EA010310B59B070FD1042AB7
:1003F0000DD310C808C9121F9C42F8D020BA19BAF0
:10040000884201D9012010BD4FF0FF3010BD1AB154
:10041000D30703D0521C07E0002010BD10F8013BA9
:1004200011F8014B1B1B07D110F8013B11F8014BD0
:100430001B1B01D1921EF1D1184610BD02F0FF0323
:1004400043EA032242EA024200F0F4B870477047E0
:100450007047704753EA020C00F069802DE9F04BB9
:100460004FF00006002B1FBFB3FA83F503FA05F423
:1004700024FA05F65E4012BF1643B2FA82F502FA7C
:1004800005F4C5F120051EBF22FA05FC44EA0C0460
:10049000203556EA044C4FEA144418BF641C4FF050
:1004A00000084FF00009904271EB030C39D300298A
:1004B00019BFB1FA81F701FA07F6B0FA80F700FA2E
:1004C00007F6C7F120071EBF20FA07FC46EA0C0614
:1004D0002037B6FBF4FCA7EB0507103F07F01F0B16
:1004E000CBF120060CFA0BFB2CFA06F644BFB34600
:1004F0000026202FA4BF5E464FF0000B5BEA060CDF
:1005000008BF4FF0010B19EB0B09ABFB027C48EB6A
:100510000608C01B06FB02CC0BFB03CC71EB0C01E5
:10052000C1E70B46024641464846BDE8F08B13B58D
:100530004FF000004FF00001AFF30080BDE81C4019
:10054000704710B500F096F8006810BD10B504466D
:1005500000F090F8046010BD2DE9F0470D46994673
:100560009246044600F124080168880604D5E06933
:1005700021F01001216000E00120A84201DD471BAD
:1005800000E00027A1697A1902EB0900081AA061AE
:100590002078C00602D42046AFF30080002608E091
:1005A000D4E901211AF806009047206A401C761C05
:1005B00020624E45F4DB2078C0060AD52046AFF312
:1005C000008006E0D4E9012130209047206A401CD9
:1005D0002062381EA7F10107F4DC07E0D4E901210D
:1005E00018F805009047206A401C2062281EA5F1DB
:1005F0000105F3DC2046AFF300802078000602D529
:100600000220BDE8F0870120FBE70000074B70B532
:100610000D467B4400F037F80446284600F046F8C3
:1006200010B14FF0FF3070BD204670BD173500008F
:100630004FF000020429C0F0128010F0030C00F00B
:100640003B80CCF1040CBCF1020F18BF00F8012B69
:10065000A8BF20F8022BA1EB0C0100F02DB85FEA37
:10066000C17C24BF00F8012B00F8012B48BF00F823
:10067000012B704700487047E800002001694A1CC0
:1006800002610878704700B58FB0CDE901310021D3
:10069000059105497944CDE9031011466846FFF7F5
:1006A00005FE0FB000BD0000E5FFFFFF007B00F07E
:1006B000800070474FF0000200B5134694469646FE
:1006C000203922BFA0E80C50A0E80C50B1F1200165
:1006D000BFF4F7AF090728BFA0E80C5048BF0CC013
:1006E0005DF804EB890028BF40F8042B08BF704771
:1006F00048BF20F8022B11F0804F18BF00F8012BE3
:100700007047000000487047E80000207546FFF77A
:10071000F9FFAE4605006946534620F007008546BE
:1007200018B020B5FFF742FDBDE820404FF00006AD
:100730004FF000074FF000084FF0000B21F00701C9
:10074000AC46ACE8C009ACE8C009ACE8C009ACE80C
:10075000C0098D46704710B50446AFF300802046AF
:10076000BDE81040FFF70EBD08B50121084600F0B6
:10077000FBFF01214FF4017001F016F81020ADF8D5
:10078000000000208DF803006946024800F0B4FA2A
:1007900008BD00000008014000B591B0334800F0EA
:1007A00053F9334806903348079000200890012001
:1007B000099000200A900B904FF480700C908000FC
:1007C0000D9020200E9000020F900020109006A99E
:1007D000264800F0DFF90121244800F029F9002023
:1007E00001908DF8080001208DF809004FF4602079
:1007F00003900020049001208DF8140001A91C48EA
:100800004C3800F063F84FF4404000F0A1FF05239E
:100810000122042116484C3800F080F801211448C8
:100820004C3800F034F8012111484C3800F024F81D
:100830000F484C3800F0CEF800BF0D484C3800F09F
:100840003BF80028F9D10A484C3800F0D3F800BF33
:1008500007484C3800F026F80028F9D10121044857
:100860004C3800F0BCF811B000BD00000800024098
:100870004C2401407600002021B1826842F0010240
:10088000826003E0826822F001028260704721B139
:10089000826842F48072826003E0826822F480728F
:1008A00082607047014600208A6802F004020AB1A3
:1008B000012000E000207047014600208A6802F015
:1008C00008020AB1012000E00020704730B502465E
:1008D0000020002350680F4C20400D790C6844EA3A
:1008E00005242043506090680B4C2040D1E902540D
:1008F0002C434D7944EA450420439060D06A20F4AB
:1009000070000C7C641EE4B2234340EA0350D062C2
:1009100030BD0000FFFEF0FFFDF7F1FFF0B504462B
:100920000D4600200021092D11DDE068A5F10A0621
:1009300006EB4607072606FA07F18843A5F10A06E3
:1009400006EB460603FA06F10843E0600CE0206976
:1009500005EB4507072606FA07F1884305EB450630
:1009600003FA06F108432061072A0FDA606B561E6E
:1009700006EB86071F2606FA07F18843561E06EB8C
:10098000860605FA06F10843606322E00D2A0FDAB5
:10099000206BD61F06EB86071F2606FA07F1884351
:1009A000D61F06EB860605FA06F10843206310E021
:1009B000E06AA2F10D0606EB86071F2606FA07F18C
:1009C0008843A2F10D0606EB860605FA06F10843F8
:1009D000E062F0BD816841F008018160704721B19B
:1009E000826842F4A002826003E0826822F4A002DE
:1009F00082607047816841F00401816070470000A7
:100A000008B54FF48050ADF8000010208DF80300B9
:100A100003208DF802006946044800F06DF94FF498
:100A20008051024800F03CFA08BD00000008014077
:100A300021B1026842F00102026004E002684FF650
:100A4000FE731A400260704701684FF6FE72114053
:100A500001600021016041608160C1604B498842B2
:100A600008D14A490839496841F00F01474A083A14
:100A700051608AE045491431884208D14349083918
:100A8000496841F0F001414A083A51607DE03F4930
:100A90002831884208D13D490839496841F47061DC
:100AA0003A4A083A516070E038493C31884208D1EE
:100AB00036490839496841F47041344A083A51606E
:100AC00063E032495031884208D1304908394968D9
:100AD00041F470212D4A083A516056E02B496431A7
:100AE000884208D129490839496841F47001274AE8
:100AF000083A516049E025497831884208D12349B4
:100B00000839496841F07061204A083A51603CE078
:100B10001F49884206D1011F096841F00F01021FD9
:100B2000116032E01A491431884208D11849091F6E
:100B3000096841F0F001164A121F116025E01449BE
:100B40002831884208D11249091F096841F47061AF
:100B50000F4A121F116018E00D493C31884208D13C
:100B60000B49091F096841F47041094A121F1160BD
:100B70000BE007495031884207D10549091F096830
:100B800041F47021024A121F1160704708000240B0
:100B90000804024010B50022026847F6F0739A4339
:100BA0000C6A8B6823430C6923434C6923438C698B
:100BB0002343CC6923434C6A23438C6A23431A435F
:100BC0000260CB6843600B6883604B68C36010BDF4
:100BD00010B500F059FC00F0A3FC00F005FC10BDBE
:100BE00031B5164800684FF47A71B0FBF1F4204635
:100BF00001F0B6F808B100BFFEE74FF0E020006951
:100C000020F001004FF0E02108610D4900980860D4
:100C10004FF0E020006940F001004FF0E021086152
:100C200000BF074800680028FBD14FF0E0200069B2
:100C300020F001004FF0E021086138BDC400002021
:100C40003800002031B5164800681649B0FBF1F4B1
:100C5000204601F085F808B100BFFEE74FF0E02024
:100C6000006920F001004FF0E02108610E49009872
:100C700008604FF0E020006940F001004FF0E021F3
:100C8000086100BF084800680028FBD14FF0E02051
:100C9000006920F001004FF0E021086138BD00003C
:100CA000C400002040420F003800002010B54FF46F
:100CB000807000F00DF818B14FF4807000F002F869
:100CC00010BD000001490860704700001404014095
:100CD000014600200022074B1B6803EA0102054B76
:100CE00014331B680B4013B10AB1012000E000204F
:100CF00070470000000401402DE9F0410246002544
:100D00000026002000230024002791F803C00CF0E7
:100D10000F0591F803C00CF0100CBCF1000F03D0CC
:100D200091F802C04CEA050591F800C0BCF1000F33
:100D300031D0146800202BE04FF0010C0CFA00F3C6
:100D4000B1F800C00CEA03069E4220D183004FF0A8
:100D50000F0C0CFA03F7BC4305FA03FC4CEA04043D
:100D600091F803C0BCF1280F06D14FF0010C0CFA2A
:100D700000FCC2F814C00AE091F803C0BCF1480FAF
:100D800005D14FF0010C0CFA00FCC2F810C0401C59
:100D90000828D1D31460B1F800C0BCF1FF0F34DDD6
:100DA000546800202EE000F1080C4FF0010808FA0A
:100DB0000CF3B1F800C00CEA03069E4221D1830077
:100DC0004FF00F0C0CFA03F7BC4305FA03FC4CEA96
:100DD000040491F803C0BCF1280F05D100F1080C00
:100DE00008FA0CF8C2F8148091F803C0BCF1480F5F
:100DF00007D100F1080C4FF0010808FA0CF8C2F80E
:100E00001080401C0828CED35460BDE8F08100005B
:100E1000F0B50A46002300240021002500F000461A
:100E2000B6F1004F02D11D4EF16901E01B4E716811
:100E3000C0F3034583B200F44016B6F5401F08D155
:100E400021F07061154E766826F07066134F7E6053
:100E500012E000F48016B6F5801F06D1032606FACC
:100E600005F4A14341F0706106E0460D360103FA36
:100E700006F6B14341F0706122B1460D360103FA26
:100E800006F6314300F00046B6F1004F02D1034EA2
:100E9000F16101E0014E7160F0BD00000000014011
:100EA00041617047016170472DE9F05F0E4800888D
:100EB00005F04EFC83464FF08B4105F0FFFA824669
:100EC00005F062FA06464FF06632084B04F082FFE6
:100ED000044600224FF0804304F07CFF804604F07B
:100EE0003FFDBDE8F09F00007600002066660A40E6
:100EF00010B500F043F8FFF783FD01F04DFB01F062
:100F0000F7FB0520FFF76CFEFFF7CEFF16490860E0
:100F1000FFF75EFE04E04FF400411448FFF7C2FF04
:100F200003F00CFC0028F6D1002408E0104A114917
:100F3000114803F0F1FA0120FFF752FE641CB4F5EA
:100F4000167FF3DB00F036FD04E04FF40041074864
:100F5000FFF7A8FF00F0B8FC0028F6D04FF40041DE
:100F60000248FFF79DFF10BDAC00002000080140C3
:100F700008000020040000200000002008B5012126
:100F8000084600F011FC01210F48FFF741FF012145
:100F90000E48FFF73DFF0121042000F005FC4FF44F
:100FA0000040ADF8000010208DF8030003208DF8FC
:100FB000020069460648FFF79FFE4FF400410448CF
:100FC000FFF76EFF08BD0000000430000002300093
:100FD000000801402DE9FC4104460D4616466B46CB
:100FE00006223B21682000F095F90746BFB99DF81D
:100FF00001009DF8001040EA012000B220809DF819
:1010000003009DF8021040EA012000B228809DF8FC
:1010100005009DF8041040EA012000B230803846F7
:10102000BDE8FC812DE9FC4104460D4616466B46A1
:1010300006224321682000F06DF90746BFB99DF8EC
:1010400001009DF8001040EA012000B220809DF8C8
:1010500003009DF8021040EA012000B228809DF8AC
:1010600005009DF8041040EA012000B230803846A7
:10107000BDE8FC8110B54FF080600F4908600E4854
:101080000C38006820F470400B490C3908600846A1
:10109000006840F44050086048060749086000F0C6
:1010A0000DF84FF480600449086000F007F84FF035
:1010B00080600149086010BD100C014010B502208D
:1010C000FFF7C0FD10BD000008B50121082000F0A9
:1010D0006BFB4FF44060ADF8000003208DF8020078
:1010E00010208DF8030069460448FFF705FE4FF411
:1010F00040610248FFF7D6FE08BD0000000C014029
:1011000010B54FF080600F4908600E480C38006839
:1011100020F470400B490C3908600846006840F420
:1011200040500860C81407490860FFF7C7FF4FF434
:10113000806004490860FFF7C1FF4FF080600149FB
:10114000086010BD100C014070B505460024184819
:10115000006820F47040164908600846006840F4B2
:1011600000400860002619E04FF0806010490C3103
:101170000860FFF7A3FF4FF480600D490C31086051
:101180006006040E0A48001D006800F4006008B103
:10119000601CC4B2FFF792FF701CC6B2082EE3DBDE
:1011A00015B9FFF7ADFF01E0FFF764FF204670BD02
:1011B000040C014070B504461948006820F47040E2
:1011C000174908600846006840F440500860080667
:1011D00013490C31086000251FE004F0800028B19D
:1011E0004FF400600E490C31086004E04FF00060DD
:1011F0000B490C3108606006040E4FF4806008490A
:101200000C310860FFF75AFF4FF0806004490C3141
:101210000860FFF753FF681CC5B2082DDDDB70BD09
:10122000040C014010B51048006820F470400E49CD
:1012300008600846006840F440500860C8140A4935
:101240000C31086040100860FFF738FF4FF0006075
:1012500005490C310860FFF731FF4FF0806002490B
:101260000C31086010BD0000040C014010B50E48A0
:10127000006820F470400C4908600846006840F49B
:1012800040500860080608490C31086040000860BA
:10129000FFF714FF4FF4806003490C3108604000F1
:1012A0000860FFF70BFF10BD040C014010B50024CF
:1012B0001748006820F47040154908600846006827
:1012C00040F400400860C81411490C310860FFF771
:1012D000F5FE4FF480600E490C310860FFF7EEFE1A
:1012E00007E0601CC4B2FA2C03DDFFF7BFFF01204A
:1012F00010BD0748001D006800F400600028F0D110
:101300004FF0806002490C3108600020F0E70000D7
:10131000040C01402DE9F04106460F4614461D46D7
:10132000FFF780FF002141EA4601C8B2FFF742FF04
:10133000FFF7BCFF20B1FFF799FF0120BDE8F08166
:101340003846FFF737FFFFF7B1FFFFF76BFF0121CB
:1013500001EB4601C8B2FFF72DFFFFF7A7FF0DE035
:10136000012C04D10020FFF7EFFE287003E00120DC
:10137000FFF7EAFE2870601EC4B26D1C002CEFD18E
:10138000FFF774FF0020D9E72DE9F04105460E462E
:1013900017469846FFF746FF002141EA4501C8B2CB
:1013A000FFF708FFFFF782FF20B1FFF75FFF012083
:1013B000BDE8F0813046FFF7FDFEFFF777FF002420
:1013C0000CE018F80400FFF7F5FEFFF76FFF18B107
:1013D000FFF74CFF0120EBE7601CC4B2BC42F0DB1E
:1013E000FFF744FF0020E3E700B587B001210320A9
:1013F00000F0CAF94FF6FF70ADF814000020ADF808
:101400001000ADF81600ADF8120004A94FF08040AE
:1014100001F04AF800231A4603214FF0804000F003
:1014200085FE01A800F0FAFE0A20ADF80C0001A923
:10143000400700F09DFE00214FF0804001F005F8CC
:101440000121880700F057FE04A90E4801F02CF88E
:1014500000231A4603210B4800F068FE01A800F0A3
:10146000DDFE0A20ADF80C0001A9064800F080FE60
:101470000021044800F0E9FF0121024800F03BFE92
:1014800007B000BD0004004008B501210C2000F0A9
:101490008BF90320ADF8000014208DF80300032021
:1014A0008DF8020069461C48FFF726FC03211A4804
:1014B000FFF7F8FC4FF4C060ADF8000018208DF87D
:1014C000030003208DF8020069461448FFF714FC5E
:1014D0000320ADF8000004208DF8030069460F4892
:1014E000FFF70AFC4FF44070ADF8000018208DF8AB
:1014F000030003208DF8020069460748FFF7FCFB54
:10150000C020ADF8000004208DF8030069460348B0
:10151000FFF7F2FB08BD0000000C0140000801408D
:1015200000B589B00121042000F02EF90121C80284
:1015300000F03AF940F60F60ADF81C000020ADF85D
:101540001800ADF81E00ADF81A0006A93C4800F0DE
:10155000ABFF6020ADF808000120ADF80A000020C4
:10156000ADF80E00ADF8100002A9354800F0C8FE35
:101570000821334800F014FF02A9314800F01AFF97
:1015800008212F4800F054FF01212D4800F0A4FD50
:1015900001212B4800F0ACFD01221146284800F043
:1015A00046FE4FF4A06000F0C9F81E208DF804003C
:1015B00003208DF805008DF8060001208DF8070046
:1015C00001A800F083F801211D4800F094FD40F6C9
:1015D0000F60ADF81C000020ADF81800ADF81E003B
:1015E000ADF81A0006A9174800F05EFF6020ADF8BC
:1015F00008000120ADF80A000020ADF80E00ADF89B
:101600001000ADF81400ADF8160002A90D4800F066
:1016100017FE08210B4800F065FE02A9094800F0FA
:101620006FFE0821074800F0BBFE0121054800F0CD
:1016300062FD0121034800F06AFD09B000BD000011
:1016400000080040002C0140B1F5616F02DB40F65C
:101650000F6103E011F5616F00DC1949B0B9002991
:1016600005DD184B198000221B1D1A8026E0002979
:1016700006DA0022134B1A804A421B1D1A801DE015
:101680000022104B1A801B1D1A8017E0012815D16B
:10169000002905DD0C4B198000221B1D1A800DE06E
:1016A000002906DA0022084B1A804A421B1D1A80C4
:1016B00004E00022044B1A801B1D1A8070470000B2
:1016C000F1F1FFFF3C080040382C014070B50021CB
:1016D00000230F22C47804B3154C246804F4E0649A
:1016E000C4F5E064210AC1F10403CA40447804FA55
:1016F00003F184781440214309010E4C0678A1556A
:10170000047804F01F050124AC4005786D11AD008C
:1017100005F1E025C5F8004109E0047804F01F0553
:101720000124AC40044D0678761145F8264070BD82
:101730000CED00E000E400E080E100E0024901433C
:10174000024A1160704700000000FA050CED00E04D
:1017500001460020034A506820F44040084350608E
:10176000704700000010024029B1064A5269024346
:10177000044B5A6104E0034A52698243014B5A61A7
:10178000704700000010024029B1064AD2690243A6
:10179000044BDA6104E0034AD2698243014BDA6107
:1017A000704700000010024029B1064A92690243C6
:1017B000044B9A6104E0034A92698243014B9A61A7
:1017C000704700000010024030B5002100220024C4
:1017D00000232D4D6D6805F00C0121B1042905D0C1
:1017E000082923D105E0294D056022E0274D056039
:1017F0001FE0254D6D6805F47012234D6D6805F4EA
:101800008034022505EB92421CB9214D55430560F9
:101810000BE01D4D6D6805F400351DB11C4D5543A1
:10182000056002E0194D5543056002E0174D056063
:1018300000BF00BF144D6D6805F0F0010909154D9A
:101840006B5C0568DD4045600F4D6D6805F4E06137
:10185000090A104D6B5C4568DD4085600A4D6D6876
:1018600005F46051C90A0B4D6B5C4568DD40C560ED
:10187000054D6D6805F44041890B074D6B5CC568EB
:10188000B5FBF3F5056130BD0010024000127A008F
:1018900000093D00B0000020C000002001460229E0
:1018A00002D0032908D103E0054AB2F9000005E09F
:1018B000044AB2F9000001E0002000BF00BF7047F9
:1018C000780000207A0000207CB510A103C9CDE982
:1018D000000105226946302000F040F905226946E2
:1018E000102000F07BF8002406E01DF80400A52875
:1018F00000D003E0601CC4B2052CF6DB00BF052C51
:1019000001D0002500E0012528467CBDA5A5A5A5A0
:10191000A500000008B501210C20FFF745FF0420B9
:10192000214908808002ADF8000010208DF80300E6
:1019300003208DF8020069461C48FFF7DDF94FF4DB
:1019400080511A48FFF7ACFA4FF46040ADF8000040
:1019500018208DF8030003208DF802006946134813
:10196000FFF7CAF94FF40060ADF8000010208DF8C1
:10197000030003208DF8020069460D48FFF7BCF90B
:101980004FF400610A48FFF78BFA4FF48070ADF80E
:10199000000048208DF8030003208DF802006946FE
:1019A0000348FFF7A9F908BD04380040000C0140C6
:1019B0000008014010B5FFF7ADFF00F09DF84FF4AF
:1019C00080510448FFF76EFA4FF400610248FFF7B8
:1019D00067FA10BD000C0140000801402DE9F041FC
:1019E00007460C4615464FF480510C48FFF758FA4D
:1019F000384600F0EDF88046002605E0FF2000F0B4
:101A0000E7F82070641C761CAE42F7DB4FF480517F
:101A10000248FFF747FA4046BDE8F081000C01405C
:101A200070B504464FF480510848FFF739FA204654
:101A300000F0CEF8FF2000F0CBF805464FF48051BF
:101A40000248FFF72FFA284670BD0000000C014045
:101A500010B54FF400611348FFF722FA052212492E
:101A60002A2000F07BF80121212000F099F80121C3
:101A7000222000F095F82821252000F091F804217B
:101A8000312000F08DF80F21262000F089F80F2179
:101A9000202000F085F84FF400610248FFF702FAB9
:101AA00010BD0000000801403100002070B5044660
:101AB0004FF400610F48FFF7F3F90720FFF7B0FF7D
:101AC00005462946272000F06BF805F0400050B18C
:101AD000042221466120FFF781FFFF21E22000F070
:101AE0005FF8002070BD4FF400610248FFF7DAF99B
:101AF0000120F7E70008014000B585B00121880307
:101B0000FFF742FE0021144800F07EF80020ADF8F7
:101B100000004FF48270ADF802000020ADF8040020
:101B2000ADF80600ADF808004FF40070ADF80A00FB
:101B30001820ADF80C000020ADF80E000720ADF81D
:101B400010006946044800F079F80121024800F0CD
:101B50005BF805B000BD0000003800402DE9F04101
:101B600007460C4615464FF480510C48FFF798F98C
:101B7000384600F02DF88046002604E0207800F07A
:101B800027F8641C761CAE42F8DB4FF48051034802
:101B9000FFF788F94046BDE8F0810000000C0140E5
:101BA00070B505460C464FF480510848FFF778F9A8
:101BB000284600F00DF80646204600F009F84FF4DC
:101BC00080510248FFF76EF9304670BD000C0140AD
:101BD00010B5044600BF02210A4800F021F8002891
:101BE000F9D02146074800F027F800BF0121054839
:101BF00000F016F80028F9D0024800F01AF8C0B238
:101C000010BD00000038004021B1028842F04002BF
:101C1000028004E002884FF6BF731A4002807047CA
:101C20000246002013890B400BB1012000E0002088
:101C300070470146888970478181704710B500223E
:101C4000028802F441520B884C8823438C8823433A
:101C5000CC8823430C8923434C8923438C89234319
:101C6000CC8923431A430280838B4FF2FF742340B5
:101C700083830B8A038210BD10B500F001F810BDFC
:101C80000CB50020019000903348006840F480308B
:101C90003149086000BF3048006800F4003000900F
:101CA0000198401C0190009818B90198B0F5A06FF8
:101CB000F1D12948006800F4003010B101200090F3
:101CC00001E0002000900098012843D123480068DB
:101CD00040F01000214908600846006820F0030029
:101CE00008600846006840F0020008601A48406832
:101CF000194948600846406848600846406840F412
:101D0000806048600846406820F47C1048600846BF
:101D1000406840F4E81048600846006840F0807071
:101D2000086000BF0C48006800F000700028F9D07F
:101D30000948406820F003000749486008464068A9
:101D400040F00200486000BF0348406800F00C000B
:101D50000828F9D10CBD000000100240002002400C
:101D600030B50146B1F1807F01D3012030BD21F0B3
:101D70007F40401E4FF0E022506150170F22002894
:101D800007DA13071D0E094B00F00F04241F1D5521
:101D900003E013071C0E064B1C5400BF00204FF03D
:101DA000E0229061072010610020DFE718ED00E0DD
:101DB00000E400E00448006820B103480068401EC9
:101DC00001490860704700003800002010B5134832
:101DD000006840F001001149086008464068104959
:101DE00008400E494860084600680E4908400B4903
:101DF00008600846006820F48020086008464068B3
:101E000020F4FE0048604FF41F008860FFF734FFA5
:101E10004FF000600449086010BD0000001002404F
:101E20000000FFF8FFFFF6FE08ED00E0F0B50C46FD
:101E3000154600220021068C4FF6FE773E400684B0
:101E4000028B018C4FF60C7632407E1C06EA03169C
:101E50002E433243104EB0420ED0104EB0420BD043
:101E6000B0F1804F08D00E4EB04205D00D4EB042BA
:101E700002D00D4EB04206D14FF6FD76314044F00F
:101E80000106314305E04FF6F576314044F0010696
:101E9000314302830184F0BD002C01400034014035
:101EA0000004004000080040000C0040F0B50C4663
:101EB0001546002200210026078C4FF6EF7C07EA2A
:101EC0000C070784028B018C4FF6FF7707EA041694
:101ED00040F6FF473A404FF6FF7707EA03373A43A9
:101EE0004FF6FF7707EA05273A43114FB8420ED065
:101EF000104FB8420BD0B0F1804F08D00E4FB8420F
:101F000005D00E4FB84202D00D4FB84206D14FF661
:101F1000DF77394046F01007394305E04FF65F7729
:101F2000394044F01007394302830184F0BD0000BA
:101F3000002C014000340140000400400008004033
:101F4000000C0040F0B50C4615460022002100268A
:101F5000078C4FF6FF6C07EA0C070784828B018C15
:101F60004FF6FF7707EA04264FF60C773A404FF614
:101F7000FF7707EA03172F433A43114FB8420ED0B9
:101F8000104FB8420BD0B0F1804F08D00E4FB8427E
:101F900005D00E4FB84202D00D4FB84206D14FF6D1
:101FA000FF57394046F48077394305E04FF2FF5739
:101FB000394044F48077394382830184F0BD0000C6
:101FC000002C0140003401400004004000080040A3
:101FD000000C0040F0B50C461546002200210026FA
:101FE000078C4EF6FF7C07EA0C070784828B018C76
:101FF0004FF6FF7707EA043640F6FF473A404FF6C0
:10200000FF7707EA05273A434FF6FF7707EA0337DA
:102010003A43114FB8420ED0104FB8420BD0B0F136
:10202000804F08D00E4FB84205D00E4FB84202D0B4
:102030000D4FB84206D14DF6FF77394046F4805730
:10204000394305E047F6FF57394044F48057394398
:1020500082830184F0BD0000002C01400034014067
:102060000004004000080040000C004015480088B3
:1020700000F00100F0B114480088C82805DA1248C1
:102080000088401C1049088014E000200E49088098
:102090004FF08040808C00B20C49088000204FF047
:1020A000804188840A48008800B20A4908800020DC
:1020B000074908800348008820F001000149088092
:1020C00070470000100800402A000020780000201F
:1020D000240400407A00002021B1028842F08002EE
:1020E000028004E002884FF67F731A400280704736
:1020F000CA430282704721B1028842F00102028085
:1021000004E002884FF6FE731A400280704731B136
:10211000B0F8442042F40042A0F8442005E0B0F8B2
:102120004420C2F30E02A0F844207047F0B50C46DC
:1021300015461E460021002200230189028B038CD4
:102140004FF6F877394021434FF6FC473A4040F2CA
:1021500001173A434FF6DD773B404FF6FF7707EA2A
:1021600006172F433B43018102830384F0BD000027
:1021700070B505460C46244885420ED0234885425A
:102180000BD0B5F1804F08D02148854205D02148B9
:10219000854202D02048854200D100E000BF20885F
:1021A00050B92389A28861882846FFF73FFEE1885D
:1021B000284600F04CF925E0208804280AD123891C
:1021C000A28861882846FFF771FEE188284600F062
:1021D00047F917E0208808280AD12389A288618856
:1021E0002846FFF7AFFEE188284600F046F909E0EF
:1021F0002389A28861882846FFF7ECFEE1882846FB
:1022000000F044F970BD0000002C01400034014092
:102210000004004000080040000C00400021018044
:102220004180012181800021C180018170471AB164
:1022300083890B43838102E083898B4383817047C9
:1022400070B5002400220023058C4FF6EF76354050
:102250000584028C8388048B48F6FF752C404FF66A
:10226000FF452C400D884FF6FF7606EA05252C43E6
:102270004FF6DF752A400D8906EA05152A434D8879
:1022800006EA05152A43154DA84202D0144DA8426E
:102290001DD14FF67F752A404D894FF6FF7606EA2D
:1022A00005152A434FF6BF752A408D8806EA0515A5
:1022B0002A434FF6FF352B404FF2FF752B408D8997
:1022C00006EA85052B43CD8906EA85052B438380E5
:1022D0000483CD880587028470BD0000002C014076
:1022E000003401400A460021018B4FF2FF73194070
:1022F0004FF6FF7303EA022319430183704700007E
:1023000070B5002400220023058C4FF6FF6635408F
:102310000584028C8388848B4FF68F752C404FF692
:10232000FC752C400D882C434FF6FF552A400D8933
:102330004FF6FF7606EA05252A434D8806EA05256D
:102340002A43154DA84202D0144DA8421DD14FF288
:10235000FF752A404D894FF6FF7606EA05252A4388
:102360004FF6FF352A408D8806EA05252A434EF6AA
:10237000FF752B404DF6FF752B408D8906EA05153C
:102380002B43CD8906EA05152B4383808483CD88B2
:102390008587028470BD0000002C0140003401409C
:1023A0000A460021818B4FF6F77319401143818350
:1023B0007047000070B5002200230024058C4EF603
:1023C000FF7635400584038C8488828B48F6FF7540
:1023D0002A404FF6FF452A400D884FF6FF7606EA61
:1023E00005252A434DF6FF752B400D8906EA053574
:1023F0002B434D8806EA05352B430B4DA84202D0EE
:102400000A4DA84208D14BF6FF752C408D894FF636
:10241000FF7606EA85152C4384808283CD88A0F858
:102420004050038470BD0000002C01400034014086
:102430000A460021818B4FF2FF7319404FF6FF735C
:1024400003EA022319438183704781847047028B1A
:102450004FF6F3731A400283028B0A4302837047DC
:10246000028B4FF2FF331A400283028B4FF6FF7349
:1024700003EA01231A4302837047828B4FF6F373FA
:102480001A408283828B0A4382837047828B4FF289
:10249000FF331A408283828B4FF6FF7303EA0123D6
:1024A0001A43828370470000002202881D4B984225
:1024B0000ED01D4B98420BD0B0F1804F08D01B4B73
:1024C000984205D01A4B984202D01A4B984204D138
:1024D0004FF68F731A404B881A43174B984207D018
:1024E000164B984204D04FF6FF431A40CB881A434C
:1024F00002808B8883850B8803850A4B98420BD01A
:10250000094B984208D00E4B984205D00D4B98428B
:1025100002D00D4B984201D10B7A038601238382AE
:1025200070470000002C01400034014000040040CE
:1025300000080040000C0040001000400014004063
:1025400000400140004401400048014008B501211D
:102550000820FFF729F901210420FEF759FC40204B
:10256000ADF8000018208DF8030003208DF802005C
:1025700069460848FEF7C0FB8020ADF80000042043
:102580008DF8030003208DF8020069460148FEF72C
:10259000B3FB08BD000C01401FB5FFF7D7FF0121B9
:1025A00044F20100FFF700F94FF4E1300090002001
:1025B000ADF80400ADF80600ADF80800ADF80C0069
:1025C0000C20ADF80A006946034800F021F801210B
:1025D000014800F003F81FBD0038014021B1828995
:1025E00042F40052828104E082894DF6FF731A4062
:1025F0008281704702460020B1F5007F00D100BF04
:1026000013880B400BB1012000E000207047000050
:102610002DE9F04786B005460E460024A24600BFCD
:10262000A1460027B08900B100BF2F462C8A4CF686
:10263000FF700440F08804432C82AC894EF6F310FE
:102640000440B08831890843718908430443AC8150
:10265000AC8A4FF6FF400440B0890443AC8201A825
:10266000FFF7B2F81F48874202D1DDF810A001E061
:10267000DDF80CA0A88900F4004040B10AEBCA00C4
:1026800000EB0A1031684900B0FBF1F807E00AEBF3
:10269000CA0000EB0A1031688900B0FBF1F8642031
:1026A000B8FBF0F004012009642101FB1089A8891E
:1026B00000F4004040B1322000EBC900B0FBF1F063
:1026C00000F00700044308E0322000EB0910642109
:1026D000B0FBF1F000F00F0004432C8106B0BDE820
:1026E000F087000000380140C1F308028280704783
:1026F00010B5FEF739F8FEF74FF810BD490050EA63
:10270000C12018BF04204A0D18BF40F0010040F25C
:10271000FF72B2EB515F08BF40F00200012808BF12
:10272000052070472DE9F0414F1E00EBC70104461C
:10273000D1E9000115461E4637F006020DD02A46A3
:10274000334603F047FB7F1E04EBC703D3E90023A6
:1027500003F038F937F00602F1D1022F25D0042F0B
:1027600013D0062F18BFBDE8F0812A46334603F088
:1027700031FBD4E90A2303F025F92A46334603F056
:1027800029FBD4E9082303F01DF92A46334603F058
:1027900021FBD4E9062303F015F92A46334603F05A
:1027A00019FBD4E9042303F00DF92A46334603F05C
:1027B00011FBD4E9022303F005F92A46334603F05E
:1027C00009FBD4E90023BDE8F04103F0FBB8012286
:1027D00004F0ABB903F0F6B80022134610461146D8
:1027E00003F0A0B9024A0020110704F09EB90000CE
:1027F00001FDFFFF30380A2801D201207047002078
:10280000704770472DE9FE4F074688460026684608
:1028100001F09EF9002444E057F8240058F82410F1
:10282000A0EB010ABAF1000F01DB514601E0CAF149
:102830000001084603F074FF83464FF08F4103F018
:102840003DFE81465DF82400002103F0F9FE18D01A
:102850005DF82410484603F031FE82464FF07E5169
:1028600004F0BCF8054600BF25F0004082460F4842
:10287000416A504604F080F812D20120A04006437D
:102880000EE00A48C169484603F076FF05D30748C1
:10289000016A484604F070F802D20120A0400643C5
:1028A000641C032CB8DB3046BDE8FE8FE06B0008EB
:1028B0002DE9F04D8D4F21F0004A86B005460C46BB
:1028C000BA452ADBAAEB070028430AD0884882458C
:1028D00001DC1AD1CDB106B02846BDE8F04DFFF7B6
:1028E00076BF844A844B284603F074FA07460E46A6
:1028F000824A834B2846214603F06CFA06B03A46DA
:102900003346BDE8F04D03F05DB80120FDF71EFE33
:1029100006B0BDE8F04DFFF75FBF7A48824542DA66
:10292000BAF1795F0BDA2846FFF7E8FE042808BF02
:10293000FFF758FF284606B02146BDE8F08D2A462D
:102940000B46104603F046FA834602466E480E4692
:102950000B4606217844FFF7E5FE5A46334603F05E
:1029600039FA804669488A465A46334604217844F3
:10297000FFF7D8FE5A46334603F02CFA00223B46B6
:1029800003F020F802460B464046514603F0CAF8D1
:102990002A46234603F01EFA06B02A462346BDE81F
:1029A000F04D03F00FB8284624F0004100223D46C8
:1029B0003B4603F00DFB4FF0FF3204F0B6F806463D
:1029C000024653480F460B4606217844FFF7AAFEFD
:1029D00032463B4603F0FEF9CDE900014D48324650
:1029E0003B4604217844FFF79DFE32463B4603F008
:1029F000F1F900222B4602F0E5FF834602913046B2
:102A0000394602F0C9FE804643480D46504517DC62
:102A1000DDE900015A46029B03F084F842462B464A
:102A200003F0D8F942462B4602F0CCFF012204F015
:102A30007CF8304A304B03F0BDFB304A304B4CE061
:102A40004FF0000A52460B46404602F0BBFFCDE96C
:102A5000031052462B461046194603F0BBF9324686
:102A60003B4603F0B5FADDE9033203F05BF80646B6
:102A70000F46DDE900015A46029B03F053F88346F6
:102A8000009101223046394604F04FF8194A1A4B9A
:102A900003F09EFA06460F4601224046294604F0FE
:102AA00044F85A46009B03F095F932463B4603F042
:102AB00081FB06460F4601225046294604F035F8B0
:102AC0000E4DDFF858802A46434603F081FA32461D
:102AD0003B4603F07DFA2A46434603F079FA002C80
:102AE000D8BF81F0004106B0BDE8F08D0000F03F96
:102AF0000000F07F075C143326A6913C182D445447
:102B0000FB21F93F0000E03FB84E0000CE4E000030
:102B1000424E0000584E00003333EF3FFB21E93FA7
:102B20002DE9F84F04460D4621F00040009173490D
:102B3000814211DC7249884201DC06D12CB1204669
:102B40002946BDE8F84FFFF742BE6E48002DCCBFC6
:102B50006D496E49BDE8F88F6D49814211DD6D49BF
:102B60008142D8BF4FF0FF366DDD20462946FFF782
:102B7000C5FD042808BFFFF735FE20462946BDE8FD
:102B8000F88F6549654F25F00045814233DD644982
:102B9000814219DD002632464FF080432046294607
:102BA00002F010FF80468A4601222046294603F0A3
:102BB000BCFF00223B4603F0FDFA4246534602F0BA
:102BC000B1FF04460D463EE001260022BA463B46D0
:102BD0002046294602F0F6FE80460F460022534664
:102BE0002046294603F0E6FA42463B4602F09AFFA9
:102BF00004460D4627E04B4981421BDDDFF828A142
:102C00000226002253462046294603F0E3F800221C
:102C10003B4602F0D7FE80460F4600225346204630
:102C2000294603F0C7FA42463B4602F07BFF0446C2
:102C30000D4608E0032622462B4600203B4902F0C1
:102C400071FF04460D4622462B461046194603F0F6
:102C5000C1F88B46824602460B4603F0BBF8074696
:102C60000246334888460B4606217844FFF75AFD52
:102C700052465B4603F0AEF882462E488B463A46F3
:102C8000434605217844FFF74DFD3A46434603F09D
:102C9000A1F802460B46002E504659460CDA02F0C7
:102CA00091FE22462B4603F095F801B022462B46B2
:102CB000BDE8F04F03F08CB902F084FE22462B46AB
:102CC00003F088F81C4A7A4402EBC603D3E90023D8
:102CD00003F070FA22462B4603F06CFA174A7A4446
:102CE00002EBC603D3E9002303F072F9009A002A2D
:102CF000B8BF81F00041BDE8F88F0000000010442B
:102D00000000F07F182D4454FB21F93FFB21F9BF4F
:102D10000000DC3F0000203E0000F33F0000F03FD9
:102D20000000E63F008003400000F83F0000F0BFD5
:102D30005A4C0000184C0000B64B00007E4B0000BF
:102D40002DE9F04D9446CCF1000423F000464CEA06
:102D50000404524F46EAD4749A46884621F0004251
:102D6000BC4206D8454240EA050442EAD474BC425B
:102D700004D9BDE8F04D6246FFF72CBDAAF14055DD
:102D8000A5F17F6555EA0C040BD0022404EAAA746D
:102D9000434DDFF810E144EAD87452EA000B04D046
:102DA0000CE0BDE8F04DFFF7BBBE002C14BF012CBA
:102DB000BDE8F08D022C30D0032C32D056EA0C0B3B
:102DC0000AD0BE4220D1BA4209D126F0804622F074
:102DD00080423346114617E000291ADB25E0DFF870
:102DE000C8B0FB44002C04BFDBE90001BDE8F08D56
:102DF000012C02BFDBE9000181F00041BDE8F08D4C
:102E0000022C0AD0032C0CD0BA4212D1B8F1000F18
:102E10000BDA23482549BDE8F08D28462449BDE852
:102E2000F08D28467146BDE8F08D1D482149BDE86A
:102E3000F08D921B12153C2AC4BF19481D490EDCA7
:102E4000BAF1000FBEBF12F13C0F0020014606DBB5
:102E5000624602F067FE21F00041FFF761FE002CA0
:102E600008BFBDE8F08D012C04BF81F00041BDE832
:102E7000F08D114A114B022C07D003F09BF92A4622
:102E8000BDE8F04D0A4B03F095B903F093F92A46DB
:102E9000BDE8F04D064B03F09BB800000000F07F4A
:102EA000182D4454FB2109C0124B0000FB21F9BF2F
:102EB000FB210940FB21F93F075C143326A6A13C06
:102EC0002DE9F05F05460C460F480168284603F0DF
:102ED00085FD8146204603F023FC83460B480168AC
:102EE000584603F07DFC804649460948006803F0D7
:102EF00077FC8246414603F073FA074603F0D4FBA1
:102F0000064630B2BDE8F09F94000020800000200B
:102F10007C0000202DE9F0410446E07800F0C00676
:102F2000E07800F03F05607800F0010098B1EF1004
:102F30002846E91705EB5171C910A5EBC101491CE1
:102F400001F0FF080B48006820B10A4841460268BA
:102F50003846904700BF607800F0080030B105485F
:102F6000406818B1B011034A516888470020BDE895
:102F7000F0810000D800002038B5044664B120205C
:102F80008DF8000028208DF8010030208DF8020017
:102F900038208DF8030004E0A32204216846FDF7E1
:102FA0004DFA6A46042140F69E2002F041FB01F0F2
:102FB0002BFF38BD3EB5044602208DF80000CA2024
:102FC0008DF80100E3208DF8020009208DF8030040
:102FD0006A460421682002F02BFBA3208DF8000034
:102FE00004F0400048B1C0208DF80100C8208DF8E1
:102FF0000200C2208DF8030006E0A3208DF8010036
:103000008DF802008DF8030004F4C07048B1C420AC
:103010008DF80400CC208DF80500C6208DF8060040
:1030200006E0A3208DF804008DF805008DF8060059
:10303000A3208DF807008DF808008DF809006A4676
:103040000A2140F6A72002F0F3FA04F0030018B1B9
:1030500020208DF8000002E0D8208DF800006A469C
:10306000012140F6B62002F0E3FA04F0200018B186
:10307000012000F0ADF802E0002000F0A9F804F40F
:10308000C07008B304F4807060B1B2208DF8000005
:103090008B208DF80100B6208DF802009B208DF862
:1030A00003000BE0B0208DF8000080208DF80100B7
:1030B000B4208DF8020090208DF803006A460421A8
:1030C00040F6A22002F0B4FA04F0010020B3F82088
:1030D0008DF800006A4601214FF40B6002F0A8FA57
:1030E000FA21072000F02CFC072000F0F3FB012060
:1030F00000F013FC642000F0F3FC4FF4FA7000F0D1
:1031000002FDC821304800F0A3FB282000F0BCFBE2
:103110000A2000F0CCFB08E0D8208DF800006A46B9
:1031200001214FF40B6002F083FA04F0020018B1A1
:10313000D9208DF8000002E0D8208DF800006A4602
:10314000012140F23D7002F073FA04F0040018B15E
:10315000012000F069F802E0002000F065F804F0BA
:10316000100018B10120FFF707FF02E00020FFF771
:1031700003FF44F008001549488101F045FE002096
:103180001249887304F0400018B10846807B801D06
:10319000887304F4C07020B10C48807B801D0B49FB
:1031A000887304F0140020B10848807B1030074970
:1031B000887304F0030020B10448807B001D03499C
:1031C000887300203EBD000009E3CA02D800002039
:1031D0003EB504466CB10EA1D1E900208968CDE965
:1031E000002002916A4609214FF4976002F020FA0C
:1031F0003EBD0AA2D2E900109268CDE90102009119
:103200006A4609214FF4976002F012FAF0E70000D5
:10321000B8AAB38DB4980D355D000000B8AAAAAA6B
:10322000B088C3C5C700000038B5044664B1C020EB
:103230008DF80000C2208DF80100C4208DF8020036
:10324000C6208DF8030004E08B2204216846FDF7B8
:10325000F5F86A46042140F6982002F0E9F901F0F9
:10326000D3FD38BD10B5C8234FF48062024940F643
:10327000F63001F05DFC10BD086C00082DE9F04F40
:103280008DB00746884615469946DDE9166B002441
:10329000002030806B49887B5A4605A901F014FD57
:1032A00018B1601E0DB0BDE8F08F6648807A00F05E
:1032B0001400002867D09DF8140000069DF8151032
:1032C00040EA01409DF8161040EA01209DF81710D1
:1032D000084328609DF8180000069DF8191040EA80
:1032E00001409DF81A1040EA01209DF81B10084388
:1032F00068609DF81C0000069DF81D1040EA014022
:103300009DF81E1040EA01209DF81F100843A86098
:103310009DF8200000069DF8211040EA01409DF82C
:10332000221040EA01209DF823100843E86004F1D0
:103330001000C4B22868001401906868001402905C
:10334000A86800140390E8680014049001984043B2
:10335000029901FB0100039901FB0100049901FBA3
:10336000010ABAF1706F02DBBAF1885F05DD01F086
:103370004BFD00203080401E94E7B6F9000040F479
:103380008070308000BF2F48807A00F0400020B36A
:1033900005A9601C085C095D40EA012000B2A8F89C
:1033A000000005A9E01C095C05AAA01C105C41EA0C
:1033B000002000B2A8F8020005A9601D095C201DCC
:1033C000105C41EA002000B2A8F80400A01DC4B2BD
:1033D000B6F9000040F0080030801A48408900F437
:1033E000C07008B305A9601C085C095D40EA0120B3
:1033F00000B2388005A9E01C095C05AAA01C105C7D
:1034000041EA002000B2788005A9601D095C201DFA
:10341000105C41EA002000B2B880A01DC4B2B6F929
:10342000000040F0700030800648807A00F0030011
:1034300018B105A90819FFF76DFD484601F032F8EB
:1034400000202FE7D800002070B588B0064601A8FC
:1034500001F0EAF9BDF804000021C90341EA504532
:10346000C4034448007A00F0030056F82000059099
:103470004048007A00F0040010B1059840420590E1
:103480003C48007AC0F3C10056F820000690394845
:10349000007A00F0200010B10698404206903548AE
:1034A000007AC0F3811056F8200007903148008957
:1034B00000F4807010B10798404207900598C1173A
:1034C000A0FB042301FB043100FB0510810041EA4D
:1034D000927005900698C117A0FB042301FB0431EC
:1034E00000FB0510810041EA927006900798C11711
:1034F000A0FB042301FB043100FB0510810041EA1D
:10350000927007900598000E8DF808000598000C41
:103510008DF809000598000A8DF80A000598C0B2D8
:103520008DF80B000698000E8DF80C000698000C24
:103530008DF80D000698000A8DF80E000698C0B2AE
:103540008DF80F000798000E8DF810000798000CFA
:103550008DF811000798000A8DF812000798C0B284
:103560008DF8130002AA0C214FF4257002F060F8C8
:1035700008B070BDD800002030B585B0044616A252
:1035800007CA02AB07C3C82C03DD4FF0FF3005B0FC
:1035900030BDC82090FBF4F0401E85B2280A8DF89B
:1035A0000000E8B28DF801006A46022140F21620C0
:1035B00002F03EF810B14FF0FF30E8E702AA0C210C
:1035C00040F6C12002F034F810B14FF0FF30DEE7D2
:1035D000044884810020DAE7FEF2ABC4AAF1DFDF01
:1035E000BBAFDFDFD80000201FB504464848007A93
:1035F00000F0030054F8200001904548007A00F0E4
:10360000040010B10198404201904148007AC0F393
:10361000C10054F8200002903D48007A00F02000DC
:1036200010B10298404202903948007AC0F38110EC
:1036300054F8200003903648008900F4807010B1DF
:103640000398404203903349019880FB0101800FA9
:1036500040EA810001902F49029880FB011082000E
:1036600042EA917002902B49039880FB011082007E
:1036700042EA917003900198000E8DF800000198C5
:10368000000C8DF801000198000A8DF802000198E5
:10369000C0B28DF803006A4604214FF4747001F043
:1036A000C7FF18B14FF0FF3004B010BD0298000EF4
:1036B0008DF800000298000C8DF801000298000AB5
:1036C0008DF802000298C0B28DF803006A4604210A
:1036D0004FF4757001F0ACFF10B14FF0FF30E3E72D
:1036E0000398000E8DF800000398000C8DF801007F
:1036F0000398000A8DF802000398C0B28DF8030009
:103700006A4604214FF4767001F092FFCCE7000086
:10371000D800002009E3CA0210B586B0044647A0CD
:103720000068039046A00068029046A000680190DF
:1037300045A00068009004F0030003A9085C8DF820
:10374000140003A8C4F3C101405C8DF8150003A860
:10375000C4F38111405C8DF8160004F0030002A947
:10376000085C8DF8100002A8C4F3C101405C8DF81C
:10377000110002A8C4F38111405C8DF8120005AA63
:10378000032140F2264001F053FF18B14FF0FF3003
:1037900006B010BD04AA032140F22A4001F048FF00
:1037A00010B14FF0FF30F3E70198059000980490B6
:1037B00004F0040058B19DF8140040F001008DF8A9
:1037C00014009DF8100040F001008DF8100004F086
:1037D000200058B19DF8150040F001008DF815004B
:1037E0009DF8110040F001008DF8110004F4807084
:1037F00058B19DF8160040F001008DF816009DF8B4
:10380000120040F001008DF8120005AA03214FF4C8
:10381000886001F00DFF10B14FF0FF30B8E704AA47
:10382000032140F2314001F003FF10B14FF0FF30AF
:10383000AEE7064804810020AAE700004CCD6C00EA
:103840000CC92C003656760026466600D8000020AB
:10385000F8B505460E464FF47A7095FBF0F000FB84
:1038600006F4200E8DF80000200C8DF80100200ACF
:103870008DF80200E0B28DF803006A4604214FF48F
:10388000AE7001F0D5FEF8BD38B50446052094FBB6
:10389000F0F084B220128DF80000E0B28DF8010043
:1038A0006A4602214FF4AD7001F0C2FE38BD38B552
:1038B0000446052094FBF0F084B220128DF800003D
:1038C000E0B28DF801006A4602214FF4AC7001F0BD
:1038D000AFFE38BD38B504460020009004F001006A
:1038E00020B19DF8000040F03000009004F002008C
:1038F00020B19DF8000040F00C00009004F004009E
:1039000020B19DF8000040F0030000906A460121BC
:103910004FF4A47001F08CFE38BD38B50446012C7C
:1039200001DA012402E0042C00DD0424601EC0B290
:1039300000906A46012140F24F1001F079FE38BD37
:103940002DE9FC4706460F4606F0070010B1B7F513
:10395000C86F03DD4FF0FF30BDE8FC87384602F04A
:10396000F7FE8146594902F0A9FD8046684600F0FD
:1039700035FF9DF80000022806D0042816D008283C
:1039800026D0102848D135E04FF08D41404602F056
:1039900027FF814602F0A4FE84B24D49404602F062
:1039A0001FFF814602F09CFE85B238E04FF08C414B
:1039B000404602F015FF814602F092FE84B245496E
:1039C000404602F00DFF814602F08AFE85B226E0F5
:1039D0004FF08B41404602F003FF814602F080FE2B
:1039E00084B23D49404602F0FBFE814602F078FE7B
:1039F00085B214E04FF08A41404602F0F1FE814664
:103A000002F06EFE84B23549404602F0E9FE81467E
:103A100002F066FE85B202E04FF0FF309CE700BF87
:103A200020128DF80400E0B28DF8050028128DF800
:103A30000600E8B28DF8070006F00100A0B101AA67
:103A400002214FF4EA7001F0F3FD10B14FF0FF30A6
:103A500082E70DF1060202214FF4927001F0E8FDB9
:103A600010B14FF0FF3077E706F00200A0B101AAD5
:103A700002214FF4EC7001F0DBFD10B14FF0FF308C
:103A80006AE70DF1060202214FF4947001F0D0FDB7
:103A900010B14FF0FF305FE706F00400A0B101AABB
:103AA00002214FF4EE7001F0C3FD10B14FF0FF3072
:103AB00052E70DF1060202214FF4967001F0B8FDB5
:103AC00010B14FF0FF3047E7002045E700004843C2
:103AD000000040460000C045000040450000C044D2
:103AE00038B50446052094FBF0F085B228128DF815
:103AF0000000E8B28DF801006A4602214FF4EF7031
:103B000001F096FD38BD38B50446052094FBF0F071
:103B100085B228128DF80000E8B28DF801006A46DF
:103B200002214FF4ED7001F083FD38BD70B50446FD
:103B30000D4600BF40210548FEF75CFD0028F9D086
:103B4000E1B20248FEF7D0FD204670BD00380140CA
:103B50007CB5054628494968087801AB04220D2147
:103B6000FDF7D8FB08B107207CBD9DF80700C0F326
:103B700001109DF8041001F0E00140EAE1008DF829
:103B800000009DF80700C0F381009DF8051001F0CA
:103B9000E00140EAE1008DF801009DF8070000F027
:103BA00003009DF8061001F0E00140EAE1008DF805
:103BB000020000241CE01DF8040018B9002045F89C
:103BC000240013E00D4845F8240006E055F82400D1
:103BD0000B4902F005FE45F824001DF80400401EC4
:103BE000C0B20DF804000028F0D100BF601CC4B2C0
:103BF000032CE0DB0020B7E7400000207B14AE3E42
:103C00001D5A843F2DE9F04F87B005460C4691467A
:103C100001208DF8100000208DF81100FE4A126876
:103C2000917CFD4A5268107804AB0222FDF7ACFB90
:103C300020B14FF0FF3007B0BDE8F08FC820FCF78F
:103C4000CFFF00208DF81000F34A1268D17BF24AB2
:103C50005268107804AB0122FDF796FB10B14FF0CB
:103C6000FF30E8E7EC4A12685179EB4A5268107865
:103C700004AB0122FDF788FB10B14FF0FF30DAE70B
:103C8000E54A1268917CE44A5268107804AB01223C
:103C9000FDF77AFB10B14FF0FF30CCE7DE4A126837
:103CA000D17DDD4A5268107804AB0122FDF76CFB30
:103CB00010B14FF0FF30BEE7D74A12681179D64AEB
:103CC0005268107804AB0122FDF75EFB10B14FF093
:103CD000FF30B0E70C208DF81000CF4A1268117940
:103CE000CD4A5268107804AB0122FDF74DFB10B1AC
:103CF0004FF0FF309FE70F20FCF772FFC648806A45
:103D0000407A8DF81000C44A12689178C24A52680D
:103D1000107804AB0122FDF737FB10B14FF0FF30F4
:103D200089E7BD48806A007A8DF81000BA4A1268A7
:103D30005178B94A5268107804AB0122FDF724FB90
:103D400010B14FF0FF3076E7B9F1000F07D0B2485D
:103D5000806A807A40F0E0008DF8100004E0AE4800
:103D6000806A807A8DF81000AB4A12689179AA4A6D
:103D70005268107804AB0122FDF706FB10B14FF03A
:103D8000FF3058E7B9F1000F07D0A348806AC07A26
:103D900040F0E0008DF8100003E0A048C07A8DF8F4
:103DA00010009D4A1268D1799B4A5268107804AB82
:103DB0000122FDF7E9FA10B14FF0FF303BE7B9F10E
:103DC000000F02D0C820FCF70BFF40208DF8100038
:103DD000914A12681179904A5268107804AB012216
:103DE000FDF7D2FA10B14FF0FF3024E778208DF8BC
:103DF0001000894A12685179874A5268107804ABDA
:103E00000122FDF7C1FA10B14FF0FF3013E78349EB
:103E10008889FCF7E5FE00208DF810007E4A1268C4
:103E200051797D4A5268107804AB0122FDF7ACFA53
:103E300010B14FF0FF30FEE6774A1268917A764A69
:103E40005268107804AB0222FDF764FA10B14FF00B
:103E5000FF30F0E69DF811009DF8101040EA012BAC
:103E60000C209BFBF0F0C6B20020A86068602860C0
:103E7000A06060602060824665E0674A1268D17A7F
:103E8000654A5268107804AB0C22FDF743FA10B172
:103E90004FF0FF30CFE69DF811009DF8101040EA7A
:103EA000012000B2ADF808009DF813009DF8121033
:103EB00040EA012000B2ADF80A009DF815009DF817
:103EC000141040EA012000B2ADF80C00BDF9081052
:103ED000206808442060BDF90A10606808446060EA
:103EE000BDF90C10A0680844A0609DF817009DF86B
:103EF000161040EA012000B2ADF800009DF819004C
:103F00009DF8181040EA012000B2ADF802009DF8BB
:103F10001B009DF81A1040EA012000B2ADF8040021
:103F2000BDF90010286808442860BDF902106868CF
:103F300008446860BDF90410A8680844A8600AF144
:103F4000010000F0FF0AB24597DB3448D0F800C00A
:103F50002868C117090441EA10410704624600239A
:103F60003846FCF736F932460023CDE90201FCF76A
:103F700030F928602948D0F800C06868C1170904E2
:103F800041EA10410704624600233846FCF721F954
:103F900032460023CDE90201FCF71BF968601F4897
:103FA000D0F800C0A868C117090441EA104107040D
:103FB000624600233846FCF70CF932460023CDE96F
:103FC0000201FCF706F9A8601448D0F804C0216883
:103FD000C817000440EA11480F046246002338461F
:103FE0004146FCF7F6F832460023CDE90201FCF722
:103FF000F0F820600948D0F804C06068C1170904CF
:1040000041EA10410704624600233846FCF7E1F814
:104010003246002304E0000040000020E06B00086E
:10402000CDE90201FCF7D5F860601148D0F804C072
:10403000A068C117090441EA104107046246002341
:104040003846FCF7C6F832460023CDE90201FCF7FA
:10405000C0F8A060A068002804DDA068A0F580304A
:10406000A06003E0A06800F58030A0600020E2E5D9
:10407000E06B00082DE9FC5F0746884600263F49B3
:104080004968087801AB03220D21FDF743F910B10F
:104090000720BDE8FC9F9DF8040000F01F008DF88C
:1040A00004009DF8050000F01F008DF805009DF844
:1040B000060000F01F008DF80600002459E057F8B4
:1040C000240058F82410A0EB010BBBF1000F01DB1A
:1040D000594601E0CBF10001084602F021FB4FF008
:1040E0008F41009002F0EAF9824601A8005D78B3A2
:1040F0002349086802F02CFB83465946214802F008
:10410000DDF9814604E02049484602F069FB81461A
:1041100001A8005D401EC0B201A908550028F2D1D7
:104120004946504602F0CAF983464FF07E5102F0EC
:1041300055FC054600BF25F00040834610488169C4
:10414000584602F019FC13D20120A04006430FE0AC
:10415000FFE70B480169504602F00EFB05D3084803
:104160004169504602F008FC02D20120A0400643FB
:10417000641C032CA3DB30468BE7000040000020CA
:10418000E06B000800B04C4554E3853F10B5044691
:10419000204600F00FF80346E01C00F00BF843EA5D
:1041A000C00083B2A01D00F005F843EA801083B27E
:1041B000184610BD014691F90020002A01DD0020BB
:1041C0001EE091F90020002A01DA042018E091F99C
:1041D0000120002A01DD012012E091F90120002ACE
:1041E00001DA05200CE091F90220002A01DD02200D
:1041F00006E091F90220002A01DA062000E00720FB
:1042000070470000FCF774FE8E4A8F498F4800F01B
:1042100083F98F498C48006802F0AEFB05D38D49C5
:104220008948006802F0A8FA13D211E04FF4004167
:104230008948FCF737FE4FF4FA70FCF7D1FC4FF4D5
:1042400000418548FCF72CFE4FF4FA70FCF7C8FCDF
:10425000ECE7FDF7FDFB6420FCF7C2FCF1E07F48D2
:10426000FDF724FC18B900207D49088005E07C4852
:104270000088401C00B27A4908807948B0F90000F3
:10428000B0F5967F07DB0020754908804FF4FF608A
:104290007249088048807148008840F2E471884281
:1042A0000FDA7048B0F9000091FBF0F06B49098813
:1042B00040F2E472511A91FBF0F000B26A490880B2
:1042C0001AE06648008840F60C01884211DD654816
:1042D000B0F9000040F2F47191FBF0F05F490988F9
:1042E00040F60C02511A91FBF0F000B25E490880D2
:1042F00002E000205C4908805848408840F2E471A0
:1043000088420EDA5948B0F9000091FBF0F15348A9
:104310004088A0F2E47090FBF1F000B254490880AC
:1043200019E04E48408840F60C01884210DD4F48A5
:10433000B0F9000040F2F47191FBF0F14748408879
:10434000A0F60C0090FBF1F000B24949088002E0B1
:104350000020474908803B4A3B493C4800F0DCF8D4
:10436000444A45494548FCF75DFE454A45494648AB
:10437000FCF730FE0220FDF791FA44490880032043
:10438000FDF78CFA4249088042492F48006802F044
:10439000F3FA05D340492C48006802F0EDF908D241
:1043A00000210846FDF750F900210120FDF74CF9E6
:1043B00043E03248B0F9001023480068FEF780FD62
:1043C0000446214802683248B0F900102F48B0F97D
:1043D000000001F025FA04442648B0F9000001F07D
:1043E00001FA201A00B22D4908802448B0F90010C3
:1043F00015480068FEF764FD044613480268244827
:10440000B0F900102148B0F9000001F009FA0444A5
:104410001848B0F9000001F0E5F9204400B2204945
:1044200008801E48B0F900100020FDF70DF91C4867
:10443000B0F900100120FDF707F940F2EE20FCF77B
:1044400001FC0CE708000020040000200000002010
:104450000000F0410000F0C10008014024000020ED
:1044600028000020200000209200002022000020D0
:1044700090000020100000200E0000200C00002002
:104480001600002014000020120000201800002058
:104490001A0000200000A0420000A0C21C00002062
:1044A0001E0000207047000070B50446002624F06E
:1044B0000104184890F8240008B1002070BD154888
:1044C000807A10B94FF0FF30F8E71248057C807A07
:1044D0002040104908740846007CA04202D04FF0EA
:1044E000FF3600E0002614B90A48007D18B101200B
:1044F00001F00AF902E0002001F006F93CB100F0F9
:1045000083FC20B1034805744FF0FF30D6E73046F6
:10451000D4E70000400000202DE9F04F99B0044698
:104520000D4616464FF07E574FF000084FF0000939
:104530004FF0000A12A813A918AB0EAACDE900107B
:1045400014A916A8FEF79AFE18B1012019B0BDE80B
:10455000F08FBDF84C0000F4807000287ED00E98DB
:1045600002F0DEF883464FF09D4101F0A7FF0746B9
:104570000F9802F0D5F883464FF09D4101F09EFF61
:104580008046109802F0CCF883464FF09D4101F030
:1045900095FF8146119802F0C3F883464FF09D4184
:1045A00001F08CFF824639464FF0804002F018F946
:1045B0004946059002F014F9414607904FF04040FB
:1045C00002F00EF95146059002F00AF9069007999B
:1045D00001F006FF834601F0D7FECDE90801FEF7A2
:1045E00067F94FF06632544BCDE90A0101F0F2FB56
:1045F000CDE90C0101F0B4F9206049464FF080404C
:1046000002F0EEF84946029002F0EAF841460490C2
:104610004FF0404002F0E4F84146029002F0E0F82A
:104620000390049902F0DAF983464FF07E5101F0CD
:10463000D7FE059001F0A8FECDE9080139464FF0FC
:10464000804002F0CDF84146039002F0C9F8494697
:1046500004904FF0804002F0C3F800E068E051465B
:10466000039002F0BDF88346049901F0B9FE05906D
:1046700001F08AFECDE90601DDE90823FEF760FBC3
:104680004FF066322C4BCDE90A0101F0A3FBCDE9D6
:104690000C0101F065F928605146504602F0A0F87F
:1046A00049460490484602F09BF841460390404634
:1046B00002F096F839460190384602F091F80090E1
:1046C000019901F08DFE0290039902F087F983466B
:1046D000049902F083F9059001F056FECDE9080136
:1046E0005146384602F07CF849460490404602F0B4
:1046F00077F80390049901F073FE4FF08041059024
:1047000002F06EF8834601F03FFECDE90601DDE9D7
:104710000823FEF715FB4FF06632074BCDE90A017F
:1047200001F058FBCDE90C0101F01AF9306001E00D
:1047300002200BE7002009E766A64C4070B5002474
:10474000FCF7C2FC00F0FCF8002840D1782000F013
:1047500007FFC4B20CB1012070BD7820FFF7A4FEA2
:10476000C4B20CB10220F7E7642000F0ABFEC4B283
:104770000CB10320F0E7FEF775FDC4B20CB10420C4
:10478000EAE71548FFF702FD0546FEF7C5FFC4B28C
:104790000CB10520E0E740F27310FEF70BFCC4B249
:1047A0000CB10620D8E76420FEF7E6FEC4B20CB1D7
:1047B0000720D1E700F07CFF04460CB10820CBE7CE
:1047C000012000F07BFDC4B21CB10920C4E70A201F
:1047D000C2E70020C0E700006C000020014611483D
:1047E000407A30B1012807D0022808D003280CD124
:1047F00008E0022008700BE00420087008E00820A0
:10480000087005E01020087002E04FF0FF3070479C
:1048100000BF0448C07C18B108784006000E08703C
:104820000020F4E74000002001461348407A30B1F0
:10483000012808D002280AD0032810D10BE04FF439
:10484000804008800EE041F69C7008800AE04FF43A
:104850008050088006E04FF40060088002E04FF0CE
:10486000FF30704700BF0448C07C10B1088840107A
:1048700008800020F5E700004000002001460248C3
:10488000007C0870002070474000002001460F485F
:10489000007A30B1012807D0022809D003280FD1AF
:1048A0000AE0FA2008800EE04FF4FA7008800AE06F
:1048B0004FF47A70088006E04FF4FA60088002E056
:1048C0000020088000BF00BF00207047400000208B
:1048D00001461248C07A082817D2DFE800F0170412
:1048E000070A0D101318BC20088013E0622008800E
:1048F00010E02A2008800DE0142008800AE00A2039
:10490000088007E00520088004E000BF00BF002009
:10491000088000BF00BF002070470000400000205A
:104920000146064890F8240010B14FF0FF30704760
:104930000248C08908800020F9E7000040000020FC
:104940001CB580208DF80000654A1268917C644A8D
:10495000526810786B460122FCF716FD10B14FF03B
:10496000FF301CBD6420FCF73BF900208DF80000EF
:104970005B4A1268917C5A4A526810786B46012251
:10498000FCF702FD10B14FF0FF30EAE7544A12681D
:10499000917D534A526810786B460622FCF7BAFCA8
:1049A00010B14FF0FF30DCE79DF80500C007400F65
:1049B0009DF8031001F0010140EA41009DF801104B
:1049C00001F0010140EA010494B1012C03D101215D
:1049D0004348C17431E0022C03D100214048C17426
:1049E0002BE021463FA0FBF719FC4FF0FF30B8E762
:1049F0003B4A1268D1783A4A526810786B460122D5
:104A0000FCF788FC10B14FF0FF30AAE79DF80000DA
:104A100000F00F042CB93D48FBF700FC4FF0FF30CD
:104A20009FE7042C06D13AA0FBF7F8FB01212C48A4
:104A3000C17402E000212A48C174FF212848817214
:104A4000FF2027490872FF2125484172C1724FF6A5
:104A5000FF71C181FF21017481740121017380F80C
:104A60002210002180F82310417501751630016075
:104A700041608160163880F8241080F82510C184C8
:104A80004FF4FA6000F062FC10B14FF0FF3068E7BD
:104A9000022000F02BFB10B14FF0FF3061E72A201D
:104AA00000F0CEFC10B14FF0FF305AE7322000F09A
:104AB00009FD10B14FF0FF3053E70020FFF7F4FC81
:104AC00010B14FF0FF304CE7002000F051FB10B167
:104AD0004FF0FF3045E7002000F042FD002040E7A6
:104AE00040000020556E737570706F72746564209D
:104AF000736F6674776172652070726F647563742A
:104B0000207265762025642E0A00000000790008D6
:104B100048616C662073656E73697469766974792F
:104B2000207061727420666F756E642E0A0000003A
:104B30002DE9F04385B005460E4690469946294832
:104B400090F8250020B14FF0FF3005B0BDE8F083AC
:104B500016B94FF0FF30F8E7002423E0281B102897
:104B600001DD102000E0281B87B2321939462046AB
:104B700000F05EFD10B14FF0FF30E6E701AA3946C4
:104B8000204600F001F910B14FF0FF30DDE7301999
:104B90003A4601A9FBF726FC10B16FF00100D4E7FB
:104BA000E01984B2AC42D9DB4FEA28208DF800002E
:104BB00008F0FF008DF801000A4A1268917E094A48
:104BC000526810786B460222FCF7DEFB10B14FF002
:104BD000FF30BAE70121034880F82510A0F826909D
:104BE0000020B2E74000002038B50446282C02DD42
:104BF0004FF0FF3038BDDCB9002000F0EBFB0020A7
:104C00008DF8000007208DF801002E4A1268917C73
:104C10002C4A526810786B460222FCF7B5FB10B1A3
:104C20004FF0FF30E6E70021264801750020E1E75C
:104C3000012000F0CFFB20208DF80000012C06D1D0
:104C400000208DF80100052000F0FAFB17E0052C8C
:104C500006DC01208DF80100052000F0F1FB0EE0DC
:104C6000142C06DC02208DF801000A2000F0E8FB7D
:104C700005E003208DF80100142000F0E1FB9DF811
:104C80000100072101EB8010C0B28DF801000D4A30
:104C90001268917C0B4A526810786B460222FCF72E
:104CA00073FB10B14FF0FF30A4E708210548817273
:104CB00000210173012101750020FFF7F5FB0020A1
:104CC00098E7000040000020F8B504460F4616465D
:104CD0002C4890F8240010B94FF0FF30F8BD294857
:104CE000807A10B94FF0FF30F8E7264A1268917ABF
:104CF000244A526810786B460222FCF70BFB10B175
:104D00004FF0FF30EAE79DF801009DF8001040EAFF
:104D10000125A54203DA00203070401EDEE7194865
:104D200040684088B5EB600F17DD164A1268517C69
:104D3000144A526810786B460122FCF7EBFA10B166
:104D40004FF0FF30CAE79DF8000000F0100020B1DE
:104D500000F05AF86FF00100C0E7E2B2094B1B689F
:104D6000D97A084B5B6818783B46FCF7D3FA10B148
:104D70004FF0FF30B2E795FBF4F0401E307000209A
:104D8000ACE7000040000020F8B504460D4616468A
:104D900016B94FF0FF30F8BD1A48807A10B94FF0BD
:104DA000FF30F8E720128DF80000E0B28DF8010026
:104DB0009DF801002844134949684989884202DD69
:104DC0004FF0FF30E7E70F4A1268117E0D4A526834
:104DD00010786B460222FCF7D7FA10B14FF0FF3083
:104DE000D9E7EAB2074B1B68597D064B5B68187818
:104DF0003346FCF78FFA10B14FF0FF30CBE70020BD
:104E0000C9E700004000002008B57048807A10B95A
:104E10004FF0FF3008BD002000906C4A1268D17B33
:104E20006A4A526810786B460122FCF7ADFA10B15D
:104E30004FF0FF30EEE7654A12685179634A5268D5
:104E400010786B460122FCF79FFA10B14FF0FF304B
:104E5000E0E75E4A126811795C4A526810786B4646
:104E60000122FCF791FA10B14FF0FF30D2E757481A
:104E700090F82400002853D00C200090534A126868
:104E80001179524A526810786B460122FCF77CFA7D
:104E900010B14FF0FF30BDE73220FBF7A1FEC0207C
:104EA00000904A48807A00F0010020B19DF800008F
:104EB00040F020000090454A12681179434A526838
:104EC00010786B460122FCF75FFA10B14FF0FF300B
:104ED000A0E73E48407C10B10220009001E0002095
:104EE00000903A4A1268D17B384A526810786B4673
:104EF0000122FCF749FA10B14FF0FF308AE7002099
:104F00000090324A12685179304A526810786B46E4
:104F10000122FCF739FA002855D04FF0FF3079E72D
:104F200004200090294A12681179284A52681078A2
:104F30006B460122FCF728FA10B14FF0FF3069E709
:104F40002248807C20B92148807A00F0010010B905
:104F50004020009001E0602000901C4A1268117906
:104F60001A4A526810786B460122FCF70DFA10B10C
:104F70004FF0FF304EE73220FBF732FE1348407C03
:104F800010B10120009001E0002000900F4A12684B
:104F9000D17B0E4A526810786B460122FCF7F4F977
:104FA00010B14FF0FF3035E7084A12685179074ACF
:104FB00052681078054B10330122FCF7E5F910B167
:104FC0004FF0FF3026E7002024E7000040000020DB
:104FD0002DE9F04F8DB083460F4602200C904248D9
:104FE00090F8240020B1002000F068F9012600E0CC
:104FF000002603A8FFF74AFC05A8FFF7EFFB01A86E
:10500000FFF766FC02A8FFF78BFC374890F80AA070
:1050100004A8FFF733FC002407E000223946584675
:10502000FEF7F0FD00B902E0641C022CF5DB00BFC6
:10503000022C01D1002528E0002407E0012206A966
:1050400009A8FEF7DFFD00B902E0641C022CF5DBC5
:1050500000BF022C01D1002517E006A93846FDF754
:10506000D1FB00F0FF0809A95846FFF703F800F04C
:10507000FF090025B9F1000F01D145F00105B8F194
:10508000000F01D145F0020500BFFF20164908724C
:10509000FF2115484172C1724FF6FF71C181FF2196
:1050A0008172017401210173BDF80C0000F04EF90A
:1050B0009DF8140000F01AF8BDF8040000F0C0F9E3
:1050C000BDF8080000F0FEF9504600F049FA9DF8DE
:1050D0001000FFF7E9F916B1012000F0EFF82846BB
:1050E0000DB0BDE8F08F00004000002038B5044648
:1050F0001E48807A10B94FF0FF3038BD022C06D020
:10510000042C07D0082C08D0102C0CD108E000206B
:1051100000900BE00820009008E01020009005E0CF
:105120001820009002E04FF0FF30E6E700BF0F4884
:10513000407A9DF80010B0EBE10F01D10020DCE7D0
:105140000A4A1268D179094A526810786B460122DE
:10515000FCF71AF910B14FF0FF30CEE79DF80000D0
:10516000C110024841720020C7E700004000002043
:1051700038B504465048807CA04201D1002038BD9B
:10518000002C46D04C4A126811794B4A526810786C
:105190006B460122FCF7BEF810B14FF0FF30EEE78E
:1051A0009DF8000020F020000090434A1268117919
:1051B000414A526810786B460122FCF7E5F810B1BD
:1051C0004FF0FF30DBE70320FBF70AFD02200090E1
:1051D000394890F8220020B19DF8000040F080008E
:1051E0000090354890F8230020B19DF8000040F071
:1051F00030000090304A1268117D2F4A52681078B2
:105200006B460122FCF7C0F8002851D04FF0FF3068
:10521000B5E7294A12681179274A526810786B4617
:105220000122FCF777F810B14FF0FF30A7E72248D2
:10523000807A00F0010028B19DF8000040F02000C5
:10524000009004E09DF8000020F0200000901A4A31
:1052500012681179184A526810786B460122FCF7DF
:1052600093F810B14FF0FF3089E70320FBF7B8FC4B
:10527000114890F8220010B18020009001E0002039
:1052800000900D4890F8230020B19DF8000040F0F8
:1052900030000090084A1268117D074A5268107861
:1052A0006B460122FCF770F810B14FF0FF3066E753
:1052B00001488474002062E74000002038B50446AD
:1052C000214890F82400A04201D1002038BD24B329
:1052D0001D4890F8250010B94FF0FF30F6E7002088
:1052E00000F012FA0020FFF743FF1749C88C00F0C6
:1052F000E9F8002000901449496808786B460122BB
:105300002321FCF741F801210F4880F824100120E7
:1053100000F0FAF9FFF778FD13E0002000F0F4F94F
:105320000948007C00900849496808786B460122CA
:105330002321FCF729F80021034880F82410FFF707
:1053400063FD0020C2E700004000002038B504469D
:105350001F48807A10B94FF0FF3038BDFA2C09D0C1
:10536000B4F5FA7F09D0B4F57A7F09D0B4F5FA6FB5
:105370000CD108E0002000900BE00820009008E02D
:105380001020009005E01820009002E04FF0FF3060
:10539000E3E700BF0E48007A9DF80010B0EBE10F84
:1053A00001D10020D9E70A4A12689179084A526867
:1053B00010786B460122FBF7E7FF10B14FF0FF308A
:1053C000CBE79DF80000C010014908720020C4E737
:1053D0004000002038B50446184890F82300A04249
:1053E00001D1002038BD14B13020009001E0002030
:1053F00000901248807C20B19DF8000040F002002F
:1054000000900E4890F8220020B19DF8000040F076
:1054100080000090094A1268117D084A526810788D
:105420006B460122FBF7B0FF10B14FF0FF30D9E718
:10543000024880F823400020D4E70000400000200C
:1054400038B504461E48807A10B94FF0FF3038BD99
:10545000BC2C02DB0120009015E0622C02DB022054
:10546000009010E02A2C02DB032000900BE0142CAB
:1054700002DB0420009006E00A2C02DB05200090ED
:1054800001E0062000900E48C07A9DF80010884286
:1054900001D10020DBE70A4A12689178084A526875
:1054A00010786B460122FBF76FFF10B14FF0FF3011
:1054B000CDE79DF800100248C1720020C7E7000048
:1054C0004000002038B504462448807A10B94FF0D7
:1054D000FF3038BD214890F8240010B14FF0FF3064
:1054E000F7E71E48007D50B134B1282C04DCE0B24F
:1054F000FFF77AFB0020ECE70020FFF775FB042C98
:1055000001DA042404E0B4F57A7F01DD4FF47A7403
:105510004FF47A7090FBF4F0401EC0B200900F4A36
:10552000126851780D4A526810786B460122FBF7D9
:105530002BFF10B14FF0FF30CBE79DF80000401C6F
:105540004FF47A7191FBF0F081B20448C1810146B9
:10555000C9894810FFF774FF0020BAE74000002017
:1055600038B5044604F0700010B10120009005E049
:1055700014B10020009001E0402000902B4A1268F6
:10558000917C2A4A526810786B460122FBF7FCFE98
:1055900020B1002125488172481E38BD9DF80000C9
:1055A00020F04001214801730020009004F04000E9
:1055B00020B99DF8000040F00400009004F02000A5
:1055C00020B99DF8000040F00200009004F01000A7
:1055D00020B99DF8000040F00100009004F00800A0
:1055E00020B99DF8000040F0380000900F4A126882
:1055F000D17C0E4A526810786B460122FBF7C4FE3C
:1056000020B1002109488172481EC6E724B1082C48
:1056100002D00020FFF7DEFE0448847200210175ED
:105620003220FBF7DDFA0020B7E700004000002041
:10563000F8B504460D46164616B94FF0FF30F8BDD2
:105640001A48807A10B94FF0FF30F8E720128DF831
:105650000000E0B28DF801009DF8010028441349D4
:1056600049684989884202DD4FF0FF30E7E70F4A79
:105670001268117E0D4A526810786B460222FBF7C1
:1056800083FE10B14FF0FF30D9E7EAB2074B1B6839
:10569000597D064B5B6818783346FBF775FE10B1F1
:1056A0004FF0FF30CBE70020C9E7000040000020AA
:1056B00010B586B0694603A8FFF78AFC0446032CA0
:1056C00014D10B4803900B4804900B48059003A895
:1056D000FDF78AFF094800900948019009480290A7
:1056E0006846FDF7B1FE002006B010BD0120FBE7C3
:1056F0001684D9FF13EB1A00664E020000006B02FD
:10570000004070FC008006F838B50446214890F847
:105710002400C0B114B10220009001E000200090EC
:105720001C4A1268D17B1B4A526810786B460122D2
:10573000FBF72AFE10B14FF0FF3038BD9DF8001086
:105740001448417423E01348807A10B94FF0FF30B9
:10575000F3E724B10F48407C08B10020EDE714B115
:105760000120009001E0002000900A4A1268D17BDD
:10577000084A526810786B460122FBF705FE10B10B
:105780004FF0FF30D9E79DF8001002484174002027
:10579000D3E70000400000202DE9F04106460F4607
:1057A00000F022FC041E0D4618BF0120284320F003
:1057B0000040C0F17F6000F1E040C00F0ED0301C0F
:1057C00018BF0120384320F00040C0F17F6000F195
:1057D000E040C00F04BF0120FAF7B8FE204629467A
:1057E000BDE8F0812DE9F0410446204600F098FF25
:1057F000064686F0004808480168404600F0F0FF81
:10580000074600F051FF05B204480088284405B25D
:105810002846BDE8F08100008C00002090000020A8
:105820002DE9FF4704468946924604EB09010846E4
:1058300000F076FF3D4908603D48006800F0A4FD97
:1058400007464FF066323B4B00F0C4FA054600F0C5
:1058500087F8374908603548006800F095FD05462F
:105860004FF03332344B00F0B5FA074688463048E3
:10587000006800F089FD3A464346CDE9000100F09A
:10588000A1F8CDE9020100F06BF82949086008464B
:1058900001682A48006800F0A3FD284908602848EC
:1058A000B0F9000000F03CFF054624480168284696
:1058B00000F096FD2149086022492048006801F067
:1058C0005BF802D21F481D4908601F491B48006849
:1058D00000F052FF02D21C48184908601B480168BA
:1058E0001648006800F07CFF05461948016810481A
:1058F000006800F075FF0646294600F071FD154965
:1059000008601549504600F037FF04D3134950464C
:1059100001F032F802D20020084908600D48006802
:1059200000F0C2FE00B204B0BDE8F087A000002085
:10593000A40000206666E63F3333D33F9800002082
:105940009200002000401C4600401CC68800002039
:10595000840000209C000020000020C200002042A3
:1059600021F00042A2F16052B2F5801F01F0004325
:1059700028BFD2F17F6C0BD95FEA001C43EAC20258
:1059800042EB507018BF704728BF20F001007047ED
:10599000B2F5801FBCBF184670474FEA410C1CF59A
:1059A000001F02D2084600F0E2BF70B500F0BCFA5A
:1059B00000000089FFF7F6BF4FF00040A0F580001F
:1059C0007047000010B591EA030F48BF83F0004311
:1059D00000F1F883841A71EB030C05D2121943EB22
:1059E0000C03001B61EB0C01DFF824E14FEA1154BA
:1059F000A4EB135C1EEA430F18BF9EEA445F73D00A
:105A000023EA0E03DCF1200E21EA045143F4801353
:105A100032D322FA0CFE10EB0E0023FA0CFE41EBFF
:105A20000E01CCF1200E03FA0EFE10EB0E0051F128
:105A30000001B1F5801FCCF1200E32D201EB0451F0
:105A400012FA0EF2BDE8104058BF7047401C38BF34
:105A50005FEA420218BF7047002814BF20F001001F
:105A600041F100014FEA410313F5001F38BF7047B1
:105A7000A1F1C04100F0A6BA012A43EB0302ACF148
:105A8000200CDCF11F0E32BF4FF0000E23FA0CF396
:105A900010EB030041EB0451B4EB115FD0D0A1EB4C
:105AA000045101F5801149085FEA300001EB04510F
:105AB0000ED350F1000038BF12FA0EFE08D1BDE837
:105AC0001040C9E7401C38BF5FEA4202CAD1C3E7B1
:105AD000BDE810404FEA410313F5001F38BF70477F
