:020000040800F2
:1000000038150020A9010008B1010008B30100085B
:10001000B5010008B7010008B901000800000000A0
:10002000000000000000000000000000BB0100080C
:10003000BD01000800000000BF010008C931000830
:10004000C3010008C3010008C3010008C301000880
:10005000C3010008C3010008C3010008C301000870
:10006000C3010008151C00081F1C0008C30100087C
:10007000C3010008C3010008C3010008C301000850
:10008000C3010008C3010008C3010008C301000840
:10009000C3010008C3010008C3010008C301000830
:1000A000C3010008C3010008C3010008C301000820
:1000B000C3010008C3010008C3010008C301000810
:1000C000C3010008C3010008C3010008C301000800
:1000D000C3010008C3010008C3010008C3010008F0
:1000E000011C0008C3010008C301000800F002F869
:1000F00000F04AF80AA090E8000C82448344AAF178
:100100000107DA4501D100F03FF8AFF2090EBAE875
:100110000F0013F0010F18BFFB1A43F0010318473B
:10012000B88A0000D88A0000103A24BF78C878C185
:10013000FAD8520724BF30C830C144BF04680C60ED
:10014000704700000023002400250026103A28BF35
:1001500078C1FBD8520728BF30C148BF0B60704739
:10016000662905F0F886642900F070800020704749
:100170001FB500F0A7FC04000020002105F022FAC2
:10018000E0601FBD10B510BD00F0C8FD1146FFF7BF
:10019000EFFF04F0C0F900F0E6FD03B4FFF7F2FF53
:1001A00003BC03F068F8000009488047094800478D
:1001B000FEE7FEE7FEE7FEE7FEE7FEE7FEE7FEE717
:1001C000FEE7FEE704480549054A064B7047000074
:1001D000E1310008ED000008380500203815002046
:1001E000380D0020380D0020704710B54C1084EAFF
:1001F000530404D54042C1F1000138BF491E1B42DF
:1002000004D55242C3F1000338BF5B1E00F02EF943
:1002100014F0804F04D04042C1F1000138BF491EA4
:1002200014F0004F04D05242C3F1000338BF5B1EEC
:1002300010BD00000FB4044910B503AA029800F0E5
:100240000DFC10BC5DF814FB540000202DE9F041BA
:100250000646002410687529314616A510D0AFF364
:100260000080002802DA404213A507E031688A07BF
:1002700001D512A502E0490704D511A5012401E02A
:10028000AFF3008000210A2206F1240709E0B0FB49
:10029000F2FCB0FBF2F302FB1C003030785418463D
:1002A000491C0028F3D123462A463046BDE8F041D8
:1002B00000F053B9000000002D0000002B000000EA
:1002C000200000002DE9F05F894604464FF0000A47
:1002D000DFF824B1FB44C0F820A02046E16888473D
:1002E00000287DD0252806D0D4E901219047206A36
:1002F000401C2062F1E700255F462046E168884700
:100300002028064607DB312E05D2B81910F8200C3C
:1003100008B10543F1E7A80701D525F00405C4F8A5
:100320001CA00027C4F818A02A2E09D0304602F0DD
:100330009BFF38B304EB8708303EC8F8186019E01B
:1003400059F8041B204604EB87029161E168884755
:10035000012F064618D1E069002820DA25F0200593
:100360001DE0D8F8180000EB800006EB40003038A4
:10037000C8F818002046E1688847064602F074FF76
:100380000028EED1012F0AD02E2E08D12046E16898
:1003900088477F1C0646022F45F02005C4DBA06974
:1003A000002803DA404245F00105A061E80701D0CA
:1003B00025F01005A6B1A6F14100192802D8203673
:1003C00045F400654A463146204625604D46FFF714
:1003D000C7FE60B1012807D0ED1D25F0070000E041
:1003E00007E000F1080978E705F1040975E73046F0
:1003F0007AE7206ABDE8F09F0888000040EA010320
:1004000010B59B070FD1042A0DD310C808C9121FBD
:100410009C42F8D020BA19BA884201D9012010BDF7
:100420004FF0FF3010BD1AB1D30703D0521C07E0C4
:10043000002010BD10F8013B11F8014B1B1B07D128
:1004400010F8013B11F8014B1B1B01D1921EF1D199
:10045000184610BD02F0FF0343EA032242EA0242BB
:1004600000F010BB704770477047704753EA020CAA
:1004700000F069802DE9F04B4FF00006002B1FBF04
:10048000B3FA83F503FA05F424FA05F65E4012BFC9
:100490001643B2FA82F502FA05F4C5F120051EBF33
:1004A00022FA05FC44EA0C04203556EA044C4FEAD3
:1004B000144418BF641C4FF000084FF0000990422C
:1004C00071EB030C39D3002919BFB1FA81F701FA96
:1004D00007F6B0FA80F700FA07F6C7F120071EBF4B
:1004E00020FA07FC46EA0C062037B6FBF4FCA7EB23
:1004F0000507103F07F01F0BCBF120060CFA0BFB92
:100500002CFA06F644BFB3460026202FA4BF5E4651
:100510004FF0000B5BEA060C08BF4FF0010B19EB24
:100520000B09ABFB027C48EB0608C01B06FB02CCA8
:100530000BFB03CC71EB0C01C1E70B4602464146B5
:100540004846BDE8F08B13B54FF000004FF00001B6
:10055000AFF30080BDE81C4070472DE9F0470D4621
:1005600099469246044600F124080168880604D59D
:10057000E06921F01001216000E00120A84201DDC6
:10058000471B00E00027A1697A1902EB0900081A4D
:10059000A0612078C00602D42046AFF30080002678
:1005A00008E0D4E901211AF806009047206A401CAF
:1005B000761C20624E45F4DB2078C0060AD5204622
:1005C000AFF3008006E0D4E9012130209047206A93
:1005D000401C2062381EA7F10107F4DC07E0D4E9D3
:1005E000012118F805009047206A401C2062281E4F
:1005F000A5F10105F3DC2046AFF30080207800066A
:1006000002D50220BDE8F0870120FBE770472DE905
:10061000FF4F0C461E464FF0FF378BB0D2E900016A
:10062000DDF860800A908A46C1F30A5505B93D4657
:10063000002108464FF00000BAF1000F00F440001E
:1006400005DA00EB80004FF4400101EA50004FEA68
:100650009059B9F1010F00DDB9460A9850EA4A00F5
:100660000ED044F61050A5F2FF3545432F14B8F1D3
:10067000000F1ED07542291E1EDDC9F100021CE0CC
:10068000B8F1010F4FF0000001D0302103E0F24338
:1006900005E02154401CB042FBDB30460022002123
:1006A00021540B99C1F80880C1E900200FB0BDE8C2
:1006B000F08FBD1B6D1CDEE74A4600DA694206A8D2
:1006C00000F08AFA06AB93E8070003AB83E8070063
:1006D00050460A9900F090FB8DE80700A0F5005005
:1006E0001F3800900398002D0ADD42F21F014A4690
:1006F0000844002303A90390684600F0F9FD09E0CF
:10070000A0F500504A461F38002303A9039068460D
:1007100000F003FE8DE807000004000C03D04FF04A
:10072000FF30410800E01046B8F1000F03D000226E
:10073000009215461EE0751E05D400F0C7F9303250
:1007400062556D1EF9D5B3460122084302D000223E
:100750007F1C04E02078302801D100227F1E002A6F
:10076000099784D01DE0112D07DA00F0AFF930327F
:1007700062556D1C50EA0102F5D1084302D0009881
:10078000C8B10EE00021681E05E0235C625C635482
:100790002254401E491C8142F7DBAB46A81B401E79
:1007A0000990002004F80B000B98099AC0F8088003
:1007B000C0E9002B7AE711264FF0000857E72DE932
:1007C000F04F88460446D21D22F0070191B0D1E9CE
:1007D0000001CDE90A0102F033FD02460B98C00F7B
:1007E00001D02D2007E02068810701D52B2002E0F1
:1007F000202101EAC000032A099001D0072A05DB65
:1008000003464146204600F0A7F90BE12078800618
:1008100001D5E06900E00620B8F1650F814606D0F9
:10082000B8F1660F18D0B8F1670F70D131E0002031
:10083000B9F1110F009001DB112301E009F101036F
:100840000AAA01A90CA8FFF7E2FEDDE90C70002658
:1008500009F10105834647E001204B4600904FF027
:1008600000470AAA01A90CA8FFF7D1FEDDE90DB0E7
:100870000C995D46002610B909F101000D18B9EB7D
:10088000050003D4C0F1FF3609F10105A5EB09000D
:100890002BE0B9F1010F01DA4FF001090020B9F1A5
:1008A000110F0090484601DD112300E003460AAA1B
:1008B00001A90CA8FFF7ABFEDDE90C704D46002640
:1008C0008346207800070AD4AB4500DA5D4601A8CC
:1008D000012D04DD411911F8011C302907D04F45C5
:1008E00002DA17F1040F04DA012082460FE06D1ED0
:1008F000EEE7002F02DCED1B3E4403E0781CA8422B
:1009000000DD7D1CB81B00F1010A4FF00047207884
:10091000000703D4AA4501DB4FF0FF3A0021B7F1ED
:10092000004F0DF143088DF8431024D002202B23F3
:10093000002F01DA7F422D230A21021EA0F10100BF
:1009400000DC5FB197FBF1FC97FBF1F201FB1C7C33
:1009500017460CF1300C08F801CDEEE7A8F10100C4
:1009600003702188090501D5452100E06521A0F12A
:10097000010800F8011C09980FA9A1EB0807FF1D49
:1009800000B10120411901EBEA70A1693844081A4D
:10099000401EA0612078C00602D42046AFF300803C
:1009A000099828B1D4E901219047206A401C2062AF
:1009B0002078C00622D52046AFF300801EE0002E2E
:1009C00004DBB34502DD01A8805D00E03020D4E9FE
:1009D00001219047206A401C2062761CAAF1010088
:1009E0005FEA000A0AD100F06DF8C0680168405C57
:1009F000D4E901219047206A401C2062281EA5F1FD
:100A00000105DCDC07E0D4E9012118F8010B90476F
:100A1000206A401C2062381EA7F10107F3DC204643
:100A2000AFF30080032011B041E6000001694A1CC9
:100A300002610878704700B58FB0CDE9013100211F
:100A4000059105497944CDE9031011466846FFF741
:100A500039FC0FB000BD0000E5FFFFFF074B70B58C
:100A60000D467B44FFF7E7FF0446284600F026F9D1
:100A700010B14FF0FF3070BD204670BDFB3200005A
:100A80004FF000020429C0F0128010F0030C00F0B7
:100A90001B81CCF1040CBCF1020F18BF00F8012B34
:100AA000A8BF20F8022BA1EB0C0100F00DB95FEA02
:100AB000C17C24BF00F8012B00F8012B48BF00F8CF
:100AC000012B704700487047F804002030B5B0F1A2
:100AD0000A024FEA900E71F100034EEA817EB0EBFC
:100AE0000E0061EB91014FEA101E4EEA017E10EB01
:100AF0000E0041EB11114FEA102E4EEA016E10EB81
:100B00000E0041EB11214FEA104E4EEA014E10EB60
:100B10000E0041EB1141401841F100014FEAD000B5
:100B200040EA41704FEAD10110EB80054FEA8104A1
:100B300044EA907444EB01046D1944EB0404521B25
:100B4000A3414FF0000348BF0A3200D530BD401C1E
:100B500041F1000130BD00002DE9F0411F4604467F
:100B600003260168072A01F4006004DB08B116A51A
:100B700005E016A503E008B115A500E015A521F0D4
:100B800010002060A069C01EA0610FB1401EA061CE
:100B90002046AFF300804FB1D4E901213846904799
:100BA000206A401C2062C01C206206E0206AFAE72E
:100BB000D4E9012115F8010B9047761EF8D22046A2
:100BC000AFF30080BDE8F0814E414E006E616E00D3
:100BD000494E4600696E66002DE9F047814616468B
:100BE0008AB0354878440DC88DE80D003248784405
:100BF000801C03AC0DC884E80D0041F69B3008440E
:100C0000372190FBF1F290FBF1F5A5F1800501FB96
:100C100012041B3C02D56442012000E00020DFF8F2
:100C200098A080460027FA44AAF1BE0A0EE0E00729
:100C30000AD03246684607EB470101230AEB8101DF
:100C400000F06BFB8DE8070064107F1C002CEED1D8
:100C5000194F7F44AE3F19E0E80715D007EB0410A9
:100C60000DF1180A90E80E008AE80E00C068F04204
:100C700001D1981908903246012306A903A800F073
:100C80004CFB03AB83E807006D10641C002DE3D11F
:100C90004FF0010332466946B8F1000F03A802D0B5
:100CA00000F026FB01E000F038FBC9E90001C9F8BB
:100CB00008200AB0BDE8F087887F0000007B00F0C4
:100CC000800070474FF0000200B5134694469646E8
:100CD000203922BFA0E80C50A0E80C50B1F120014F
:100CE000BFF4F7AF090728BFA0E80C5048BF0CC0FD
:100CF0005DF804EB890028BF40F8042B08BF70475B
:100D000048BF20F8022B11F0804F18BF00F8012BCC
:100D10007047000000487047D80400207546FFF770
:100D2000F9FFAE4605006946534620F007008546A8
:100D300018B020B5FFF746FABDE820404FF0000696
:100D40004FF000074FF000084FF0000B21F00701B3
:100D5000AC46ACE8C009ACE8C009ACE8C009ACE8F6
:100D6000C0098D46704710B50446AFF30080204699
:100D7000BDE81040FFF711BA4FF0013C50F8042BCA
:100D800051F8043B9A4221D1A2EB0C03934313EA9E
:100D9000CC1317D150F8042B51F8043B9A4215D1CB
:100DA000A2EB0C03934313EACC130BD150F8042BA2
:100DB00051F8043B9A4209D1A2EB0C03934313EA86
:100DC000CC13DBD04FF00000704700BFD01A01BA3F
:100DD000B1FA81F101F0180122FA01F0CB40C1F122
:100DE0002001DBB2C0B2C01A2CFA01F3D11A914330
:100DF00011EAC311E6D170475FEA400C08BF91F0D9
:100E0000000F4FEA8C234FEAC12243EA51514FEAC7
:100E10001C5018BF00F5F0404FEA300018BF41F0F9
:100E200000415FEA6C5C00F02980BCF1FF3F08BF25
:100E300040F080407047130C06BF12044FF0100CB6
:100E40004FF0000C130E04BF12020CF1080C130F2C
:100E500004BF12010CF1040C930F04BF92000CF1BB
:100E6000020CD30F04BF52000CF1010C11464FF0DD
:100E70000002A0F11F00A0EB0C00704711F0004F22
:100E800008BF704731F000413FF4D5AF0B0C06BFEF
:100E900009044FF0100C4FF0000C0B0E04BF0902B8
:100EA0000CF1080C0B0F04BF09010CF1040C8B0FA3
:100EB00004BF89000CF1020CCB0F04BF49000CF1F8
:100EC000010CCCF12003A0EB0C0022FA03F302FA90
:100ED0000CF241EA030100F10100704720F07F4C61
:100EE00080EA030023F07F47ACEB070303F57C5354
:100EF00000F0004003F1FF032DE980494FEA154B54
:100F000009B44FEA144325EA0B4E24EA03480FF2D2
:100F1000042606EB132749083E785FEA320203FBFA
:100F20000667C7F5000707FB06F64FEA54374FEA96
:100F3000D64606F1020607FB066CCCF1005C4FEAD0
:100F40001C472CEA074C07FB06F40CFB06F504EBE8
:100F500015464FEA961634BF00204FF000404FEA86
:100F6000D13706FB07FC4FEA1C4C0CFB0BF7D21BDE
:100F700003FB0CF761EB07010CFB0EF7B0EB07402E
:100F800072EB17420CFB08F734BFA2EB0742B2EB3F
:100F9000074261EB17414FEA0C444FEA910706FB09
:100FA00007FC4FEA1C4C0CFB0BF7B0EBC74072EB95
:100FB000573203FB0CF734BFA2EBC742B2EBC74278
:100FC00061EB57310CFB0EF7B0EBC70072EB5772B9
:100FD0000CFB08F734BFA2EBC702B2EBC70261EB10
:100FE0005771039F4FEA816141EA921104EBCC04EF
:100FF0004FEAD1374FEA826206FB07FC42EA9012C1
:101000004FEA80604FEA1C4C0CFB0BF7D21B03FB32
:101010000CF761EB07010CFB0EF7B0EB074072EB2E
:1010200017420CFB08F734BFA2EB0742B2EB0742B2
:1010300061EB17414FEA8C554FEA910704EB9C2472
:1010400006FB07FC4FEA1C4C0CFB0BF7B0EBC74050
:1010500072EB573203FB0CF734BFA2EBC742B2EB83
:10106000C74261EB57310CFB0EF7B0EBC70072EBD8
:1010700057720CFB08F734BFA2EBC702B2EBC702F2
:1010800061EB577115EB4C254FEA816141EA9211F2
:101090004FEA82624FEAD13742EA901206FB07FC20
:1010A00044F100044FEA80604FEA1C4C0CFB0BF744
:1010B000D21B03FB0CF761EB07010CFB0EF7B0EB47
:1010C000074072EB17420CFB08F734BFA2EB074254
:1010D000B2EB074261EB174115EB1C154FEA81316A
:1010E00041EA92414FEA823242EA90424FEA80302E
:1010F0004FEA0C7644F1000448EA03434EEA0B48F9
:101100004FF0000EB2EB080C71EB030724BF6246F0
:1011100039464EEB0E0E4FF0000B0018524149417C
:101120004BEB0B0BB2EB080C71EB03077BF1000BE5
:1011300024BF624639464EEB0E0E4FF0000B0018EE
:10114000524149414BEB0B0BB2EB080C71EB03071F
:101150007BF1000B24BF624639464EEB0E0E51EA7E
:10116000020718BF46F0010616EB0E7655F1000295
:1011700054F1000103D5BDE88901BDE80088BDE850
:101180008901BDE80048B619524141EB0101A3F1C4
:101190000103704780807F7E7D7C7B7A79787776CB
:1011A00076757473727171706F6E6E6D6C6C6B6A44
:1011B0006A696868676666656464636362616160E2
:1011C000605F5F5E5E5D5D5C5C5B5B5A5A5959585F
:1011D00058575756565555555454535352525251C9
:1011E000515050504F4F4F4E4E4D4D4D4C4C4C4B1F
:1011F0004B4B4A4A4A494949484848474747474666
:1012000046464545454444444443434343424242A1
:1012100042414141002B9C4630D477002BD01CB575
:101220004FEA370703B44FF010004FF01001BAF146
:10123000000F06D0BCF1000FDCBF40F0080040F00A
:1012400008014FF000000FBCBDE810400BF1010B8E
:10125000BBF1010F08BF5FEA170722BF12F10102BD
:1012600011F101014FF0004143F1000300F0004093
:1012700043EA00007047F9D35708D0E746EA06462C
:1012800013F1400F4FEA16461FDD13F1200FDFBFA9
:1012900016430A46002120335B42BED0C3F120072B
:1012A00046EA064602FA07F74FEA164646EA0706F6
:1012B000C3F1200722FA03F201FA07F721FA03F13A
:1012C0004FF0000342EA0702A7E746EA020646EAB1
:1012D00006464FEA164646EA0106BCBF46EA0646FF
:1012E000360C4FF000034FF000024FF0000194E77E
:1012F0002DE9804C9A46934670B491E8380007C8AF
:1013000031EA400C48BF34EA430C03D5FFF7E6FD51
:10131000FFF780FFF0BCBDE8008C2DE9804C9A46B9
:10132000934670B491E8380007C810F0804F08BFAA
:1013300013F0804F03D100F005F8FFF76BFFF0BC0E
:10134000BDE8008C20F07F4780EA030023F07F4C4B
:1013500007EB0C03A3F57C5300F00040A3F1FE0360
:1013600092F0000F00F0B38095F0000F00F077804E
:101370002DE901494FEA11404FEA144621EA00489D
:1013800000FB06FC24EA064708FB06F607FB08F804
:1013900000FB07F718EB06484CEB164C4FEA124BD4
:1013A00018EB07484FEA15464CEB174022EA0B4E64
:1013B0000BFB06FC25EA06470EFB06F607FB0EFEB6
:1013C0000BFB07F71EEB064E4CEB164C4FF00006DE
:1013D0001EEB074E4CEB174B18EB0B0840F10000CF
:1013E00018EB0E0B58EB000840F100008F1A4FF07D
:1013F00000013CBFC943661B14BFB5EB040C0021C0
:101400003CBFC943F61B4FEA17444EEA8E0E27EA4B
:1014100004454FEA1C4704FB07622CEA074C05FB16
:1014200007F70CFB05F604FB0CFC16EB074642EB3A
:10143000174216EB0C4642EB1C421BEB060658EB20
:101440000202414146EA9E0601D5BDE80189B6196E
:10145000524141EB0101A3F10103BDE801894FEACB
:1014600014454FEA114724EA054621EA074C05FBDB
:1014700007F406FB07F70CFB06F105FB0CFC11EB70
:10148000074144EB17444FEA124711EB0C4144EB80
:101490001C4422EA074C05FB07F206FB07F70CFB8E
:1014A00006F605FB0CFC16EB074642EB174216EB63
:1014B0000C4642EB1C456A1854F1000148BF7047C6
:1014C000B619524141EB0101A3F10103704795F0B8
:1014D000000F37D04FEA11424FEA144721EA024683
:1014E00024EA074C02FB07F106FB07F70CFB06F4A6
:1014F00002FB0CFC14EB074441EB17414FEA154784
:1015000014EB0C4441EB1C4125EA074C02FB07F5A8
:1015100006FB07F70CFB06F602FB0CFC16EB074676
:1015200045EB174516EB0C4645EB1C42121951F1E1
:10153000000148BF7047B619524141EB0101A3F1C8
:10154000010370474FEA14454FEA114724EA054664
:1015500021EA074C05FB07F106FB07F70CFB06F237
:101560004FF0000605FB0CFC12EB074241EB174164
:1015700012EB0C4251EB1C4148BF7047921841EBF3
:101580000101A3F10103704708B501214FF4037075
:1015900001F004FB2120ADF8000000208DF80300CD
:1015A0006946074800F0C8FB0220ADF800000020A3
:1015B0008DF803006946034800F0BEFB08BD00003B
:1015C00000080140000C014000B591B0012108461F
:1015D00001F0C4FA3C4800F065F93C4806903C48EC
:1015E0000790002008901E20099000200A9080207B
:1015F0000B9040000C9080000D9020200E90000277
:101600000F900020109006A92F4800F0F1F9012159
:101610002D4800F03BF90121480201F0BFFA0020FB
:10162000019001208DF808008DF809004FF460202A
:1016300003900020049003208DF8140001A9234892
:101640004C3800F071F84FF4404001F07BFA05236C
:10165000012200211D484C3800F08EF8052302229B
:1016600019461A484C3800F087F80523032209214F
:1016700016484C3800F080F8012114484C3800F02E
:1016800034F8012111484C3800F024F80F484C3848
:1016900000F0CEF800BF0D484C3800F03BF80028B1
:1016A000F9D10A484C3800F0D3F800BF07484C384D
:1016B00000F026F80028F9D1012104484C3800F048
:1016C000BCF811B000BD0000080002404C240140ED
:1016D0009C04002021B1826842F00102826003E094
:1016E000826822F001028260704721B1826842F470
:1016F0008072826003E0826822F4807282607047A8
:10170000014600208A6802F004020AB1012000E0CC
:1017100000207047014600208A6802F008020AB1E2
:10172000012000E00020704730B502460020002371
:1017300050680F4C20400D790C6844EA0524204382
:10174000506090680B4C2040D1E902542C434D79F5
:1017500044EA450420439060D06A20F470000C7C79
:10176000641EE4B2234340EA0350D06230BD00005F
:10177000FFFEF0FFFDF7F1FFF0B504460D46002037
:101780000021092D11DDE068A5F10A0606EB4607E8
:10179000072606FA07F18843A5F10A0606EB460676
:1017A00003FA06F10843E0600CE0206905EB450709
:1017B000072606FA07F1884305EB450603FA06F10A
:1017C00008432061072A0FDA606B561E06EB860776
:1017D0001F2606FA07F18843561E06EB860605FA11
:1017E00006F10843606322E00D2A0FDA206BD61F52
:1017F00006EB86071F2606FA07F18843D61F06EB7D
:10180000860605FA06F10843206310E0E06AA2F1BB
:101810000D0606EB86071F2606FA07F18843A2F19C
:101820000D0606EB860605FA06F10843E062F0BDF8
:10183000816841F008018160704721B1826842F4FB
:10184000A002826003E0826822F4A00282607047F6
:10185000816841F0040181607047000008B54FF4D1
:101860008060ADF8000010208DF8030003208DF893
:1018700002006946044800F05FFA4FF480610248B4
:1018800000F037FB08BD0000000C014021B10268E8
:1018900042F00102026004E002684FF6FE731A4053
:1018A0000260704701684FF6FE721140016000212E
:1018B000016041608160C1604B49884208D14A495A
:1018C0000839496841F00F01474A083A51608AE0F7
:1018D00045491431884208D143490839496841F0E3
:1018E000F001414A083A51607DE03F492831884281
:1018F00008D13D490839496841F470613A4A083ACB
:10190000516070E038493C31884208D13649083985
:10191000496841F47041344A083A516063E0324901
:101920005031884208D130490839496841F4702162
:101930002D4A083A516056E02B496431884208D15B
:1019400029490839496841F47001274A083A516029
:1019500049E025497831884208D123490839496846
:1019600041F07061204A083A51603CE01F498842CA
:1019700006D1011F096841F00F01021F116032E01A
:101980001A491431884208D11849091F096841F0E1
:10199000F001164A121F116025E0144928318842CF
:1019A00008D11249091F096841F470610F4A121FDA
:1019B000116018E00D493C31884208D10B49091FDC
:1019C000096841F47041094A121F11600BE0074990
:1019D0005031884207D10549091F096841F4702137
:1019E000024A121F116070470800024008040240BA
:1019F00010B50022026847F6F0739A430C6A8B68B0
:101A000023430C6923434C6923438C692343CC69EA
:101A100023434C6A23438C6A23431A430260CB68F6
:101A200043600B6883604B68C36010BD31B51648D6
:101A300000684FF47A71B0FBF1F4204601F09AFB94
:101A400008B100BFFEE74FF0E020006920F0010080
:101A50004FF0E02108610D49009808604FF0E02048
:101A6000006940F001004FF0E021086100BF074825
:101A700000680028FBD14FF0E020006920F0010051
:101A80004FF0E021086138BD78000020740000208C
:101A900031B5164800681649B0FBF1F4204601F054
:101AA00069FB08B100BFFEE74FF0E020006920F0BD
:101AB00001004FF0E02108610E49009808604FF0E6
:101AC000E020006940F001004FF0E021086100BF14
:101AD000084800680028FBD14FF0E020006920F0A2
:101AE00001004FF0E021086138BD000078000020BF
:101AF00040420F00740000202DE9FF4F82B00546E0
:101B00000E469246109C05990F98884201D00120FC
:101B100000E000200190802D0BDA402E09DA05202C
:101B200000FB0450002804DB062000FB04600028B2
:101B300002DA06B0BDE8F08FAAF120002F4951F873
:101B40002070012C2BD14FF0000824E04FF0000949
:101B50001AE007F0010BBBF1000F01D1019870B141
:101B6000BBF1000F01D0059B00E00F9B1A4606EB6E
:101B70000903D9B205EB0803D8B200F0B1FD7F0824
:101B800009F101004FFA80F9B9F1060FE1DB08F124
:101B900001004FFA80F8B8F1060FD7DB2CE04FF0C8
:101BA000000826E04FF000091CE007F0010BBBF134
:101BB000000F01D1019880B1BBF1000F01D0059851
:101BC00000E00F9809FB046211B208FB0452009078
:101BD00010B22346224600F077F87F0809F1010091
:101BE0004FFA80F9B9F1060FDFDB08F101004FFA77
:101BF00080F8B8F1060FD5DB00BF9AE7E08900084E
:101C000010B54FF4006000F00FF84FF4004000F002
:101C10000BF810BD10B5082000F006F810BD10B587
:101C2000102000F001F810BD014908607047000065
:101C300014040140002123498279002A3AD00A463F
:101C4000126803689A430B461A600A1D12680368FB
:101C50009A430B1D1A60027911440A6803681A43FB
:101C60000A60184A0832126803689A43154B083311
:101C70001A601A1D126803689A43124B0C331A60DB
:101C80004279102A0ED11A1F126803681A430D4BAD
:101C900008331A601A1D126803681A43094B0C3383
:101CA0001A600DE00749427911440A6803681A4333
:101CB0000A6005E0027911440A6803689A430A60E1
:101CC00070470000000401402DE9F04304468846B7
:101CD00016461F46DDF81C90254607E04B467AB2B3
:101CE0004146284600F0C3FC681C05B2A019A84272
:101CF000F4DCBDE8F083000030B500228B071C0F38
:101D00000F2303FA04F20B4B8C1053F82430934347
:101D1000084C8D1044F8253023468C1053F824309D
:101D20008C07240F00FA04F42343024C8D1044F86E
:101D3000253030BD080001402DE9F0410246002564
:101D40000026002000230024002791F803C00CF097
:101D50000F0591F803C00CF0100CBCF1000F03D07C
:101D600091F802C04CEA050591F800C0BCF1000FE3
:101D700031D0146800202BE04FF0010C0CFA00F376
:101D8000B1F800C00CEA03069E4220D183004FF058
:101D90000F0C0CFA03F7BC4305FA03FC4CEA0404ED
:101DA00091F803C0BCF1280F06D14FF0010C0CFADA
:101DB00000FCC2F814C00AE091F803C0BCF1480F5F
:101DC00005D14FF0010C0CFA00FCC2F810C0401C09
:101DD0000828D1D31460B1F800C0BCF1FF0F34DD86
:101DE000546800202EE000F1080C4FF0010808FABA
:101DF0000CF3B1F800C00CEA03069E4221D1830027
:101E00004FF00F0C0CFA03F7BC4305FA03FC4CEA45
:101E1000040491F803C0BCF1280F05D100F1080CAF
:101E200008FA0CF8C2F8148091F803C0BCF1480F0E
:101E300007D100F1080C4FF0010808FA0CF8C2F8BD
:101E40001080401C0828CED35460BDE8F08100000B
:101E5000F0B50A46002300240021002500F00046CA
:101E6000B6F1004F02D11D4EF16901E01B4E7168C1
:101E7000C0F3034583B200F44016B6F5401F08D105
:101E800021F07061154E766826F07066134F7E6003
:101E900012E000F48016B6F5801F06D1032606FA7C
:101EA00005F4A14341F0706106E0460D360103FAE6
:101EB00006F6B14341F0706122B1460D360103FAD6
:101EC00006F6314300F00046B6F1004F02D1034E52
:101ED000F16101E0014E7160F0BD000000000140C1
:101EE0000246002093680B400BB1012000E0002067
:101EF0007047416170470161704700002DE9F05F54
:101F00000E49088803F06CFE83464FF08B4103F0C6
:101F100039FD824603F09CFC80464FF06632084B48
:101F200003F098FB064600224FF0804303F092FB3B
:101F3000044603F05DFBBDE8F09F00009C04002018
:101F400066660A4001484088704700009C040020F3
:101F500001488088704700009C04002070B500F0A4
:101F600059FC012000F071FB002000F0EFFB00F0B5
:101F7000D5FC2BA0FEF75EF900F03AF92DA0FEF794
:101F800059F9FFF76BFC2FA0FEF754F900F0CEFDD6
:101F900000BF02F00FFB0028FBD12EA0FEF74AF98C
:101FA00000F07AFE6420FFF741FD00BF00F006FE5E
:101FB0000028FBD12CA0FEF73DF903F055FA0520CF
:101FC000FFF734FDFFF79AFF2C49086008460068C8
:101FD00003F03EFC044622460B4629A0FEF72AF9F0
:101FE0004FF4FA70FFF722FDFFF7ACFF2949088094
:101FF000FFF7AEFF284908802648018827A0FEF792
:1020000019F92548018829A0FEF714F900F0EAF82B
:102010002AA0FEF70FF94FF4FA70FFF707FD70BD25
:102020004F4C454420444953504C4159204F4E2E6B
:102030000A000000424C5545204C4544204F4E2E8E
:102040000A00000042555A5A455220544553542E16
:102050000A0000004D50553630353020444D502098
:10206000494E49542E0A000053493234523120431C
:102070004845434B204F4B2E0A0000006C000020C7
:102080004241545420564F4C543A20252E32660A71
:102090000000000070000020720000204A4F5953D9
:1020A0005449434B20583A2025640A004A4F59535B
:1020B0005449434B20593A2025640A004B45592680
:1020C00043484152474520494F20494E49542E0A22
:1020D0000000000008B501210C2000F05FFD4FF466
:1020E0000060ADF8000048208DF8030003208DF853
:1020F000020069460848FFF71FFE48F21800ADF8D5
:10210000000048208DF8030003208DF80200694686
:102110000248FFF711FE08BD000C01400008014015
:102120000EB50121084600F039FD1020FFF77CFDB7
:1021300004210020FFF7E0FD4FF40060FFF774FD7D
:102140000B210120FFF7D8FD4FF40040FFF76CFD95
:102150000F210020FFF7D0FD0820FFF765FD0321C8
:102160000020FFF7C9FD48F61800019000208DF807
:1021700008000C208DF8090001208DF80A0001A844
:10218000FFF758FD4FF4A06000F050FA0A208DF8D8
:10219000000002208DF8010000208DF802000120CF
:1021A0008DF80300684600F009FA28208DF8000039
:1021B00002208DF8010001208DF802008DF8030047
:1021C000684600F0FBF909208DF8000002208DF828
:1021D00001008DF8020001208DF80300684600F030
:1021E000EDF90EBD10B5FFF775FFFFF799FF10BDB4
:1021F00008B50121082000F0D1FC0420ADF8000052
:1022000010208DF8030003208DF802006946044871
:10221000FFF792FD04210248FFF76BFE08BD0000A6
:10222000000C014010B54FF480300F4908600F4892
:10223000006820F070400D4908600846006840F0D2
:10224000405008604FF4000008491031086000F069
:102250000FF801200449086000F00AF84FF48030BC
:102260000149086010BD0000100C01400008014049
:1022700010B50220FFF70CFC10BD000008B50121CD
:10228000042000F08BFC0121082000F087FC802056
:10229000ADF8000003208DF8020010208DF8030037
:1022A00069460948FFF748FD80210748FFF723FEEC
:1022B0000120ADF8000069460448FFF73DFD01210B
:1022C0000248FFF718FE08BD00080140000C01405D
:1022D00010B54FF480300E4908600E48006820F0B9
:1022E00070400C4908600846006840F040500860A3
:1022F0008020084910310860FFF7BAFF0120044927
:102300000860FFF7B5FF4FF480300149086010BD49
:10231000100C01400008014070B505460024174824
:10232000006820F07040154908600846006840F0D9
:1023300000400860002616E04FF480301049086025
:10234000FFF796FF01200E4908606006040E0B4857
:102350000830006800F0800008B1601CC4B2FFF7CC
:1023600087FF701CC6B2082EE6DB15B9FFF7B0FF79
:1023700001E0FFF757FF204670BD00000008014054
:10238000100C014070B504461748006820F07040FA
:10239000154908600846006840F0405008604FF456
:1023A00080301249086000251BE004F0800020B155
:1023B00080200D491031086004E04FF400000A4904
:1023C000103108606006040E012008490860FFF71C
:1023D0004FFF4FF4803005490860FFF749FF681C44
:1023E000C5B2082DE1DB70BD00080140100C0140B2
:1023F00010B51048006820F070400E49086008468B
:10240000006840F04050086080200A4910310860A0
:10241000012009490860FFF72BFF4FF40000054930
:1024200010310860FFF724FF4FF480300249086044
:1024300010BD000000080140100C014010B50F480D
:10244000006820F070400D4908600846006840F0C0
:10245000405008604FF4803009490860C0010749C6
:1024600010310860FFF704FF012005490860802053
:10247000024910310860FFF7FBFE10BD0008014063
:10248000100C014010B500241548006820F0704081
:10249000134908600846006840F00040086080204A
:1024A0000F4910310860FFF7E3FE01200D49086075
:1024B000FFF7DEFE07E0601CC4B2FA2C03DDFFF775
:1024C000BDFF012010BD06480830006800F0800004
:1024D0000028F0D14FF48030024908600020F1E775
:1024E00000080140100C01402DE9F04106460F465E
:1024F00014461D46FFF77CFF002141EA4601C8B2A1
:10250000FFF740FFFFF7BEFF20B1FFF797FF012065
:10251000BDE8F0813846FFF735FFFFF7B3FFFFF75F
:1025200067FF012101EB4601C8B2FFF72BFFFFF760
:10253000A9FF0DE0012C04D10020FFF7EDFE28706B
:1025400003E00120FFF7E8FE2870601EC4B26D1C96
:10255000002CEFD1FFF772FF0020D9E72DE9F04101
:1025600005460E4617469846FFF742FF002141EA0E
:102570004501C8B2FFF706FFFFF784FF20B1FFF760
:102580005DFF0120BDE8F0813046FFF7FBFEFFF75D
:1025900079FF00240CE018F80400FFF7F3FEFFF7C2
:1025A00071FF18B1FFF74AFF0120EBE7601CC4B2CE
:1025B000BC42F0DBFFF742FF0020E3E770B50021EB
:1025C00000230F22C47804B3154C246804F4E0649B
:1025D000C4F5E064210AC1F10403CA40447804FA56
:1025E00003F184781440214309010E4C0678A1556B
:1025F000047804F01F050124AC4005786D11AD008E
:1026000005F1E025C5F8004109E0047804F01F0554
:102610000124AC40044D0678761145F8264070BD83
:102620000CED00E000E400E080E100E0024901433D
:10263000024A1160704700000000FA050CED00E04E
:1026400000B5002000F082F800BD10B504462CB99A
:10265000C82000F089F9A12000F086F9012C05D1ED
:10266000C02000F081F9A02000F07EF910BD2DE916
:10267000F04306460C461546984604EB0509002C27
:1026800007DA6042854201DCBDE8F083281945B2D3
:102690000024002D05DD402C03DA002E01DD802E04
:1026A00000DBF1E76019402802DDC4F1400045B2CB
:1026B000002C01DC002000E02046074605E0F9B2CE
:1026C000F0B2424600F00CF87F1CB9F1400F01DC7B
:1026D000484600E04020B842F1DC00BFD4E70000EB
:1026E000F0B5034614467F2B01DC3F2900DDF0BD29
:1026F0000A46CD1701EB5575C5F3C70084B1CD1758
:1027000001EB5575ED10A1EBC5060125B54003EBB6
:10271000C0160D4FBE5D354303EBC016BD5511E02D
:102720000A46CD1701EB5575ED10A1EBC506012545
:10273000B54003EBC016044FBE5D26EA050503EB6A
:10274000C016BD5500BFD2E79C00002000B1FF209D
:10275000002103E0034A50544A1C11B2B1F5806FC6
:10276000F8DB70479C00002008B50121084600F006
:1027700015FA01212348FFF76BFB01212248FFF7DF
:1027800067FB0121082000F009FA0121102000F068
:1027900005FA4FF40050ADF8000010208DF803004A
:1027A00003208DF8020069461848FFF7C5FA4FF478
:1027B00000511648FFF79FFB2820ADF800001020BD
:1027C0008DF8030003208DF8020069461048FFF7DA
:1027D000B3FA28210E48FFF78EFB4FF43070ADF8A6
:1027E000000010208DF8030003208DF802006946D8
:1027F0000748FFF7A1FA4FF430710548FFF77BFB5C
:1028000008BD00000004300000023000001001404C
:10281000000C014010B5FFF7A7FF80213448FFF7F7
:102820006AFB6420FFF702F980213148FFF761FB62
:102830006420FFF7FBF880212D48FFF75CFBAE20FA
:1028400000F092F8002000F08FF8102000F08CF8D3
:10285000402000F089F8812000F086F8CF2000F0B9
:1028600083F8A12000F080F8C82000F07DF8A620B1
:1028700000F07AF8A82000F077F83F2000F074F814
:10288000D32000F071F8002000F06EF8D52000F0A1
:102890006BF8802000F068F8D92000F065F8F1208E
:1028A00000F062F8DA2000F05FF8122000F05CF827
:1028B000DB2000F059F8402000F056F8202000F00E
:1028C00053F8022000F050F88D2000F04DF814204D
:1028D00000F04AF8A42000F047F8A62000F044F8E1
:1028E000FFF7AEFE00F01AF8AF2000F03DF810BD83
:1028F000000C0140F0B506460F46154639463046F5
:1029000000F098FB002404E0285D00F08DF8601CC6
:10291000C4B2285D0028F7D12046F0BD10B52020B4
:1029200000F022F8002000F01FF8212000F01CF831
:10293000002000F019F87F2000F016F8222000F0A7
:1029400013F8002000F010F8072000F00DF8002424
:1029500004E00449085D00F037F8641CB4F5806FAA
:10296000F7DB10BD9C00002070B5044640211548DF
:10297000FFF7BFFA4FF400711248FFF7BAFA0025CB
:1029800017E008210F48FFF7B4FA04F0800020B1E7
:1029900020210C48FFF7AFFA03E020210948FFF798
:1029A000A8FA08210748FFF7A6FA6006040E681C7B
:1029B000C5B2082DE5DB4FF400710248FFF79BFA22
:1029C00070BD0000000C014070B504464021154860
:1029D000FFF791FA4FF400711248FFF78AFA0025C9
:1029E00017E008210F48FFF784FA04F0800020B1B7
:1029F00020210C48FFF77FFA03E020210948FFF768
:102A000078FA08210748FFF776FA6006040E681C7A
:102A1000C5B2082DE5DB4FF400710248FFF76BFAF1
:102A200070BD0000000C01401CB504460A2C0ED1FC
:102A30001F48007800EB40001E49098801EB400068
:102A400000B21C49088000201B4908802EE0202C81
:102A50002CDB5F2C2ADC1648007818490978CDE970
:102A600000101748037822461248B0F900101248A7
:102A7000B0F90000FFF740F80D48007800EB400087
:102A80000D49098801EB400000B20B490880084855
:102A9000007800EB40008021A1EB40000649B1F92D
:102AA0000010884202DA0A20FFF7BEFF1CBD0000BA
:102AB000500000204E0000204C000020520000205A
:102AC0005100002010B501220249034800F006F829
:102AD00010BD0000C96B0008C86B00082DE9F04765
:102AE00005460E4617464FF00A09002418E04FF03D
:102AF000000809E0295D0C4A32F8110000F018FBCB
:102B000008F101001FFA80F8305D295D064A32F8AD
:102B100011104843B0FBF9F04045EBD8601C84B27B
:102B2000BC42E4DBBDE8F087A26B000810B50522CB
:102B300002490348FFF7D2FF10BD0000C36B000835
:102B4000BE6B000801460020034A506820F4404054
:102B500008435060704700000010024029B1064A47
:102B600052690243044B5A6104E0034A52698243AA
:102B7000014B5A61704700000010024029B1064A1B
:102B8000D2690243044BDA6104E0034AD26982430A
:102B9000014BDA61704700000010024029B1064A7B
:102BA00092690243044B9A6104E0034A92698243AA
:102BB000014B9A6170470000001002401CB50EA145
:102BC00003C9CDE9000105226946302000F0A4F9CF
:102BD00005226946102000F071F8002407E01DF876
:102BE0000400A52801D001201CBD601CC4B2052C26
:102BF000F5DB0020F8E70000A5A5A5A5A5000000CD
:102C000008B501210C20FFF7C9FF4FF48070ADF823
:102C1000000010208DF8030003208DF802006946A3
:102C20001B48FFF789F84FF480711948FFF761F9E5
:102C30004FF46040ADF8000018208DF80300032029
:102C40008DF8020069461348FFF776F84FF40070DC
:102C5000ADF8000010208DF8030003208DF802006D
:102C600069460B48FFF768F84FF400710848FFF712
:102C700040F94FF48050ADF8000048208DF8030073
:102C800003208DF8020069460248FFF755F808BD99
:102C900000080140000C014010B5FFF7B1FF00F043
:102CA0009BF84FF480710448FFF725F94FF4007149
:102CB0000148FFF71EF910BD000801402DE9F04161
:102CC00007460C4615464FF480710C48FFF711F982
:102CD000384600F05BF98046002605E0FF2000F052
:102CE00055F92070641C761CAE42F7DB4FF48071FE
:102CF0000248FFF700F94046BDE8F08100080140B6
:102D000070B504464FF480710848FFF7F2F820468A
:102D100000F03CF9FF2000F039F905464FF48071CE
:102D20000248FFF7E8F8284670BD0000000801409F
:102D300010B54FF400711348FFF7DBF80522124974
:102D40002A2000F0E9F80121212000F007F90121F3
:102D5000222000F003F92821252000F0FFF80821A7
:102D6000312000F0FBF80F21262000F0F7F80F21AA
:102D7000202000F0F3F84FF400710248FFF7BBF891
:102D800010BD0000000801405F00002070B504463F
:102D90004FF400710F48FFF7ACF80720FFF7B0FFC2
:102DA00005462946272000F0D9F805F0400050B12B
:102DB000082221466120FFF781FFFF21E22000F079
:102DC000CDF8002070BD4FF400710248FFF793F872
:102DD0000120F7E70008014000B585B00121880314
:102DE000FFF7CCFE0021144800F0ECF80020ADF80D
:102DF00000004FF48270ADF802000020ADF804002E
:102E0000ADF80600ADF808004FF40070ADF80A0008
:102E10001020ADF80C000020ADF80E000720ADF832
:102E200010006946044800F0E7F80121024800F06C
:102E3000C9F805B000BD00000038004010B54FF4DF
:102E400000711748FFF755F805221649302000F0A9
:102E500063F8052214492A2000F05EF801212120A0
:102E600000F07CF80121222000F078F805212420D0
:102E700000F074F82821252000F070F80F2126209A
:102E800000F06CF80E21202000F068F8FF21E1200E
:102E900000F064F84FF400710148FFF72CF810BD02
:102EA000000801405A0000205F00002070B5054670
:102EB0004FF400711648FFF71CF806222946A0209F
:102EC00000F02AF84FF400711148FFF714F800BF22
:102ED0004FF480510F48FFF703F80028F8D107207E
:102EE000FFF70EFF04462146272000F037F804F0D4
:102EF000100028B1FF21E12000F030F8102070BD53
:102F000004F0200008B12020F9E7FF20F7E70000D7
:102F100000080140000C01402DE9F04107460C4635
:102F200015464FF480710C48FEF7E3FF384600F079
:102F30002DF88046002604E0207800F027F8641C75
:102F4000761CAE42F8DB4FF480710348FEF7D3FFE6
:102F50004046BDE8F08100000008014070B505461C
:102F60000C464FF480710848FEF7C3FF284600F076
:102F70000DF80646204600F009F84FF4807102482B
:102F8000FEF7B9FF304670BD0008014010B5044699
:102F900000BF02210A4800F021F80028F9D021469C
:102FA000074800F027F800BF0121054800F016F897
:102FB0000028F9D0024800F01AF8C0B210BD000095
:102FC0000038004021B1028842F04002028004E053
:102FD00002884FF6BF731A400280704702460020F5
:102FE00013890B400BB1012000E00020704701461F
:102FF000888970478181704710B50022028802F4E9
:1030000041520B884C8823438C882343CC8823432C
:103010000C8923434C8923438C892343CC89234344
:103020001A430280838B4FF2FF74234083830B8A01
:10303000038210BD024A1080024A118070470000CE
:103040004C0000204E00002010B500F001F810BD2B
:103050000CB50020019000903348006840F48030A7
:103060003149086000BF3048006800F4003000902B
:103070000198401C0190009818B90198B0F5A06F14
:10308000F1D12948006800F4003010B1012000900F
:1030900001E0002000900098012843D123480068F7
:1030A00040F01000214908600846006820F0030045
:1030B00008600846006840F0020008601A4840684E
:1030C000194948600846406848600846406840F42E
:1030D000806048600846406820F47C1048600846DC
:1030E000406840F4E81048600846006840F080708E
:1030F000086000BF0C48006800F000700028F9D09C
:103100000948406820F003000749486008464068C5
:1031100040F00200486000BF0348406800F00C0027
:103120000828F9D10CBD0000001002400020024028
:1031300070B50446B4F57A7F13D00C48B0FBF4F5B3
:103140004FF480610A48FEF7D6FE2846FEF7A0FC41
:103150004FF480610648FEF7CCFE2846FEF798FC47
:1031600003E04FF47A70FEF793FC70BD20A10700D6
:10317000000C014030B50146B1F1807F01D3012040
:1031800030BD21F07F40401E4FF0E02250615017CB
:103190000F22002807DA13071D0E094B00F00F0459
:1031A000241F1D5503E013071C0E064B1C5400BFC3
:1031B00000204FF0E0229061072010610020DFE73F
:1031C00018ED00E000E400E00448006820B1034886
:1031D0000068401E0149086070470000740000202C
:1031E00010B51348006840F0010011490860084616
:1031F0004068104908400E494860084600680E497A
:1032000008400B4908600846006820F480200860E8
:103210000846406820F4FE0048604FF41F008860B4
:10322000FFF712FF4FF000600449086010BD000076
:10323000001002400000FFF8FFFFF6FE08ED00E07E
:10324000490050EAC12018BF04204A0D18BF40F0C1
:10325000010040F2FF72B2EB515F08BF40F0020084
:10326000012808BF0520704730380A2801D2012004
:1032700070470020704770472DE9FE4F074688468B
:103280000026684600F0EEFD002444E057F82400D4
:1032900058F82410A0EB010ABAF1000F01DB5146E7
:1032A00001E0CAF10001084602F082FC83464FF0BB
:1032B0008F4102F067FB81465DF82400002102F097
:1032C00023FC18D05DF82410484602F05BFB8246D0
:1032D0004FF07E5102F0CAFD054600BF25F00040C8
:1032E00082460F48416A504602F08EFD12D20120FC
:1032F000A04006430EE00A48C169484602F084FC3B
:1033000005D30748016A484602F07EFD02D201203B
:10331000A0400643641C032CB8DB3046BDE8FE8F9A
:10332000845F00082DE9FC41FFF78AF94FF4004162
:103330000C48FEF7D5FD0C49486802F089FA0446AE
:103340000D460949086802F083FA064632460B46E4
:1033500006A0CDE90045FCF76DFFFFF7DFFABDE8F9
:10336000FC8100000008014008000020252E326684
:1033700020252E32660A000038B5044664B12020AC
:103380008DF8000028208DF8010030208DF8020013
:1033900038208DF8030004E0A32204216846FDF7DD
:1033A00059F86A46042140F69E2002F01DF801F00B
:1033B00007FC38BD3EB5044602208DF80000CA2047
:1033C0008DF80100E3208DF8020009208DF803003C
:1033D0006A460421682002F007F8A3208DF8000057
:1033E00004F0400048B1C0208DF80100C8208DF8DD
:1033F0000200C2208DF8030006E0A3208DF8010032
:103400008DF802008DF8030004F4C07048B1C420A8
:103410008DF80400CC208DF80500C6208DF806003C
:1034200006E0A3208DF804008DF805008DF8060055
:10343000A3208DF807008DF808008DF809006A4672
:103440000A2140F6A72001F0CFFF04F0030018B1D5
:1034500020208DF8000002E0D8208DF800006A4698
:10346000012140F6B62001F0BFFF04F0200018B1A2
:10347000012000F0ADF802E0002000F0A9F804F40B
:10348000C07008B304F4807060B1B2208DF8000001
:103490008B208DF80100B6208DF802009B208DF85E
:1034A00003000BE0B0208DF8000080208DF80100B3
:1034B000B4208DF8020090208DF803006A460421A4
:1034C00040F6A22001F090FF04F0010020B3F820A4
:1034D0008DF800006A4601214FF40B6001F084FF73
:1034E000FA21072000F046FB072000F00DFB012029
:1034F00000F02DFB642000F00DFC4FF4FA7000F09A
:103500001CFCC821304800F0BDFA282000F0D6FA93
:103510000A2000F0E6FA08E0D8208DF800006A469C
:1035200001214FF40B6001F05FFF04F0020018B1BD
:10353000D9208DF8000002E0D8208DF800006A46FE
:10354000012140F23D7001F04FFF04F0040018B17A
:10355000012000F069F802E0002000F065F804F0B6
:10356000100018B10120FFF707FF02E00020FFF76D
:1035700003FF44F008001549488101F021FB0020B9
:103580001249887304F0400018B10846807B801D02
:10359000887304F4C07020B10C48807B801D0B49F7
:1035A000887304F0140020B10848807B103007496C
:1035B000887304F0030020B10448807B001D034998
:1035C000887300203EBD000009E3CA028C00002081
:1035D0003EB504466CB10EA1D1E900208968CDE961
:1035E000002002916A4609214FF4976001F0FCFE29
:1035F0003EBD0AA2D2E900109268CDE90102009115
:103600006A4609214FF4976001F0EEFEF0E70000F2
:10361000B8AAB38DB4980D355D000000B8AAAAAA67
:10362000B088C3C5C700000038B5044664B1C020E7
:103630008DF80000C2208DF80100C4208DF8020032
:10364000C6208DF8030004E08B2204216846FCF7B5
:1036500001FF6A46042140F6982001F0C5FE01F002
:10366000AFFA38BD10B5C8234FF48062024940F666
:10367000F63001F099F910BDAC5F000870B588B064
:10368000064601A801F00CF8BDF804000021C903AA
:1036900041EA5045C4034448007A00F0030056F85C
:1036A000200005904048007A00F0040010B1059811
:1036B000404205903C48007AC0F3C10056F8200013
:1036C00006903948007A00F0200010B10698404278
:1036D00006903548007AC0F3811056F82000079014
:1036E0003148008900F4807010B10798404207907B
:1036F0000598C117A0FB042301FB043100FB051052
:10370000810041EA927005900698C117A0FB04233E
:1037100001FB043100FB0510810041EA9270069024
:103720000798C117A0FB042301FB043100FB05101F
:10373000810041EA927007900598000E8DF808000C
:103740000598000C8DF809000598000A8DF80A000C
:103750000598C0B28DF80B000698000E8DF80C008D
:103760000698000C8DF80D000698000A8DF80E00E2
:103770000698C0B28DF80F000798000E8DF8100063
:103780000798000C8DF811000798000A8DF81200B8
:103790000798C0B28DF8130002AA0C214FF42570CF
:1037A00001F022FE08B070BD8C00002030B585B05D
:1037B000044616A207CA02AB07C3C82C03DD4FF0AC
:1037C000FF3005B030BDC82090FBF4F0401E85B23C
:1037D000280A8DF80000E8B28DF801006A4602213F
:1037E00040F2162001F000FE10B14FF0FF30E8E784
:1037F00002AA0C2140F6C12001F0F6FD10B14FF0F5
:10380000FF30DEE7044884810020DAE7FEF2ABC433
:10381000AAF1DFDFBBAFDFDF8C0000201FB504465D
:103820004848007A00F0030054F820000190454811
:10383000007A00F0040010B1019840420190414824
:10384000007AC0F3C10054F8200002903D48007A8D
:1038500000F0200010B10298404202903948007AEE
:10386000C0F3811054F8200003903648008900F41A
:10387000807010B10398404203903349019880FB57
:103880000101800F40EA810001902F49029880FBDE
:103890000110820042EA917002902B49039880FB4C
:1038A0000110820042EA917003900198000E8DF899
:1038B00000000198000C8DF801000198000A8DF8B5
:1038C00002000198C0B28DF803006A4604214FF44B
:1038D000747001F089FD18B14FF0FF3004B010BDD5
:1038E0000298000E8DF800000298000C8DF801007F
:1038F0000298000A8DF802000298C0B28DF8030009
:103900006A4604214FF4757001F06EFD10B14FF05E
:10391000FF30E3E70398000E8DF800000398000CD9
:103920008DF801000398000A8DF802000398C0B2D8
:103930008DF803006A4604214FF4767001F054FDBF
:10394000CCE700008C00002009E3CA0210B586B065
:10395000044647A00068039046A00068029046A075
:103960000068019045A00068009004F0030003A9DE
:10397000085C8DF8140003A8C4F3C101405C8DF805
:10398000150003A8C4F38111405C8DF8160004F003
:10399000030002A9085C8DF8100002A8C4F3C1015D
:1039A000405C8DF8110002A8C4F38111405C8DF8D1
:1039B000120005AA032140F2264001F015FD18B1BE
:1039C0004FF0FF3006B010BD04AA032140F22A4098
:1039D00001F00AFD10B14FF0FF30F3E701980590B8
:1039E0000098049004F0040058B19DF8140040F0D1
:1039F00001008DF814009DF8100040F001008DF8D2
:103A0000100004F0200058B19DF8150040F00100AE
:103A10008DF815009DF8110040F001008DF811009F
:103A200004F4807058B19DF8160040F001008DF844
:103A300016009DF8120040F001008DF8120005AA52
:103A400003214FF4886001F0CFFC10B14FF0FF303C
:103A5000B8E704AA032140F2314001F0C5FC10B1DF
:103A60004FF0FF30AEE7064804810020AAE70000CF
:103A70004CCD6C000CC92C003656760026466600EC
:103A80008C000020F8B505460E464FF47A7095FB81
:103A9000F0F000FB06F4200E8DF80000200C8DF8ED
:103AA0000100200A8DF80200E0B28DF803006A469A
:103AB00004214FF4AE7001F097FCF8BD38B5044610
:103AC000052094FBF0F084B220128DF80000E0B2E3
:103AD0008DF801006A4602214FF4AD7001F084FCBC
:103AE00038BD38B50446052094FBF0F084B22012AE
:103AF0008DF80000E0B28DF801006A4602214FF413
:103B0000AC7001F071FC38BD38B50446002000905F
:103B100004F0010020B19DF8000040F0300000905A
:103B200004F0020020B19DF8000040F00C0000906D
:103B300004F0040020B19DF8000040F00300009064
:103B40006A4601214FF4A47001F04EFC38BD38B52F
:103B50000446012C01DA012402E0042C00DD0424D7
:103B6000601EC0B200906A46012140F24F1001F081
:103B70003BFC38BD2DE9FC4706460F4606F0070022
:103B800010B1B7F5C86F03DD4FF0FF30BDE8FC871B
:103B9000384602F025F88146594901F0F3FE804687
:103BA000684600F057FD9DF80000022806D0042862
:103BB00016D0082826D0102848D135E04FF08D4186
:103BC000404602F055F8814601F0D2FF84B24D49DB
:103BD000404602F04DF8814601F0CAFF85B238E058
:103BE0004FF08C41404602F043F8814601F0C0FF9F
:103BF00084B24549404602F03BF8814601F0B8FFE7
:103C000085B226E04FF08B41404602F031F8814604
:103C100001F0AEFF84B23D49404602F029F88146EA
:103C200001F0A6FF85B214E04FF08A41404602F051
:103C30001FF8814601F09CFF84B23549404602F0EE
:103C400017F8814601F094FF85B202E04FF0FF3093
:103C50009CE700BF20128DF80400E0B28DF805004B
:103C600028128DF80600E8B28DF8070006F0010072
:103C7000A0B101AA02214FF4EA7001F0B5FB10B126
:103C80004FF0FF3082E70DF1060202214FF49270EF
:103C900001F0AAFB10B14FF0FF3077E706F0020009
:103CA000A0B101AA02214FF4EC7001F09DFB10B10C
:103CB0004FF0FF306AE70DF1060202214FF49470D5
:103CC00001F092FB10B14FF0FF305FE706F0040007
:103CD000A0B101AA02214FF4EE7001F085FB10B1F2
:103CE0004FF0FF3052E70DF1060202214FF49670BB
:103CF00001F07AFB10B14FF0FF3047E7002045E7B5
:103D000000004843000040460000C0450000404518
:103D10000000C04438B50446052094FBF0F085B29D
:103D200028128DF80000E8B28DF801006A460221E1
:103D30004FF4EF7001F058FB38BD38B5044605204C
:103D400094FBF0F085B228128DF80000E8B28DF8EF
:103D500001006A4602214FF4ED7001F045FB38BDC9
:103D600038B504460D46E0B200900A2C09D1002077
:103D70001949087019480078083018490870204619
:103D800038BD15480078801D802807DD00201249C5
:103D90000870124800780830104908700F48007801
:103DA000801D402807DD00200C490870FEF748FC04
:103DB0000020094908706A460848017806480078DA
:103DC000FEF798FDFEF7AAFD03480078801D024922
:103DD00008702046D4E70000580000205900002059
:103DE00010B517480078282823DB002014490870F4
:103DF0000120144988800846FFF758F8202814D17C
:103E0000FEF796FF0120FDF711FE002408E00E48A2
:103E1000FEF7BCFF00B905E00120FDF707FE641CBA
:103E20000A2CF4DB00BFFFF709F800200549888061
:103E300004E003480078401C0149087010BD0000F0
:103E400011000020000000200800002010B5FEF73F
:103E50007FF803490880FEF775F80149488010BDD6
:103E6000000000207CB5054628494968087801AB68
:103E700004220D21FEF738FB08B107207CBD9DF818
:103E80000700C0F301109DF8041001F0E00140EAC2
:103E9000E1008DF800009DF80700C0F381009DF857
:103EA000051001F0E00140EAE1008DF801009DF805
:103EB000070000F003009DF8061001F0E00140EA61
:103EC000E1008DF8020000241CE01DF8040018B980
:103ED000002045F8240013E00D4845F8240006E0D2
:103EE00055F824000B4901F0C3FE45F824001DF8E5
:103EF0000400401EC0B20DF804000028F0D100BF3D
:103F0000601CC4B2032CE0DB0020B7E714000020E3
:103F10007B14AE3E1D5A843F2DE9F04F87B0054615
:103F20000C46914601208DF8100000208DF81100FC
:103F3000FE4A1268917CFD4A5268107804AB022256
:103F4000FEF70CFB20B14FF0FF3007B0BDE8F08F5B
:103F5000C820FDF76BFD00208DF81000F34A1268B1
:103F6000D17BF24A5268107804AB0122FEF7F6FAD0
:103F700010B14FF0FF30E8E7EC4A12685179EB4A94
:103F80005268107804AB0122FEF7E8FA10B14FF046
:103F9000FF30DAE7E54A1268917CE44A526810780B
:103FA00004AB0122FEF7DAFA10B14FF0FF30CCE794
:103FB000DE4A1268D17DDD4A5268107804AB0122D6
:103FC000FEF7CCFA10B14FF0FF30BEE7D74A1268C7
:103FD0001179D64A5268107804AB0122FEF7BEFA76
:103FE00010B14FF0FF30B0E70C208DF81000CF4A31
:103FF00012681179CD4A5268107804AB0122FEF79D
:10400000ADFA10B14FF0FF309FE70F20FDF70EFD26
:10401000C648806A407A8DF81000C44A12689178C8
:10402000C24A5268107804AB0122FEF797FA10B129
:104030004FF0FF3089E7BD48806A007A8DF81000A4
:10404000BA4A12685178B94A5268107804AB012212
:10405000FEF784FA10B14FF0FF3076E7B9F1000FA8
:1040600007D0B248806A807A40F0E0008DF81000F6
:1040700004E0AE48806A807A8DF81000AB4A12687E
:104080009179AA4A5268107804AB0122FEF766FAC9
:1040900010B14FF0FF3058E7B9F1000F07D0A34837
:1040A000806AC07A40F0E0008DF8100003E0A0487C
:1040B000C07A8DF810009D4A1268D1799B4A5268E7
:1040C000107804AB0122FEF749FA10B14FF0FF302F
:1040D0003BE7B9F1000F02D0C820FDF7A7FC402054
:1040E0008DF81000914A12681179904A5268107840
:1040F00004AB0122FEF732FA10B14FF0FF3024E793
:1041000078208DF81000894A12685179874A5268E0
:10411000107804AB0122FEF721FA10B14FF0FF3006
:1041200013E783498889FDF781FC00208DF8100092
:104130007E4A126851797D4A5268107804AB012298
:10414000FEF70CFA10B14FF0FF30FEE6774A126826
:10415000917A764A5268107804AB0222FEF7C4F9CD
:1041600010B14FF0FF30F0E69DF811009DF81010EF
:1041700040EA012B0C209BFBF0F0C6B20020A860A7
:1041800068602860A06060602060824665E0674AE1
:104190001268D17A654A5268107804AB0C22FEF797
:1041A000A3F910B14FF0FF30CFE69DF811009DF854
:1041B000101040EA012000B2ADF808009DF813008D
:1041C0009DF8121040EA012000B2ADF80A009DF8F7
:1041D00015009DF8141040EA012000B2ADF80C0063
:1041E000BDF90810206808442060BDF90A10606815
:1041F00008446060BDF90C10A0680844A0609DF8F8
:1042000017009DF8161040EA012000B2ADF800003A
:104210009DF819009DF8181040EA012000B2ADF891
:1042200002009DF81B009DF81A1040EA012000B220
:10423000ADF80400BDF90010286808442860BDF9F5
:104240000210686808446860BDF90410A868084452
:10425000A8600AF1010000F0FF0AB24597DB34487C
:10426000D0F800C02868C117090441EA10410704CA
:10427000624600233846FBF7B8FF32460023CDE9FB
:104280000201FBF7B2FF28602948D0F800C0686837
:10429000C117090441EA1041070462460023384669
:1042A000FBF7A3FF32460023CDE90201FBF79DFF98
:1042B00068601F48D0F800C0A868C117090441EA27
:1042C00010410704624600233846FBF78EFF324652
:1042D0000023CDE90201FBF788FFA8601448D0F85D
:1042E00004C02168C817000440EA11480F04624660
:1042F000002338464146FBF778FF32460023CDE9DC
:104300000201FBF772FF20600948D0F804C0606822
:10431000C117090441EA10410704624600233846E8
:10432000FBF763FF3246002304E000001400002086
:10433000845F0008CDE90201FBF757FF6060114878
:10434000D0F804C0A068C117090441EA104107046D
:10435000624600233846FBF748FF32460023CDE98A
:104360000201FBF742FFA060A068002804DDA068FE
:10437000A0F58030A06003E0A06800F58030A06068
:104380000020E2E5845F00082DE9FC5F07468846CF
:1043900000263F494968087801AB03220D21FEF74A
:1043A000A3F810B10720BDE8FC9F9DF8040000F0C1
:1043B0001F008DF804009DF8050000F01F008DF827
:1043C00005009DF8060000F01F008DF8060000248F
:1043D00059E057F8240058F82410A0EB010BBBF16A
:1043E000000F01DB594601E0CBF10001084601F066
:1043F000DFFB4FF08F41009001F0C4FA824601A824
:10440000005D78B32349086801F0EAFB834659460A
:10441000214801F0B7FA814604E02049484601F0FE
:1044200027FC814601A8005D401EC0B201A90855C5
:104430000028F2D14946504601F0A4FA83464FF0D5
:104440007E5101F013FD054600BF25F00040834674
:1044500010488169584601F0D7FC13D20120A040D2
:1044600006430FE0FFE70B480169504601F0CCFB23
:1044700005D308484169504601F0C6FC02D201202C
:10448000A0400643641C032CA3DB30468BE70000EE
:1044900014000020845F000800B04C4554E3853FC1
:1044A00010B50446204600F00FF80346E01C00F06B
:1044B0000BF843EAC00083B2A01D00F005F843EA00
:1044C000801083B2184610BD014691F90020002AE1
:1044D00001DD00201EE091F90020002A01DA04200D
:1044E00018E091F90120002A01DD012012E091F984
:1044F0000120002A01DA05200CE091F90220002AAF
:1045000001DD022006E091F90220002A01DA0620EE
:1045100000E007207047FDF721FDFEF7D3FAFEF714
:104520008DFC0120FDF782FA0AE0FFF78FFC00F016
:10453000CDFFFFF755FCFEF7F5FE3220FDF776FACA
:10454000F3E7000070B50446002624F00104184883
:1045500090F8240008B1002070BD1548807A10B989
:104560004FF0FF30F8E71248057C807A2040104970
:1045700008740846007CA04202D04FF0FF3600E0ED
:10458000002614B90A48007D18B1012000F0D2FFBE
:1045900002E0002000F0CEFF3CB100F011FB20B1A2
:1045A000034805744FF0FF30D6E73046D4E70000EB
:1045B0001400002070B50024FDF760FE00F0FCF848
:1045C000002840D1782000F0A7FEC4B20CB1012031
:1045D00070BD7820FFF7B6FFC4B20CB10220F7E738
:1045E000642000F04BFEC4B20CB10320F0E7FFF7EB
:1045F00039F8C4B20CB10420EAE71548FFF750FFC0
:104600000546FFF7A3F9C4B20CB10520E0E740F27C
:104610007310FEF7CFFEC4B20CB10620D8E76420B9
:10462000FFF7C4F8C4B20CB10720D1E700F022FFB5
:1046300004460CB10820CBE7012000F01BFDC4B2FA
:104640001CB10920C4E70A20C2E70020C0E700002F
:104650004000002001461148407A30B1012807D0BF
:10466000022808D003280CD108E0022008700BE0D3
:104670000420087008E00820087005E01020087089
:1046800002E04FF0FF30704700BF0448C07C18B113
:1046900008784006000E08700020F4E7140000209F
:1046A00001461348407A30B1012808D002280AD0C8
:1046B000032810D10BE04FF4804008800EE041F653
:1046C0009C7008800AE04FF48050088006E04FF4A8
:1046D0000060088002E04FF0FF30704700BF0448E0
:1046E000C07C10B10888401008800020F5E7000069
:1046F0001400002001460248007C0870002070472A
:104700001400002001460F48007A30B1012807D07C
:10471000022809D003280FD10AE0FA2008800EE011
:104720004FF4FA7008800AE04FF47A70088006E0CF
:104730004FF4FA60088002E00020088000BF00BF4C
:10474000002070471400002001461248C07A082853
:1047500017D2DFE800F01704070A0D101318BC2069
:10476000088013E06220088010E02A2008800DE015
:10477000142008800AE00A20088007E0052008804D
:1047800004E000BF00BF0020088000BF00BF002081
:1047900070470000140000200146064890F82400ED
:1047A00010B14FF0FF3070470248C08908800020E8
:1047B000F9E70000140000201CB580208DF80000EF
:1047C000654A1268917C644A526810786B460122EF
:1047D000FDF7C4FE10B14FF0FF301CBD6420FDF7A3
:1047E00025F900208DF800005B4A1268917C5A4A36
:1047F000526810786B460122FDF7B0FE10B14FF001
:10480000FF30EAE7544A1268917D534A52681078A3
:104810006B460622FDF768FE10B14FF0FF30DCE773
:104820009DF80500C007400F9DF8031001F001013D
:1048300040EA41009DF8011001F0010140EA010445
:1048400094B1012C03D101214348C17431E0022C01
:1048500003D100214048C1742BE021463FA0FBF763
:10486000E9FC4FF0FF30B8E73B4A1268D1783A4A8A
:10487000526810786B460122FDF736FE10B14FF0FA
:10488000FF30AAE79DF8000000F00F042CB93D4866
:10489000FBF7D0FC4FF0FF309FE7042C06D13AA085
:1048A000FBF7C8FC01212C48C17402E000212A4812
:1048B000C174FF2128488172FF2027490872FF2117
:1048C00025484172C1724FF6FF71C181FF21017409
:1048D00081740121017380F82210002180F82310D7
:1048E000417501751630016041608160163880F8AD
:1048F000241080F82510C1844FF4FA6000F002FC07
:1049000010B14FF0FF3068E7022000F0CBFA10B191
:104910004FF0FF3061E72A2000F06EFC10B14FF03D
:10492000FF305AE7322000F0A9FC10B14FF0FF3001
:1049300053E70020FFF706FE10B14FF0FF304CE7C1
:10494000002000F0F1FA10B14FF0FF3045E70020F1
:1049500000F0E2FC002040E714000020556E737563
:1049600070706F7274656420736F667477617265BE
:104970002070726F64756374207265762025642ED2
:104980000A000000888B000848616C662073656E21
:104990007369746976697479207061727420666FC6
:1049A000756E642E0A0000002DE9F04385B00546BF
:1049B0000E4690469946294890F8250020B14FF0C0
:1049C000FF3005B0BDE8F08316B94FF0FF30F8E7CF
:1049D000002423E0281B102801DD102000E0281B04
:1049E00087B232193946204600F0FEFC10B14FF074
:1049F000FF30E6E701AA3946204600F0A1F810B1E1
:104A00004FF0FF30DDE730193A4601A9FBF7F6FC1D
:104A100010B16FF00100D4E7E01984B2AC42D9DBE9
:104A20004FEA28208DF8000008F0FF008DF8010003
:104A30000A4A1268917E094A526810786B4602222F
:104A4000FDF78CFD10B14FF0FF30BAE701210348AC
:104A500080F82510A0F826900020B2E7140000206E
:104A600038B50446282C02DD4FF0FF3038BDDCB9E4
:104A7000002000F08BFB00208DF8000007208DF84F
:104A800001002E4A1268917C2C4A526810786B46BD
:104A90000222FDF763FD10B14FF0FF30E6E7002181
:104AA000264801750020E1E7012000F06FFB20207F
:104AB0008DF80000012C06D100208DF801000520A2
:104AC00000F09AFB17E0052C06DC01208DF80100B0
:104AD000052000F091FB0EE0142C06DC02208DF87E
:104AE00001000A2000F088FB05E003208DF801009A
:104AF000142000F081FB9DF80100072101EB8010DC
:104B0000C0B28DF801000D4A1268917C0B4A5268C0
:104B100010786B460222FDF721FD10B14FF0FF30F7
:104B2000A4E7082105488172002101730121017564
:104B30000020FFF707FD002098E700001400002088
:104B4000F8B504460D46164616B94FF0FF30F8BDCD
:104B50001A48807A10B94FF0FF30F8E720128DF82C
:104B60000000E0B28DF801009DF8010028441349CF
:104B700049684989884202DD4FF0FF30E7E70F4A74
:104B80001268117E0D4A526810786B460222FDF7BA
:104B9000E5FC10B14FF0FF30D9E7EAB2074B1B68D4
:104BA000597D064B5B6818783346FDF79DFC10B1C4
:104BB0004FF0FF30CBE70020C9E7000014000020D1
:104BC00008B57048807A10B94FF0FF3008BD00205A
:104BD00000906C4A1268D17B6A4A526810786B4622
:104BE0000122FDF7BBFC10B14FF0FF30EEE7654A44
:104BF00012685179634A526810786B460122FDF7BA
:104C0000ADFC10B14FF0FF30E0E75E4A1268117959
:104C10005C4A526810786B460122FDF79FFC10B188
:104C20004FF0FF30D2E7574890F82400002853D0C7
:104C30000C200090534A12681179524A5268107839
:104C40006B460122FDF78AFC10B14FF0FF30BDE743
:104C50003220FCF7EBFEC02000904A48807A00F03A
:104C6000010020B19DF8000040F020000090454A6E
:104C700012681179434A526810786B460122FDF799
:104C80006DFC10B14FF0FF30A0E73E48407C10B102
:104C90000220009001E0002000903A4A1268D17B87
:104CA000384A526810786B460122FDF757FC10B164
:104CB0004FF0FF308AE700200090324A12685179A5
:104CC000304A526810786B460122FDF747FC0028F5
:104CD00055D04FF0FF3079E704200090294A126840
:104CE0001179284A526810786B460122FDF736FC8C
:104CF00010B14FF0FF3069E72248807C20B921488D
:104D0000807A00F0010010B94020009001E060209E
:104D100000901C4A126811791A4A526810786B4642
:104D20000122FDF71BFC10B14FF0FF304EE732209F
:104D3000FCF77CFE1348407C10B10120009001E09C
:104D4000002000900F4A1268D17B0E4A52681078FA
:104D50006B460122FDF702FC10B14FF0FF3035E742
:104D6000084A12685179074A52681078054B103387
:104D70000122FDF7F3FB10B14FF0FF3026E70020D2
:104D800024E70000140000202DE9F04F8DB0834689
:104D90000F4602200C90424890F8240020B10020D9
:104DA00000F068F9012600E0002603A8FFF7AAFC3E
:104DB00005A8FFF74FFC01A8FFF7C6FC02A8FFF704
:104DC000EBFC374890F80AA004A8FFF793FC0024F6
:104DD00007E0002239465846FFF79EF800B902E086
:104DE000641C022CF5DB00BF022C01D1002528E059
:104DF000002407E0012206A909A8FFF78DF800B9F1
:104E000002E0641C022CF5DB00BF022C01D100255E
:104E100017E006A93846FEF72FFA00F0FF0809A9A7
:104E20005846FFF7B1FA00F0FF090025B9F1000F6D
:104E300001D145F00105B8F1000F01D145F002059F
:104E400000BFFF2016490872FF2115484172C17248
:104E50004FF6FF71C181FF2181720174012101733D
:104E6000BDF80C0000F04EF99DF8140000F01AF89F
:104E7000BDF8040000F0C0F9BDF8080000F0FEF92C
:104E8000504600F049FA9DF81000FFF75BFB16B1A1
:104E9000012000F0EFF828460DB0BDE8F08F0000CB
:104EA0001400002038B504461E48807A10B94FF02F
:104EB000FF3038BD022C06D0042C07D0082C08D0B7
:104EC000102C0CD108E0002000900BE0082000908E
:104ED00008E01020009005E01820009002E04FF05C
:104EE000FF30E6E700BF0F48407A9DF80010B0EBB6
:104EF000E10F01D10020DCE70A4A1268D179094AA2
:104F0000526810786B460122FDF728FB10B14FF074
:104F1000FF30CEE79DF80000C1100248417200202A
:104F2000C7E700001400002038B504465048807CD4
:104F3000A04201D1002038BD002C46D04C4A126856
:104F400011794B4A526810786B460122FDF7CCFA72
:104F500010B14FF0FF30EEE79DF8000020F0200088
:104F60000090434A12681179414A526810786B46A2
:104F70000122FDF7F3FA10B14FF0FF30DBE7032019
:104F8000FCF754FD02200090394890F8220020B12F
:104F90009DF8000040F080000090354890F8230014
:104FA00020B19DF8000040F030000090304A1268B7
:104FB000117D2F4A526810786B460122FDF7CEFA18
:104FC000002851D04FF0FF30B5E7294A1268117917
:104FD000274A526810786B460122FDF785FA10B116
:104FE0004FF0FF30A7E72248807A00F0010028B197
:104FF0009DF8000040F02000009004E09DF80000C3
:1050000020F0200000901A4A12681179184A52685C
:1050100010786B460122FDF7A1FA10B14FF0FF3076
:1050200089E70320FCF702FD114890F8220010B137
:105030008020009001E0002000900D4890F82300AF
:1050400020B19DF8000040F030000090084A12683E
:10505000117D074A526810786B460122FDF77EFAEF
:1050600010B14FF0FF3066E701488474002062E71A
:105070001400002038B50446214890F82400A042CE
:1050800001D1002038BD24B31D4890F8250010B987
:105090004FF0FF30F6E7002000F04CFA0020FFF759
:1050A00043FF1749C88C00F0E9F80020009014492C
:1050B000496808786B4601222321FDF74FFA012148
:1050C0000F4880F82410012000F034FAFFF778FD33
:1050D00013E0002000F02EFA0948007C00900849F7
:1050E000496808786B4601222321FDF737FA002131
:1050F000034880F82410FFF763FD0020C2E700009A
:105100001400002038B504461F48807A10B94FF0CB
:10511000FF3038BDFA2C09D0B4F5FA7F09D0B4F5C8
:105120007A7F09D0B4F5FA6F0CD108E00020009026
:105130000BE00820009008E01020009005E0182007
:10514000009002E04FF0FF30E3E700BF0E48007A26
:105150009DF80010B0EBE10F01D10020D9E70A4A19
:1051600012689179084A526810786B460122FDF75F
:10517000F5F910B14FF0FF30CBE79DF80000C010FB
:10518000014908720020C4E71400002038B5044625
:10519000184890F82300A04201D1002038BD14B176
:1051A0003020009001E0002000901248807C20B167
:1051B0009DF8000040F0020000900E4890F8220098
:1051C00020B19DF8000040F080000090094A12686C
:1051D000117D084A526810786B460122FDF7BEF92E
:1051E00010B14FF0FF30D9E7024880F8234000208B
:1051F000D4E700001400002038B504461E48807A29
:1052000010B94FF0FF3038BDBC2C02DB01200090FC
:1052100015E0622C02DB0220009010E02A2C02DB59
:10522000032000900BE0142C02DB0420009006E029
:105230000A2C02DB0520009001E0062000900E48B9
:10524000C07A9DF80010884201D10020DBE70A4AAD
:1052500012689178084A526810786B460122FDF76F
:105260007DF910B14FF0FF30CDE79DF800100248F6
:10527000C1720020C7E700001400002038B50446C2
:105280002448807A10B94FF0FF3038BD214890F89B
:10529000240010B14FF0FF30F7E71E48007D50B1F9
:1052A00034B1282C04DCE0B2FFF7DAFB0020ECE795
:1052B0000020FFF7D5FB042C01DA042404E0B4F548
:1052C0007A7F01DD4FF47A744FF47A7090FBF4F03A
:1052D000401EC0B200900F4A126851780D4A5268C1
:1052E00010786B460122FDF739F910B14FF0FF300D
:1052F000CBE79DF80000401C4FF47A7191FBF0F071
:1053000081B20448C1810146C9894810FFF774FF82
:105310000020BAE71400002038B5044604F07000FD
:1053200010B10120009005E014B10020009001E0D0
:10533000402000902B4A1268917C2A4A52681078CB
:105340006B460122FDF70AF920B100212548817240
:10535000481E38BD9DF8000020F04001214801732F
:105360000020009004F0400020B99DF8000040F0BB
:105370000400009004F0200020B99DF8000040F0E7
:105380000200009004F0100020B99DF8000040F0E9
:105390000100009004F0080020B99DF8000040F0E2
:1053A000380000900F4A1268D17C0E4A526810787B
:1053B0006B460122FDF7D2F820B100210948817225
:1053C000481EC6E724B1082C02D00020FFF7DEFEFD
:1053D00004488472002101753220FCF727FB00206D
:1053E000B7E7000014000020F8B504460D46164645
:1053F00016B94FF0FF30F8BD1A48807A10B94FF057
:10540000FF30F8E720128DF80000E0B28DF80100BF
:105410009DF801002844134949684989884202DD02
:105420004FF0FF30E7E70F4A1268117E0D4A5268CD
:1054300010786B460222FDF791F810B14FF0FF3063
:10544000D9E7EAB2074B1B68597D064B5B681878B1
:105450003346FDF783F810B14FF0FF30CBE7002063
:10546000C9E700001400002010B5FCF78DF8FCF728
:10547000ABF810BD10B586B0694603A8FFF784FCF1
:105480000446032C15D10C4803900C4804900C489A
:10549000059003A8FEF7C2F94FF0DE7000900948AE
:1054A0000190094802906846FEF7E8F8002006B02F
:1054B00010BD0120FBE700006494E8FF403DFFFFC2
:1054C0000209FAFF0040ECFD00C0C3F510B5174813
:1054D000008840F60C01884217DA1448008840F230
:1054E000E471884211DD1148408840F60C01884281
:1054F0000BDA0E48408840F2E471884205DD0C4822
:105500000078401C0A49087002E000200849087031
:1055100007480078042805DB05480078401E044948
:10552000087002E00148FDF7C1FC10BD000000203A
:105530001000002038B50446214890F82400C0B17E
:1055400014B10220009001E0002000901C4A126873
:10555000D17B1B4A526810786B460122FCF7FEFF94
:1055600010B14FF0FF3038BD9DF800101448417461
:1055700023E01348807A10B94FF0FF30F3E724B1ED
:105580000F48407C08B10020EDE714B101200090E5
:1055900001E0002000900A4A1268D17B084A526854
:1055A00010786B460122FCF7D9FF10B14FF0FF30A5
:1055B000D9E79DF80010024841740020D3E70000AD
:1055C0001400002010B500290AD00878002807D060
:1055D00005487844FBF7D0FB002801D0002010BD1F
:1055E0000248784410BD0000263600001E36000038
:1055F00021F00042A2F16052B2F5801F01F0004399
:1056000028BFD2F17F6C0BD95FEA001C43EAC202CB
:1056100042EB507018BF704728BF20F00100704760
:10562000B2F5801FBCBF184670474FEA410C1CF50D
:10563000001F02D2084600F0E2BB70B500F0B4F8DB
:1056400000000089FFF7F6BF4FF00040A0F5800092
:1056500070470000DFF848C170B51CEA111E1EBF7C
:105660001CEA13159EEA0C0F95EA0C0F00F06F80F0
:1056700081EA030423EA4C134EEAD47E21EA4C115A
:1056800041F4801143F48013AE44A1FB024CA0FB13
:105690000365AEF17F7E361955EB0C05A1FB034C7B
:1056A0004CF10003A0FB021C16EB0C06654153F104
:1056B0000003094218BF46F0010613F4007F0BD126
:1056C0004FEA03314FEA0530340341EA155140EA0D
:1056D00016506FF003020AE04FEAC3214FEAC520DB
:1056E000F40241EA555140EA56506FF0020202EBD3
:1056F0002E4201EB025585EACE710AD05FEA440CD6
:1057000018BF24F0004450F1000041F1000120EAEC
:10571000D47040F2FE7C624500D270BDA84214BF36
:105720004FF080444FF04044002E08BF0024BEF1EB
:10573000806FA8BFA1F1C041BDE8704080F28280B7
:105740004FF0000001F1C04101F0004170479EEAB6
:105750000C0F0CEA131518BF95EA0C0F06D04FF08A
:10576000000081EA030E0EF0004170BD00F01CF84D
:105770008900013E00F007B800F009B84FEA430C79
:105780005FEA5C5C08D081EA030100F05BB84FEA95
:10579000410C5FEA5C5CF6D14FF0000001497047B4
:1057A0000000FF070000F87F0EF1020E2EF0030E3E
:1057B0005EF8046B364205D4012A43EB030515F568
:1057C000001F12D8012841EB010C1CF5001F0CD85A
:1057D0000ED14FEAD17C15F5001F0CEB4C0C0CF1EF
:1057E000020C08BF4CEBD37C04E04FF0080C01E046
:1057F0004FEAD37C0CEB4C0526FA05F606F00706BB
:10580000B6F1040C06D20EEB860CBDE870404CF0ED
:10581000010C6047DFE80CF0090B02024FF0004179
:105820004FF00000A1F5002170BD19461046012877
:1058300051EB010418BFD4F5001484BF002001F01F
:10584000004170BD0808A0F500114FEA3101704712
:1058500043004FEAD30C4FEA3C0C43401FBF4007C4
:105860000CF1605113F0FE4F70471CF0006F03D134
:1058700000200CF0004170470CF0004343EA5070E8
:1058800010B540EACC0000F074FA00BF00000092AE
:105890004FEA0001FFF7D6BF4FF000414FF0000084
:1058A000A1F500217047000090EA010F48BF81F088
:1058B000004100F1E282421A3CBF801A89184FEA87
:1058C000D0524FF07F4C1CEA410FA2EBD15318BFCE
:1058D0009CEA026F00F03B804FF0004C4CEA002045
:1058E0004CEA012121FA03FC10EB0C0C1ED202F150
:1058F000FF325FEA1C2040EBC25038BF70471CF0FB
:105900007F0F4FEA400C18BFBCF17F4F38BF704784
:10591000C3F12003994008BF20F00100BCF17F4F84
:1059200038BF7047A0F1C04000F069BA4FEA3C00B0
:10593000000A40EBC25028BF1CF0FF0F4FEA400C9A
:10594000E6D018BFBCF17F4F38BF7047EAE79CEA4A
:10595000026F05D010EA5C0F08BF00F000407047EE
:1059600010B500F006FA00BF64FBBE3E401058BF01
:10597000C0F14040491058BFC1F140418142EFF3AE
:10598000008070474FF47F0C1CEAD0121EBF1CEA47
:10599000D11392EA0C0F93EA0C0F00F0858090EA85
:1059A000010F48BF42F4807240F4000C41F4000043
:1059B0002CF07F4120F07F4000B58142A2EB030232
:1059C0000FF2081CACEB504EC0F100009EF800E056
:1059D0004FEA4E0E00FB0EFC38BF49004FEA2C1C6C
:1059E00002F5FA020CFB0EF34FEACE1E4FEA112C21
:1059F0004FEAC1210EEB635E42EB22420EFB0CFC30
:105A00004FEA1C5300FB03114FEA112C4FEA0131FE
:105A10000EFB0CFC4FEADC4C00FB0C11C14228BF12
:105A200009184CEB03335DF804EB10EB410143EB39
:105A3000C250B2F57C0F38BF704729D512F0F00F75
:105A40001CBF00F1C04000F000407047008182831D
:105A50008485868788898B8C8D8E8F91929395967D
:105A600097999A9C9D9FA0A2A3A5A7A8AAACAEB007
:105A7000B2B3B5B7B9BCBEC0C2C5C7C9CCCED1D40C
:105A8000D7D9DCDFE2E6E9ECF0F3F7FAFE0000003C
:105A90004FEA400C0CF1807CBCF17E4F28BF704770
:105AA000B0F1C04000F0ABB990EA010F0CEAD1139D
:105AB00048BF42F48072624538BF634507D213F491
:105AC0007F0F16D080EA010000F00040704710B54B
:105AD00000F04FF9097EFC3E00F005B880EA0100B5
